:10000000F8FF002011040000E3C00000E3C000007E
:10001000E3C00000E3C00000E3C00000E3C0000054
:10002000E3C00000E3C00000E3C00000E3C0000044
:10003000E3C00000E3C00000E3C00000E3C0000034
:10004000E3C00000E3C00000E3C00000E3C0000024
:10040000FFFFFFFFFFFFFFFFFFFFFFFFFEFFFFFFFD
:1004100062B616F093FEFEE7FFFFFFFFFFFFFFFF50
:10042000FFFFFFFFFFFFFFFFFFFFFFFFFFFFFFFFDC
:10043000FFFFFFFFFFFFFFFFFFFFFFFFFFFFFFFFCC
:10044000FFFFFFFFFFFFFFFFFFFFFFFFFFFFFFFFBC
:10045000FFFFFFFFFFFFFFFFFFFFFFFDF3E9DFD51A
:10046000CBC1B7ADA3998F857B71675D53493F358C
:100470002B21170D03000000000000000000000009
:10048000000000000000000000000000000000006C
:10049000000000000000000000000000000000005C
:1004A000000000000000000000000000000000004C
:1004B0000000000000000000FFFFFFFFFFFFFFFF44
:1004C000FFFFFFFFFFFFFFFFFFFFFFFFFFFFFFFF3C
:1004D000FFFFFFFFFFFFFFFFFFFFFFFFFFFFFFFF2C
:1004E000FFFFFFFFFFFFFFFFFFFFFFFFFFFFFFFF1C
:1004F000FFFFFFFFFFFFFFFFFFFFFFFFFFFFFFF318
:10050000E6D8CBBDAFA29486796B5D5042352719F2
:100510000C000000000000000000000000000000CF
:1005200000000000000000000000000000000000CB
:1005300000000000000000000000000000000000BB
:1005400000000000000000000000000000000000AB
:100550000000000000000000FFFFFFFFFFFFFFFFA3
:10056000FFFFFFFFFFFFFFFFFFFFFFFFFFFFFFFF9B
:10057000FFFFFFFFFFFFFFFFFFFFFFFFFFFFFFFF8B
:10058000FFFFFFFFFFFFFFFFFFFFFFFFFFFFFFFF7B
:10059000FFFFFFFFFFFFFFFFFFFFFFFFFFFFFFFF6B
:1005A000FFFFF5E0CBB5A08A755F4A351F0A000052
:1005B000000000000000000000000000000000003B
:1005C000000000000000000000000000000000002B
:1005D000000000000000000000000000000000001B
:1005E000000000000000000000000000000000000B
:1005F0000000000000000000FFFFFFFFFFFFFFFF03
:10060000FFFFFFFFFFFFFFFFFFFFFFFFFFFFFFFFFA
:10061000FFFFFFFFFFFFFFFFFFFFFFFFFFFFFFFFEA
:10062000FFFFFFFFFFFFFFFFFFFFFFFFFFFFFFFFDA
:10063000FFFFFFFFFFFFFFFFFFFFFFFFFFFFFFFFCA
:10064000FFFFFFFFFFFDCB996735030000000000AF
:10065000000000000000000000000000000000009A
:10066000000000000000000000000000000000008A
:10067000000000000000000000000000000000007A
:10068000000000000000000000000000000000006A
:10069000000000000000000000000000000000005A
:1006A000000000000000000000000000000000004A
:1006B000000000000000000000000000000000003A
:1006C000000000000000000000000000000000002A
:1006D000000000000000000000000000000000001A
:1006E0000000000000000034CAFFFFFFFFFFFFFF13
:1006F000FFFFFFFFFFFFFFFFFFFFFFFFFFFFFFFF0A
:10070000FFFFFFFFFFFFFFFFFFFFFFFFFFFFFFFFF9
:10071000FFFFFFFFFFFFFFFFFFFFFFFFFFFFFFFFE9
:10072000FFFFFFFFFFFFFFFFFFFFFFFFFFFFFFFFD9
:10073000FFFFFFFFFFFFFFFF0000000000000000C1
:1007400000000000000000000000000000000000A9
:100750000000000000000000000000000000000099
:100760000000000000000000000000000000000089
:100770000000000000000000000000000000000079
:1007800000000000163452708EACCAE8FFFFFFFF75
:10079000FFFFFFFFFFFFFFFFFFFFFFFFFFFFFFFF69
:1007A000FFFFFFFFFFFFFFFFFFFFFFFFFFFFFFFF59
:1007B000FFFFFFFFFFFFFFFFFFFFFFFFFFFFFFFF49
:1007C000FFFFFFFFFFFFFFFFFFFFFFFFFFFFFFFF39
:1007D000FFFFFFFFFFFFFFFF000000000000000021
:1007E0000000000000000000000000000000000009
:1007F00000000000000000000000000000000000F9
:1008000000000000000000000000000000000000E8
:1008100000000000000000000000000000000000D8
:1008200002132434455666778898A9BACADBECFCD3
:10083000FFFFFFFFFFFFFFFFFFFFFFFFFFFFFFFFC8
:10084000FFFFFFFFFFFFFFFFFFFFFFFFFFFFFFFFB8
:10085000FFFFFFFFFFFFFFFFFFFFFFFFFFFFFFFFA8
:10086000FFFFFFFFFFFFFFFFFFFFFFFFFFFFFFFF98
:10087000FFFFFFFFFFFFFFFF000000000000000080
:100880000000000000000000000000000000000068
:100890000000000000000000000000000000000058
:1008A0000000000000000000000000000000000048
:1008B0000000000000000000000000000006121D03
:1008C0002934404C57636E7A85919CA8B3BFCBD630
:1008D000E2EDF9FFFFFFFFFFFFFFFFFFFFFFFFFF5D
:1008E000FFFFFFFFFFFFFFFFFFFFFFFFFFFFFFFF18
:1008F000FFFFFFFFFFFFFFFFFFFFFFFFFFFFFFFF08
:10090000FFFFFFFFFFFFFFFFFFFFFFFFFFFFFFFFF7
:10091000FFFFFFFFFFFFFFFF0000000000000000DF
:1009200000000000000000000000000000000000C7
:1009300000000000000000000000000000000000B7
:1009400000000000000000000000000000000000A7
:100950000000000000000000000008111A232C34E1
:100960003D464F586169727B848D969EA7B0B9C28F
:10097000CAD3DCE5EEF7FFFFFFFFFFFFFFFFFFFF3E
:10098000FFFFFFFFFFFFFFFFFFFFFFFFFFFFFFFF77
:10099000FFFFFFFFFFFFFFFFFFFFFFFFFFFFFFFF67
:1009A000FFFFFFFFFFFFFFFFFFFFFFFFFFFFFFFF57
:1009B000FFFFFFFFFFFFFFFF00000000000000003F
:1009C0000000000000000000000000000000000027
:1009D0000000000000000000000000000000000017
:1009E0000000000000000000000000000000000007
:1009F000000000000000020A11181F262D343C439D
:100A00004A51585F666E757C838A9198A0A7AEB5EF
:100A1000BCC3CAD2D9E0E7EEF5FCFFFFFFFFFFFF42
:100A2000FFFFFFFFFFFFFFFFFFFFFFFFFFFFFFFFD6
:100A3000FFFFFFFFFFFFFFFFFFFFFFFFFFFFFFFFC6
:100A4000FFFFFFFFFFFFFFFFFFFFFFFFFFFFFFFFB6
:100A5000FFFFFFFFFFFFFFFF00000000000000009E
:100A60000000000000000000000000000000000086
:100A70000000000000000000000000000000000076
:100A80000000000000000000000000000000000066
:100A9000000000040A10161C22282E343A40464C4E
:100AA00052585E646A70767C82898E949BA0A7AC53
:100AB000B2B9BEC5CAD0D7DCE3E8EEF5FAFFFFFF56
:100AC000FFFFFFFFFFFFFFFFFFFFFFFFFFFFFFFF36
:100AD000FFFFFFFFFFFFFFFFFFFFFFFFFFFFFFFF26
:100AE000FFFFFFFFFFFFFFFFFFFFFFFFFFFFFFFF16
:100AF000FFFFFFFFFFFFFFFF0000000000000000FE
:100B000000000000000000000000000000000000E5
:100B100000000000000000000000000000000000D5
:100B200000000000000000000000000000000001C4
:100B3000060B10151B20252A2F343A3F44494E54EA
:100B4000595E63686D73787D82878C92979CA1A6AD
:100B5000ABB1B6BBC0C5CBD0D5DADFE4EAEFF4F970
:100B6000FEFFFFFFFFFFFFFFFFFFFFFFFFFFFFFF96
:100B7000FFFFFFFFFFFFFFFFFFFFFFFFFFFFFFFF85
:100B8000FFFFFFFFFFFFFFFFFFFFFFFFFFFFFFFF75
:100B9000FFFFFFFFFFFFFFFF00000000000000005D
:100BA0000000000000000000000000000000000045
:100BB0000000000000000000000000000000000035
:100BC00000000000000000000000000003070C10FF
:100BD00015191E22272B3034393E42474B505459A9
:100BE0005D62666B7074797D82868B8F94989DA20E
:100BF000A6ABAFB4B8BDC1C6CACFD4D8DDE1E6EA72
:100C0000EFF3F8FCFFFFFFFFFFFFFFFFFFFFFFFF1A
:100C1000FFFFFFFFFFFFFFFFFFFFFFFFFFFFFFFFE4
:100C2000FFFFFFFFFFFFFFFFFFFFFFFFFFFFFFFFD4
:100C3000FFFFFFFFFFFFFFFF0000000000000000BC
:100C400000000000000000000000000000000000A4
:100C50000000000000000000000000000000000094
:100C600000000000000000000004080C1014181C14
:100C70002024282C3034393D4145494D5155595D8A
:100C80006165696D7175797D82868A8E92969A9E6C
:100C9000A2A6AAAEB2B6BABEC2C6CACFD3D7DBDF4F
:100CA000E3E7EBEFF3F7FBFFFFFFFFFFFFFFFFFFC4
:100CB000FFFFFFFFFFFFFFFFFFFFFFFFFFFFFFFF44
:100CC000FFFFFFFFFFFFFFFFFFFFFFFFFFFFFFFF34
:100CD000FFFFFFFFFFFFFFFF00000000000000001C
:100CE0000000000000000000000000000000000004
:100CF00000000000000000000000000000000000F4
:100D000000000000000105090C1014171B1F22260B
:100D10002A2D3134383C3F43474A4E5255595D6085
:100D200064686B6F73767A7E8185898C9094979BCB
:100D30009FA2A6AAADB1B5B8BCC0C3C7CACED2D512
:100D4000D9DDE0E4E8EBEFF3F6FAFEFFFFFFFFFF8B
:100D5000FFFFFFFFFFFFFFFFFFFFFFFFFFFFFFFFA3
:100D6000FFFFFFFFFFFFFFFFFFFFFFFFFFFFFFFF93
:100D7000FFFFFFFFFFFFFFFF00000000000000007B
:100D80000000000000000000000000000000000063
:100D90000000000000000000000000000000000053
:100DA00000000206090C1013161A1D2024272A2EF3
:100DB0003134383B3E4245484C4F5256595C606393
:100DC000676A6D7074777A7E8184888B8F9295982C
:100DD0009C9FA2A6A9ACB0B3B7BABDC1C4C7CACEC6
:100DE000D1D4D8DBDEE2E5E8ECEFF3F6F9FCFFFF67
:100DF000FFFFFFFFFFFFFFFFFFFFFFFFFFFFFFFF03
:100E0000FFFFFFFFFFFFFFFFFFFFFFFFFFFFFFFFF2
:100E1000FFFFFFFFFFFFFFFF0000000000000000DA
:100E200000000000000000000000000000000000C2
:100E300000000000000000000000000000000004AE
:100E4000070A0D101316191C1F2225282B2E3134CA
:100E5000383B3E4144474A4D505356595C5F6265AA
:100E6000696C6F7275787B7E8184878A8D9093968A
:100E70009A9DA0A3A6A9ACAFB2B5B8BBBEC1C4C76A
:100E8000CACED1D4D7DADDE0E3E6E9ECEFF2F5F84B
:100E9000FBFFFFFFFFFFFFFFFFFFFFFFFFFFFFFF66
:100EA000FFFFFFFFFFFFFFFFFFFFFFFFFFFFFFFF52
:100EB000FFFFFFFFFFFFFFFF00000000000000003A
:100EC0000000000000000000000000000000000022
:100ED00000000000000000000000000204070A0DEE
:100EE000101315181B1E212426292C2F3234373AB3
:100EF0003D404345484B4E515456595C5F626567CF
:100F00006A6D707376787B7E818487898C8F9295E9
:100F1000989A9DA0A3A6A9ABAEB1B4B7BABCBFC204
:100F2000C5C8CACDD0D3D6D9DBDEE1E4E7EAECEF21
:100F3000F2F5F8FBFDFFFFFFFFFFFFFFFFFFFFFFE5
:100F4000FFFFFFFFFFFFFFFFFFFFFFFFFFFFFFFFB1
:100F5000FFFFFFFFFFFFFFFF000000000000000099
:100F60000000000000000000000000000000000081
:100F700000000000000000000205080A0D10121514
:100F8000181A1D1F2225272A2D2F3234373A3C3FAD
:100F90004244474A4C4F515457595C5F61646669FB
:100FA0006C6E717476797C7E818386898B8E919349
:100FB00096989B9EA0A3A6A8ABAEB0B3B5B8BBBD98
:100FC000C0C3C5C8CACDD0D2D5D8DADDE0E2E5E7E6
:100FD000EAEDEFF2F5F7FAFCFFFFFFFFFFFFFFFF7F
:100FE000FFFFFFFFFFFFFFFFFFFFFFFFFFFFFFFF11
:100FF000FFFFFFFFFFFFFFFF0000000000000000F9
:1010000000000000000000000000000000000000E0
:1010100000000000010306080B0D10121517191C23
:101020001E212326282B2D30323437393C3E4143B4
:1010300046484B4D50525457595C5E616366686B2D
:101040006D70727477797C7E818386888B8D8F92A8
:101050009497999C9EA1A3A6A8ABADAFB2B4B7B923
:10106000BCBEC1C3C6C8CACDCFD2D4D7D9DCDEE19D
:10107000E3E6E8EAEDEFF2F4F7F9FCFEFFFFFFFF2D
:10108000FFFFFFFFFFFFFFFFFFFFFFFFFFFFFFFF70
:10109000FFFFFFFFFFFFFFFF000000000000000058
:1010A0000000000000000000000000000000000040
:1010B00000020406090B0D10121416191B1D202224
:1010C0002427292B2E30323437393B3E40424547C6
:1010D000494C4E50525557595C5E606365676A6C67
:1010E0006E707375777A7C7E818385888A8C8E9109
:1010F0009395989A9C9FA1A3A6A8AAACAFB1B3B6AA
:10110000B8BABDBFC1C4C6C8CACDCFD1D4D6D8DB4A
:10111000DDDFE2E4E6E8EBEDEFF2F4F6F9FBFDFFEC
:10112000FFFFFFFFFFFFFFFFFFFFFFFFFFFFFFFFCF
:10113000FFFFFFFFFFFFFFFF0000000000000000B7
:101140000000000000000000000000000000030597
:1011500007090B0D10121416181A1D1F212325271D
:101160002A2C2E30323437393B3D3F424446484AE0
:101170004C4F51535557595C5E60626467696B6DA3
:101180006F717476787A7C7E81838587898B8E9067
:10119000929496989B9D9FA1A3A6A8AAACAEB0B32B
:1011A000B5B7B9BBBDC0C2C4C6C8CBCDCFD1D3D5EE
:1011B000D8DADCDEE0E2E5E7E9EBEDEFF2F4F6F8B1
:1011C000FAFCFFFFFFFFFFFFFFFFFFFFFFFFFFFF37
:1011D000FFFFFFFFFFFFFFFF000000000000000017
:1011E0000000000000000000000001030507090BDB
:1011F0000D10121416181A1C1E20222426282A2C20
:101200002E30323437393B3D3F41434547494B4D02
:101210004F51535557595C5E60626466686A6C6EE4
:1012200070727476787A7C7E81838587898B8D8FC6
:1012300091939597999B9D9FA1A3A6A8AAACAEB0A8
:10124000B2B4B6B8BABCBEC0C2C4C6C8CBCDCFD18A
:10125000D3D5D7D9DBDDDFE1E3E5E7E9EBEDEFF26D
:10126000F4F6F8FAFCFEFFFFFFFFFFFFFFFFFFFFB2
:10127000FFFFFFFFFFFFFFFF000000000000000076
:1012800000000000000000020406080A0C0E0F1106
:10129000131517191B1D1F21232527292B2D2F312E
:1012A000333436383A3C3E40424446484A4C4E502D
:1012B000525456585A5B5D5F61636567696B6D6F29
:1012C00071737577797B7D7F80828486888A8C8E26
:1012D00090929496989A9C9EA0A2A4A5A7A9ABAD23
:1012E000AFB1B3B5B7B9BBBDBFC1C3C5C7C9CACC20
:1012F000CED0D2D4D6D8DADCDEE0E2E4E6E8EAEC1E
:10130000EEF0F1F3F5F7F9FBFDFFFFFFFFFFFFFF45
:10131000FFFFFFFFFFFFFFFF0000000000000000D5
:1013200000000001030406080A0C0E0F1113151724
:10133000191B1C1E2022242628292B2D2F31333443
:1013400036383A3C3E4041434547494B4D4E50525A
:101350005456585A5B5D5F61636566686A6C6E706F
:1013600072737577797B7D7F80828486888A8C8D85
:101370008F91939597999A9C9EA0A2A4A5A7A9AB9B
:10138000ADAFB1B2B4B6B8BABCBEBFC1C3C5C7C9B0
:10139000CACCCED0D2D4D6D7D9DBDDDFE1E3E4E6C8
:1013A000E8EAECEEF0F1F3F5F7F9FBFCFEFFFFFFE6
:1013B000FFFFFFFFFFFFFFFF000000000000000035
:1013C00001030507080A0C0E0F11131517181A1C34
:1013D0001E1F21232526282A2C2D2F313334363861
:1013E0003A3C3D3F41434446484A4B4D4F5152548D
:1013F00056585A5B5D5F6162646668696B6D6F70B9
:1014000072747678797B7D7F8082848687898B8DE4
:101410008F9092949697999B9D9EA0A2A4A5A7A910
:10142000ABACAEB0B2B4B5B7B9BBBCBEC0C2C3C53D
:10143000C7C9CACCCED0D2D3D5D7D9DADCDEE0E169
:10144000E3E5E7E9EAECEEF0F1F3F5F7F8FAFCFE94
:10145000FFFFFFFFFFFFFFFF000000000002040589
:1014600007090A0C0E0F11131416181A1B1D1F2042
:1014700022242527292A2C2E2F31333436383A3B83
:101480003D3F4042444547494A4C4E4F51535556C3
:10149000585A5B5D5F6062646567696A6C6E6F7104
:1014A000737576787A7B7D7F8082848587898A8C44
:1014B0008E9091939596989A9B9D9FA0A2A4A5A784
:1014C000A9AAACAEB0B1B3B5B6B8BABBBDBFC0C2C5
:1014D000C4C5C7C9CBCCCED0D1D3D5D6D8DADBDD05
:1014E000DFE0E2E4E5E7E9EBECEEF0F1F3F5F6F846
:1014F000FAFBFDFFFFFFFFFF000102040607090BD7
:101500000C0E0F1113141617191B1C1E2021232457
:101510002628292B2C2E303133343638393B3D3EAA
:10152000404143454648494B4D4E505253555658FD
:101530005A5B5D5E6062636566686A6B6D6F707250
:10154000737577787A7B7D7F8082848587888A8CA3
:101550008D8F9092949597989A9C9D9FA1A2A4A5F7
:10156000A7A9AAACADAFB1B2B4B6B7B9BABCBEBF49
:10157000C1C2C4C6C7C9CBCCCECFD1D3D4D6D7D99C
:10158000DBDCDEDFE1E3E4E6E8E9EBECEEF0F1F3EF
:10159000F4F6F8F9FBFCFEFF050608090B0C0E0F2C
:1015A0001112141617191A1C1D1F20222325272873
:1015B0002A2B2D2E303133353638393B3C3E3F41D6
:1015C00042444647494A4C4D4F5052535557585A3A
:1015D0005B5D5E606163646668696B6C6E6F71729F
:1015E000747577797A7C7D7F8082838586888A8B03
:1015F0008D8E909193949697999B9C9E9FA1A2A467
:10160000A5A7A8AAACADAFB0B2B3B5B6B8B9BBBDCB
:10161000BEC0C1C3C4C6C7C9CACCCECFD1D2D4D52F
:10162000D7D8DADCDDDFE0E2E3E5E6E8E9EBEDEE92
:10163000F0F1F3F4F6F7F9FA090B0C0E0F1112148E
:101640001517181A1B1D1E202123242627292A2C92
:101650002D2F303233343637393A3C3D3F40424308
:10166000454648494B4C4E4F5152545557585A5B7A
:101670005D5E606163646667686A6B6D6E707173EE
:10168000747677797A7C7D7F808283858688898B62
:101690008C8E8F919294959798999B9C9E9FA1A2D6
:1016A000A4A5A7A8AAABADAEB0B1B3B4B6B7B9BA4A
:1016B000BCBDBFC0C2C3C5C6C8C9CACCCDCFD0D2BD
:1016C000D3D5D6D8D9DBDCDEDFE1E2E4E5E7E8EA32
:1016D000EBEDEEF0F1F3F4F60E0F111214151618EF
:1016E000191B1C1E1F202223252628292A2C2D2FBA
:1016F000303233343637393A3C3D3E40414344463C
:1017000047484A4B4D4E505152545557585A5B5CBE
:101710005E5F616264656768696B6C6E6F7072733F
:10172000757678797A7C7D7F808283858687898AC1
:101730008C8D8E909193949697989A9B9D9EA0A144
:10174000A3A4A5A7A8AAABADAEAFB1B2B4B5B7B8C4
:10175000B9BBBCBEBFC1C2C3C5C6C8C9CACCCDCF48
:10176000D0D2D3D5D6D7D9DADCDDDFE0E1E3E4E6C9
:10177000E7E8EAEBEDEEF0F11213151618191A1C52
:101780001D1E20212324252728292B2C2E2F3032E3
:1017900033343637393A3B3D3E4041424445464872
:1017A000494B4C4D4F505153545657585A5B5C5E01
:1017B0005F616263656667696A6C6D6E7071727491
:1017C000757778797B7C7D7F808283848687888A21
:1017D0008B8D8E8F919293959698999A9C9D9EA0B1
:1017E000A1A3A4A5A7A8A9ABACAEAFB0B2B3B4B641
:1017F000B7B9BABBBDBEBFC1C2C4C5C6C8C9CACCD1
:10180000CDCFD0D1D3D4D6D7D8DADBDCDEDFE1E25E
:10181000E3E5E6E7E9EAECED1617191A1B1D1E1FB2
:10182000212223252627292A2B2D2E2F313233340E
:101830003637383A3B3C3E3F404243444647484AAD
:101840004B4C4E4F505253545657585A5B5C5E5F48
:10185000606263646667686A6B6C6E6F70727374E3
:101860007677787A7B7C7E7F808183848587888980
:101870008B8C8D8F90919394959798999B9C9D9F1D
:10188000A0A1A3A4A5A7A8A9ABACADAFB0B1B3B4B8
:10189000B5B7B8B9BBBCBDBFC0C1C3C4C5C7C8C953
:1018A000CACCCDCED0D1D2D4D5D6D8D9DADCDDDEF3
:1018B000E0E1E2E4E5E6E8E91A1B1C1D1F20212314
:1018C00024252628292A2C2D2E2F31323334363741
:1018D000383A3B3C3D3F40414344454648494A4CE9
:1018E0004D4E4F515253555657585A5B5C5E5F6090
:1018F000616364656668696A6C6D6E6F7172737539
:101900007677787A7B7C7E7F8081838485878889DF
:101910008A8C8D8E90919293959697999A9B9C9E86
:101920009FA0A1A3A4A5A7A8A9AAACADAEB0B1B22F
:10193000B3B5B6B7B9BABBBCBEBFC0C2C3C4C5C7D6
:10194000C8C9CACCCDCED0D1D2D3D5D6D7D9DADB7F
:10195000DCDEDFE0E2E3E4E51D1E1F212223242676
:101960002728292B2C2D2E30313233353637383974
:101970003B3C3D3E40414243454647484A4B4C4D27
:101980004F50515253555657585A5B5C5D5F6061DA
:101990006264656667696A6B6C6E6F70717274758C
:1019A0007677797A7B7C7E7F80818384858688893F
:1019B0008A8B8D8E8F90919394959698999A9B9DF2
:1019C0009E9FA0A2A3A4A5A7A8A9AAACADAEAFB0A4
:1019D000B2B3B4B5B7B8B9BABCBDBEBFC1C2C3C457
:1019E000C6C7C8C9CACCCDCECFD1D2D3D4D6D7D80A
:1019F000D9DBDCDDDEE0E1E22021232425262729D6
:101A00002A2B2C2D2F3031323335363738393B3CA9
:101A10003D3E3F41424344454748494A4B4D4E4F66
:101A200050515354555657595A5B5C5D5F60616223
:101A30006365666768696A6C6D6E6F7072737475E2
:101A40007678797A7B7C7E7F8081828485868788A0
:101A50008A8B8C8D8E9091929394969798999A9C5C
:101A60009D9E9FA0A2A3A4A5A6A8A9AAABACAEAF19
:101A7000B0B1B2B4B5B6B7B8BABBBCBDBEC0C1C2D6
:101A8000C3C4C6C7C8C9CACCCDCECFD0D2D3D4D593
:101A9000D6D8D9DADBDCDEDF2324252728292A2B38
:101AA0002C2E2F3031323334363738393A3B3D3EE5
:101AB0003F4041424445464748494B4C4D4E4F50AC
:101AC000525354555657595A5B5C5D5E6061626370
:101AD00064656768696A6B6C6D6F70717273747638
:101AE0007778797A7B7D7E7F8081828485868788FE
:101AF000898B8C8D8E8F90929394959697989A9BC4
:101B00009C9D9E9FA1A2A3A4A5A6A8A9AAABACAD8B
:101B1000AFB0B1B2B3B4B6B7B8B9BABBBDBEBFC04F
:101B2000C1C2C4C5C6C7C8C9CBCCCDCECFD0D1D316
:101B3000D4D5D6D7D8DADBDC262728292A2B2D2E98
:101B40002F3031323334363738393A3B3C3E3F4020
:101B500041424344454748494A4B4C4D4E505152EF
:101B60005354555657595A5B5C5D5E5F60626364BF
:101B7000656667686A6B6C6D6E6F7071737475768D
:101B80007778797A7C7D7E7F80818283858687885D
:101B9000898A8B8C8E8F9091929394959798999A2D
:101BA0009B9C9D9FA0A1A2A3A4A5A6A8A9AAABACFB
:101BB000ADAEAFB1B2B3B4B5B6B7B8BABBBCBDBECB
:101BC000BFC0C1C3C4C5C6C7C8C9CBCCCDCECFD09A
:101BD000D1D2D4D5D6D7D8D9282A2B2C2D2E2F30F8
:101BE00031323335363738393A3B3C3D3E3F41425E
:101BF000434445464748494A4B4D4E4F5051525336
:101C000054555658595A5B5C5D5E5F60616264650D
:101C1000666768696A6B6C6D6F70717273747576E4
:101C20007778797B7C7D7E7F8081828384868788BC
:101C3000898A8B8C8D8E8F90929394959697989994
:101C40009A9B9D9E9FA0A1A2A3A4A5A6A7A9AAAB6B
:101C5000ACADAEAFB0B1B2B4B5B6B7B8B9BABBBC43
:101C6000BDBEC0C1C2C3C4C5C6C7C8C9CACCCDCE1B
:101C7000CFD0D1D2D3D4D5D72B2C2D2E2F3031325B
:101C80003334363738393A3B3C3D3E3F404142439E
:101C900044464748494A4B4C4D4E4F50515253547D
:101CA000555758595A5B5C5D5E5F6061626364655D
:101CB0006668696A6B6C6D6E6F707172737475763D
:101CC00078797A7B7C7D7E7F80818283848586871C
:101CD000898A8B8C8D8E8F909192939495969799FB
:101CE0009A9B9C9D9E9FA0A1A2A3A4A5A6A7A8AADB
:101CF000ABACADAEAFB0B1B2B3B4B5B6B7B8B9BBBB
:101D0000BCBDBEBFC0C1C2C3C4C5C6C7C8C9CACC9A
:101D1000CDCECFD0D1D2D3D42D2E2F3031323334BB
:101D2000363738393A3B3C3D3E3F404142434445DB
:101D3000464748494A4B4C4D4E4F505153545556C7
:101D40005758595A5B5C5D5E5F60616263646566AB
:101D50006768696A6B6C6D6E6F7072737475767795
:101D600078797A7B7C7D7E7F80818283848586877B
:101D700088898A8B8C8D8F90919293949596979861
:101D8000999A9B9C9D9E9FA0A1A2A3A4A5A6A7A84B
:101D9000A9AAABADAEAFB0B1B2B3B4B5B6B7B8B92E
:101DA000BABBBCBDBEBFC0C1C2C3C4C5C6C7C8C91B
:101DB000CACCCDCECFD0D1D22F3031323335363719
:101DC00038393A3B3C3D3E3F40414243444546471B
:101DD00048494A4B4C4D4E4F50515253545556570B
:101DE00058595A5B5C5D5E5F6061626364656667FB
:101DF00068696A6B6C6D6E6F7071727374757677EB
:101E000078797A7B7C7D7E7F8081828384858687DA
:101E100088898A8B8C8D8E8F9091929394959697CA
:101E200098999A9B9C9D9E9FA0A1A2A3A4A5A6A7BA
:101E3000A8A9AAABACADAEAFB0B1B2B3B4B5B6B7AA
:101E4000B8B9BABBBCBDBEBFC0C1C2C3C4C5C6C79A
:101E5000C8C9CBCCCDCECFD0323334353536373878
:101E6000393A3B3C3D3E3F4041424344454647486A
:101E7000494A4B4C4D4E4F5051525354555657585A
:101E8000595A5B5C5D5E5F6061626364656667674B
:101E900068696A6B6C6D6E6F70717273747576774A
:101EA00078797A7B7C7D7E7F80818283848586873A
:101EB00088898A8B8C8D8E8F90919293949596972A
:101EC0009899999A9B9C9D9E9FA0A1A2A3A4A5A628
:101ED000A7A8A9AAABACADAEAFB0B1B2B3B4B5B61A
:101EE000B7B8B9BABBBCBDBEBFC0C1C2C3C4C5C60A
:101EF000C7C8C9CACBCBCCCD343435363738393ADC
:101F00003B3C3D3E3F404142434445464748494AA9
:101F10004A4B4C4D4E4F50515253545556575859A9
:101F20005A5B5C5D5E5F5F606162636465666768A3
:101F3000696A6B6C6D6E6F7071727374757576779C
:101F400078797A7B7C7D7E7F808182838485868799
:101F500088898A8A8B8C8D8E8F9091929394959696
:101F60009798999A9B9C9D9E9FA0A0A1A2A3A4A58F
:101F7000A6A7A8A9AAABACADAEAFB0B1B2B3B4B589
:101F8000B5B6B7B8B9BABBBCBDBEBFC0C1C2C3C489
:101F9000C5C6C7C8C9CACBCB35363738393A3B3C3A
:101FA0003D3E3F40414242434445464748494A4BF3
:101FB0004C4D4E4F50505152535455565758595AF4
:101FC0005B5C5D5D5E5F60616263646566676869F6
:101FD0006A6B6B6C6D6E6F707172737475767778F7
:101FE00079797A7B7C7D7E7F8081828384858686F9
:101FF0008788898A8B8C8D8E8F90919293949495FB
:10200000969798999A9B9C9D9E9FA0A1A2A2A3A4FB
:10201000A5A6A7A8A9AAABACADAEAFAFB0B1B2B3FD
:10202000B4B5B6B7B8B9BABBBCBDBDBEBFC0C1C2FE
:10203000C3C4C5C6C7C8C9CA3738393A3B3C3D3E98
:102040003F3F40414243444546474849494A4B4C3B
:102050004D4E4F50515253535455565758595A5B41
:102060005C5D5D5E5F606162636465666767686949
:102070006A6B6C6D6E6F7070717273747576777851
:10208000797A7B7B7C7D7E7F808182838484858658
:102090008788898A8B8C8D8E8F8F9091929394955F
:1020A00096979898999A9B9C9D9E9FA0A1A2A3A366
:1020B000A4A5A6A7A8A9AAABACADADAEAFB0B1B26E
:1020C000B3B4B5B6B6B7B8B9BABBBCBDBEBFC0C174
:1020D000C1C2C3C4C5C6C7C8393A3B3C3C3D3E3FFC
:1020E00040414243444445464748494A4B4C4C4D85
:1020F0004E4F50515253545455565758595A5B5C91
:102100005C5D5E5F60616263646465666768696A9E
:102110006B6C6C6D6E6F70717273747475767778AA
:10212000797A7B7C7C7D7E7F8081828383848586B7
:102130008788898A8B8B8C8D8E8F909192939394C4
:1021400095969798999A9B9B9C9D9E9FA0A1A2A3D0
:10215000A3A4A5A6A7A8A9AAABABACADAEAFB0B1DE
:10216000B2B3B3B4B5B6B7B8B9BABBBBBCBDBEBFEA
:10217000C0C1C2C3C3C4C5C63B3B3C3D3E3F40415A
:10218000424243444546474848494A4B4C4D4E4FCE
:102190004F50515253545555565758595A5B5C5CE1
:1021A0005D5E5F6061626263646566676869696AF3
:1021B0006B6C6D6E6F6F7071727374757676777805
:1021C000797A7B7C7C7D7E7F808182838384858617
:1021D000878889898A8B8C8D8E8F90909192939429
:1021E0009596969798999A9B9C9D9D9E9FA0A1A23B
:1021F000A3A3A4A5A6A7A8A9AAAAABACADAEAFB04D
:10220000B0B1B2B3B4B5B6B7B7B8B9BABBBCBDBD5F
:10221000BEBFC0C1C2C3C4C43C3D3E3F40404142BA
:1022200043444545464748494A4B4B4C4D4E4F5019
:1022300050515253545556565758595A5B5B5C5D32
:102240005E5F6061616263646566676768696A6B47
:102250006C6C6D6E6F70717272737475767777785F
:10226000797A7B7C7D7D7E7F808182828384858676
:10227000878888898A8B8C8D8D8E8F90919293938D
:10228000949596979899999A9B9C9D9E9E9FA0A1A4
:10229000A2A3A4A4A5A6A7A8A9A9AAABACADAEAFBA
:1022A000AFB0B1B2B3B4B4B5B6B7B8B9BABABBBCD3
:1022B000BDBEBFBFC0C1C2C33E3E3F40414243431B
:1022C000444546474848494A4B4C4D4D4E4F505166
:1022D000525253545556565758595A5B5B5C5D5E83
:1022E0005F6060616263646565666768696A6A6B9E
:1022F0006C6D6E6F6F7071727373747576777878BA
:10230000797A7B7C7D7D7E7F8081828283848586D5
:10231000878788898A8B8C8C8D8E8F9090919293F1
:10232000949595969798999A9A9B9C9D9E9F9FA00D
:10233000A1A2A3A4A4A5A6A7A8A9A9AAABACADAD28
:10234000AEAFB0B1B2B2B3B4B5B6B7B7B8B9BABB45
:10235000BCBCBDBEBFC0C1C13F404141424344457A
:1023600046464748494A4A4B4C4D4E4E4F505152B3
:102370005353545556575758595A5B5B5C5D5E5FD3
:102380005F6061626364646566676868696A6B6CF4
:102390006C6D6E6F70707172737475757677787915
:1023A000797A7B7C7D7D7E7F808182828384858635
:1023B000868788898A8A8B8C8D8E8F8F9091929355
:1023C00093949596979798999A9B9B9C9D9E9FA076
:1023D000A0A1A2A3A4A4A5A6A7A8A8A9AAABACAD96
:1023E000ADAEAFB0B1B1B2B3B4B5B5B6B7B8B9B9B7
:1023F000BABBBCBDBEBEBFC04041424344444546DB
:10240000474848494A4B4C4C4D4E4F4F5051525300
:1024100053545556575758595A5B5B5C5D5E5F5F26
:102420006061626363646566676768696A6A6B6C4A
:102430006D6E6E6F7071727273747576767778796F
:102440007A7A7B7C7D7E7E7F808181828384858594
:1024500086878889898A8B8C8D8D8E8F90919192B9
:102460009394959596979899999A9B9C9C9D9E9FDD
:10247000A0A0A1A2A3A4A4A5A6A7A8A8A9AAABAC02
:10248000ACADAEAFB0B0B1B2B3B3B4B5B6B7B7B828
:10249000B9BABBBBBCBDBEBF42424344454646473A
:1024A0004849494A4B4C4D4D4E4F50505152535450
:1024B000545556575758595A5B5B5C5D5E5E5F607A
:1024C0006162626364656566676869696A6B6C6CA2
:1024D0006D6E6F70707172737374757677777879CB
:1024E0007A7A7B7C7D7E7E7F8081818283848585F4
:1024F00086878888898A8B8C8C8D8E8F8F9091921D
:102500009393949596969798999A9A9B9C9D9D9E45
:102510009FA0A1A1A2A3A4A4A5A6A7A8A8A9AAAB6D
:10252000ABACADAEAFAFB0B1B2B2B3B4B5B6B6B797
:10253000B8B9B9BABBBCBDBD434444454647484899
:10254000494A4B4B4C4D4E4E4F505151525354549F
:102550005556575858595A5B5B5C5D5E5E5F6061CB
:1025600061626364646566676868696A6B6B6C6DF9
:102570006E6E6F7071717273747475767778787926
:102580007A7B7B7C7D7E7E7F808181828384848553
:1025900086878788898A8B8B8C8D8E8E8F90919180
:1025A000929394949596979798999A9B9B9C9D9EAD
:1025B0009E9FA0A1A1A2A3A4A4A5A6A7A7A8A9AADB
:1025C000ABABACADAEAEAFB0B1B1B2B3B4B4B5B607
:1025D000B7B7B8B9BABBBBBC4445464647484949FA
:1025E0004A4B4C4C4D4E4F4F5051525253545555EF
:1025F00056575858595A5B5B5C5D5E5E5F6061611F
:1026000062636464656666676869696A6B6C6C6D51
:102610006E6F6F7071727273747575767778787982
:102620007A7B7B7C7D7E7E7F8081818283848485B2
:1026300086878788898A8A8B8C8D8D8E8F909091E2
:1026400092939394959696979899999A9B9B9C9D13
:102650009E9E9FA0A1A1A2A3A4A4A5A6A7A7A8A946
:10266000AAAAABACADADAEAFB0B0B1B2B3B3B4B576
:10267000B6B6B7B8B9B9BABB4546474848494A4A59
:102680004B4C4D4D4E4F505051525353545555563F
:10269000575858595A5B5B5C5D5D5E5F6060616274
:1026A000636364656666676868696A6B6B6C6D6EA8
:1026B0006E6F7070717273737475767677787979DE
:1026C0007A7B7B7C7D7E7E7F808181828384848512
:1026D0008686878889898A8B8C8C8D8E8F8F909146
:1026E0009192939494959697979899999A9B9C9C7C
:1026F0009D9E9F9FA0A1A2A2A3A4A4A5A6A7A7A8B0
:10270000A9AAAAABACADADAEAFAFB0B1B2B2B3B4E3
:10271000B5B5B6B7B7B8B9BA46474849494A4B4BB9
:102720004C4D4E4E4F505051525353545556565790
:102730005858595A5B5B5C5D5D5E5F6060616262C8
:102740006364656566676768696A6A6B6C6C6D6E01
:102750006F6F707172727374747576777778797938
:102760007A7B7C7C7D7E7E7F808181828383848571
:102770008686878888898A8B8B8C8D8D8E8F9090AA
:102780009192939394959596979898999A9A9B9CE1
:102790009D9D9E9F9FA0A1A2A2A3A4A4A5A6A7A71A
:1027A000A8A9A9AAABACACADAEAFAFB0B1B1B2B352
:1027B000B4B4B5B6B6B7B8B94848494A4A4B4C4C18
:1027C0004D4E4F4F505151525353545556565758E2
:1027D00058595A5B5B5C5D5D5E5F5F60616262631E
:1027E0006464656667676869696A6B6B6C6D6E6E59
:1027F0006F70707172727374757576777778797A95
:102800007A7B7C7C7D7E7E7F8081818283838485D0
:102810008586878888898A8A8B8C8D8D8E8F8F900C
:10282000919192939494959696979899999A9B9B47
:102830009C9D9D9E9FA0A0A1A2A2A3A4A4A5A6A783
:10284000A7A8A9A9AAABACACADAEAEAFB0B0B1B2BF
:10285000B3B3B4B5B5B6B7B749494A4B4B4C4D4D78
:102860004E4F4F5051525253545455565657585834
:10287000595A5B5B5C5D5D5E5F5F60616162636472
:1028800064656666676868696A6A6B6C6C6D6E6FB2
:102890006F70717172737374757576777878797AF1
:1028A0007A7B7C7C7D7E7E7F808181828383848530
:1028B0008586878788898A8A8B8C8C8D8E8E8F906F
:1028C00090919293939495959697979899999A9BAE
:1028D0009B9C9D9E9E9FA0A0A1A2A2A3A4A4A5A6EE
:1028E000A7A7A8A9A9AAABABACADADAEAFB0B0B12C
:1028F000B2B2B3B4B4B5B6B64A4A4B4C4C4D4E4ED8
:102900004F50505152525354545556565758585987
:102910005A5B5B5C5D5D5E5F5F60616162636364C7
:1029200065656667676869696A6B6B6C6D6E6E6F0B
:102930007070717272737474757676777878797A4C
:102940007A7B7C7C7D7E7E7F80818182838384858F
:10295000858687878889898A8B8B8C8D8D8E8F8FD2
:1029600090919192939494959696979898999A9A13
:102970009B9C9C9D9E9E9FA0A0A1A2A2A3A4A4A557
:10298000A6A7A7A8A9A9AAABABACADADAEAFAFB097
:10299000B1B1B2B3B3B4B5B54A4B4C4C4D4E4E4F3A
:1029A0005051515252535454555657575859595AD9
:1029B0005B5B5C5C5D5E5E5F60616162636364641F
:1029C000656667676868696A6B6B6C6D6D6E6E6F64
:1029D0007071717272737474757677777878797AAA
:1029E0007B7B7C7D7D7E7F7F8081818283838485EC
:1029F000858687878889898A8B8B8C8D8D8E8F8F32
:102A00009091919293939495959697979899999A76
:102A10009B9B9C9C9D9E9F9FA0A1A1A2A3A3A4A5BC
:102A2000A5A6A7A7A8A9A9AAABABACADADAEAFAF01
:102A3000B0B1B1B2B3B3B4B54B4C4D4D4E4F4F5096
:102A400051515253535455555657575859595A5A2C
:102A50005B5C5C5D5E5E5F60606162626364646576
:102A60006666676868696A6A6B6C6C6D6D6E6F6FBD
:102A70007071717273737475757677777879797A06
:102A80007B7B7C7D7D7E7F7F80808182828384844E
:102A9000858686878888898A8A8B8C8C8D8E8E8F96
:102AA00090909192929393949595969797989999DF
:102AB0009A9B9B9C9D9D9E9F9FA0A1A1A2A3A3A426
:102AC000A5A5A6A6A7A8A8A9AAAAABACACADAEAE70
:102AD000AFB0B0B1B2B2B3B44C4D4E4E4F505051F6
:102AE000515253535455555657575859595A5A5B82
:102AF0005C5C5D5E5E5F60606162626363646565CD
:102B00006667676869696A6B6B6C6D6D6E6E6F7016
:102B10007071727273747475767677777879797A62
:102B20007B7B7C7D7D7E7F7F8080818282838484AD
:102B300085868687888889898A8B8B8C8D8D8E8FF8
:102B40008F90919192929394949596969798989944
:102B50009A9A9B9C9C9D9D9E9F9FA0A1A1A2A3A38E
:102B6000A4A5A5A6A6A7A8A8A9AAAAABACACADAED9
:102B7000AEAFAFB0B1B1B2B34D4E4E4F5050515257
:102B80005253545455555657575859595A5A5B5CD5
:102B90005C5D5E5E5F606061616263636465656623
:102BA00067676868696A6A6B6C6C6D6D6E6F6F7071
:102BB0007171727373747475767677787879797ABF
:102BC0007B7B7C7D7D7E7F7F80808182828384840D
:102BD00085868687878889898A8B8B8C8C8D8E8E5B
:102BE0008F909091929293939495959697979899A8
:102BF000999A9A9B9C9C9D9E9E9F9FA0A1A1A2A3F7
:102C0000A3A4A5A5A6A6A7A8A8A9AAAAABABACAD44
:102C1000ADAEAFAFB0B1B1B24E4F4F5051515252B5
:102C200053545455555657575859595A5A5B5C5C2A
:102C30005D5E5E5F5F60616162636364646566667A
:102C400067686869696A6B6B6C6D6D6E6E6F7070CA
:102C500071717273737475757676777878797A7A1C
:102C60007B7B7C7D7D7E7F7F80808182828384846C
:102C700085858687878889898A8A8B8C8C8D8E8EBC
:102C80008F8F90919192929394949596969797980E
:102C900099999A9B9B9C9C9D9E9E9FA0A0A1A1A25E
:102CA000A3A3A4A5A5A6A6A7A8A8A9AAAAABABACAE
:102CB000ADADAEAEAFB0B0B14F4F50515152535316
:102CC000545455565657575859595A5A5B5C5C5D7F
:102CD0005E5E5F5F606161626263646465656667D2
:102CE000676869696A6A6B6C6C6D6D6E6F6F707125
:102CF00071727273747475757677777878797A7A79
:102D00007B7C7C7D7D7E7F7F8080818282838384CB
:102D100085858687878888898A8A8B8B8C8D8D8E1E
:102D20008F8F909091929293939495959696979871
:102D300098999A9A9B9B9C9D9D9E9E9FA0A0A1A1C5
:102D4000A2A3A3A4A5A5A6A6A7A8A8A9A9AAABAB18
:102D5000ACADADAEAEAFB0B0505051515253535474
:102D60005455565657575859595A5A5B5C5C5D5DD5
:102D70005E5F5F606061626263636465656666672B
:102D80006868696A6A6B6B6C6D6D6E6E6F7070717E
:102D900071727373747475767677777879797A7AD5
:102DA0007B7C7C7D7D7E7F7F80808182828383842B
:102DB0008585868687888889898A8B8B8C8C8D8E81
:102DC0008E8F8F90919192929394949595969797D8
:102DD0009899999A9A9B9C9C9D9D9E9F9FA0A0A12B
:102DE000A2A2A3A3A4A5A5A6A6A7A8A8A9A9AAAB81
:102DF000ABACACADAEAEAFAF5051525253535455D5
:102E000055565657575859595A5A5B5C5C5D5D5E2A
:102E10005F5F606061626263636465656666676781
:102E20006869696A6A6B6C6C6D6D6E6F6F707071DA
:102E300072727373747575767677777879797A7A32
:102E40007B7C7C7D7D7E7F7F80808182828383848A
:102E50008585868687888889898A8A8B8C8C8D8DE2
:102E60008E8F8F909091929293939495959696973A
:102E7000989899999A9A9B9C9C9D9D9E9F9FA0A093
:102E8000A1A2A2A3A3A4A5A5A6A6A7A8A8A9A9AAEA
:102E9000AAABACACADADAEAF515252535354555535
:102EA000565657585859595A5A5B5C5C5D5D5E5F7F
:102EB0005F606061616263636464656666676768DA
:102EC00068696A6A6B6B6C6D6D6E6E6F6F70717135
:102ED00072727374747575767677787879797A7B8F
:102EE0007B7C7C7D7D7E7F7F8080818282838384EA
:102EF0008485868687878889898A8A8B8B8C8D8D45
:102F00008E8E8F909091919292939494959596979E
:102F100097989899999A9B9B9C9C9D9E9E9F9FA0F9
:102F2000A0A1A2A2A3A3A4A5A5A6A6A7A7A8A9A954
:102F3000AAAAABACACADADAE525253545455555693
:102F40005657585859595A5A5B5C5C5D5D5E5E5FD6
:102F50006060616162626364646565666767686832
:102F600069696A6B6B6C6C6D6D6E6F6F707071718F
:102F700072737374747575767777787879797A7BEC
:102F80007B7C7C7D7D7E7F7F808081828283838449
:102F90008485868687878888898A8A8B8B8C8C8DA6
:102FA0008E8E8F8F90909192929393949495969603
:102FB00097979899999A9A9B9B9C9D9D9E9E9F9F5F
:102FC000A0A1A1A2A2A3A3A4A5A5A6A6A7A7A8A9BC
:102FD000A9AAAAABABACADAD5353545455555656F4
:102FE00057585859595A5A5B5C5C5D5D5E5E5F602C
:102FF000606161626263636465656666676768698C
:10300000696A6A6B6B6C6D6D6E6E6F6F70717172E9
:10301000727373747475767677777878797A7A7B49
:103020007B7C7C7D7E7E7F7F8080818182838384A8
:10303000848585868787888889898A8B8B8C8C8D07
:103040008D8E8F8F90909191929293949495959666
:103050009697989899999A9A9B9C9C9D9D9E9E9FC5
:103060009FA0A1A1A2A2A3A3A4A5A5A6A6A7A7A825
:10307000A9A9AAAAABABACAD535454555556575752
:10308000585859595A5A5B5C5C5D5D5E5E5F5F6083
:1030900061616262636364646566666767686869E4
:1030A000696A6B6B6C6C6D6D6E6E6F707071717246
:1030B000727374747575767677777879797A7A7BA6
:1030C0007B7C7C7D7E7E7F7F808081818283838408
:1030D000848585868687888889898A8A8B8B8C8D6A
:1030E0008D8E8E8F8F9091919292939394949596CA
:1030F000969797989899999A9B9B9C9C9D9D9E9E2C
:103100009FA0A0A1A1A2A2A3A3A4A5A5A6A6A7A78C
:10311000A8A8A9AAAAABABAC5454555556575758B2
:103120005859595A5A5B5C5C5D5D5E5E5F5F6060DA
:10313000616262636364646565666767686869693C
:103140006A6A6B6B6C6D6D6E6E6F6F7070717172A1
:10315000737374747575767677787879797A7A7B03
:103160007B7C7C7D7E7E7F7F808081818283838467
:10317000848585868687878889898A8A8B8B8C8CCB
:103180008D8E8E8F8F90909191929293949495952D
:10319000969697979898999A9A9B9B9C9C9D9D9E92
:1031A0009F9FA0A0A1A1A2A2A3A3A4A5A5A6A6A7F4
:1031B000A7A8A8A9AAAAABAB545556565757585812
:1031C00059595A5A5B5B5C5D5D5E5E5F5F60606132
:1031D0006162636364646565666667676868696A97
:1031E0006A6B6B6C6C6D6D6E6E6F707071717272FC
:1031F000737374747575767777787879797A7A7B62
:103200007B7C7D7D7E7E7F7F8080818182828384C6
:10321000848585868687878888898A8A8B8B8C8C2B
:103220008D8D8E8E8F8F9091919292939394949591
:1032300095969797989899999A9A9B9B9C9C9D9EF6
:103240009E9F9FA0A0A1A1A2A2A3A4A4A5A5A6A65B
:10325000A7A7A8A8A9A9AAAB555656575758585971
:10326000595A5A5B5B5C5D5D5E5E5F5F6060616189
:103270006262636364656566666767686869696AF0
:103280006A6B6B6C6D6D6E6E6F6F70707171727258
:10329000737374757576767777787879797A7A7BBF
:1032A0007B7C7D7D7E7E7F7F808081818282838426
:1032B00084858586868787888889898A8A8B8C8C8D
:1032C0008D8D8E8E8F8F90909191929293949495F4
:1032D0009596969797989899999A9A9B9C9C9D9D5C
:1032E0009E9E9F9FA0A0A1A1A2A2A3A4A4A5A5A6C3
:1032F000A6A7A7A8A8A9A9AA5656575758585959D2
:103300005A5A5B5B5C5D5D5E5E5F5F6060616162DF
:1033100062636364646565666767686869696A6A49
:103320006B6B6C6C6D6D6E6E6F6F707171727273B2
:10333000737474757576767777787879797A7A7B1D
:103340007C7C7D7D7E7E7F7F808081818282838385
:1033500084858586868787888889898A8A8B8B8CED
:103360008C8D8D8E8F8F9090919192929393949457
:103370009595969697979899999A9A9B9B9C9C9DC0
:103380009D9E9E9F9FA0A0A1A1A2A3A3A4A4A5A52A
:10339000A6A6A7A7A8A8A9A9565757585859595A31
:1033A0005A5B5B5C5C5D5E5E5F5F60606161626238
:1033B00063636464656566666767686869696A6AA5
:1033C0006B6C6C6D6D6E6E6F6F707071717272730D
:1033D0007374747575767677777878797A7A7B7B7B
:1033E0007C7C7D7D7E7E7F7F8080818182828383E5
:1033F00084848585868787888889898A8A8B8B8C4F
:103400008C8D8D8E8E8F8F909091919292939394BC
:10341000959596969797989899999A9A9B9B9C9C24
:103420009D9D9E9E9F9FA0A0A1A1A2A3A3A4A4A591
:10343000A5A6A6A7A7A8A8A95757585859595A5A90
:103440005B5B5C5C5D5D5E5E5F6060616162626390
:10345000636464656566666767686869696A6A6BFC
:103460006B6C6C6D6D6E6E6F6F707071717272736C
:103470007374747576767777787879797A7A7B7BD6
:103480007C7C7D7D7E7E7F7F808081818282838344
:103490008484858586868787888889898A8B8B8CB2
:1034A0008C8D8D8E8E8F8F9090919192929393941C
:1034B00094959596969797989899999A9A9B9B9C8C
:1034C0009C9D9D9E9E9F9FA0A1A1A2A2A3A3A4A4F8
:1034D000A5A5A6A6A7A7A8A857585859595A5A5BF0
:1034E0005B5C5C5D5D5E5E5F5F60606161626263EC
:1034F0006364646565666767686869696A6A6B6B57
:103500006C6C6D6D6E6E6F6F7070717172727373C3
:103510007474757576767777787879797A7A7B7B33
:103520007C7C7D7D7E7E7F7F8080818182828383A3
:103530008484858586868787888889898A8A8B8B13
:103540008C8C8D8D8E8E8F8F909091919292939383
:1035500094949595969697979899999A9A9B9B9CEF
:103560009C9D9D9E9E9F9FA0A0A1A1A2A2A3A3A45B
:10357000A4A5A5A6A6A7A7A8585859595A5A5B5B4F
:103580005C5C5D5D5E5E5F5F606061616262636343
:103590006464656566666767686869696A6A6B6BB3
:1035A0006C6C6D6D6E6E6F6F707071717272737323
:1035B0007474757576767777787879797A7A7B7B93
:1035C0007C7C7D7D7E7E7F7F808081818282838303
:1035D0008484858586868787888889898A8A8B8B73
:1035E0008C8C8D8D8E8E8F8F9090919192929393E3
:1035F0009494959596969797989899999A9A9B9B53
:103600009C9C9D9D9E9E9F9FA0A0A1A1A2A2A3A3C2
:10361000A4A4A5A5A6A6A7A75859595A5A5B5B5CAE
:103620005C5D5D5E5E5F5F6060616162626363649A
:1036300064656566666767686869696A6A6B6B6C0A
:103640006C6D6D6E6E6F6F7070717171727273737D
:103650007474757576767777787879797A7A7B7BF2
:103660007C7C7D7D7E7E7F7F808081818282838362
:103670008484858586868787888889898A8A8B8BD2
:103680008C8C8D8D8E8E8F8F8F9090919192929346
:10369000939494959596969797989899999A9A9BBA
:1036A0009B9C9C9D9D9E9E9F9FA0A0A1A1A2A2A32A
:1036B000A3A4A4A5A5A6A6A759595A5A5B5B5C5C0E
:1036C0005D5D5E5E5F5F60606161626263636464F2
:1036D00065656666666767686869696A6A6B6B6C68
:1036E0006C6D6D6E6E6F6F707071717272737374DA
:1036F0007475757676777777787879797A7A7B7B4F
:103700007C7C7D7D7E7E7F7F8080818182828383C1
:10371000848485858686878788888889898A8A8B34
:103720008B8C8C8D8D8E8E8F8F90909191929293A9
:1037300093949495959696979798989999999A9A1B
:103740009B9B9C9C9D9D9E9E9F9FA0A0A1A1A2A291
:10375000A3A3A4A4A5A5A6A6595A5A5B5B5C5C5D6D
:103760005D5E5E5F5F60606161626263636364644B
:10377000656566666767686869696A6A6B6B6C6CC1
:103780006D6D6E6E6E6F6F70707171727273737437
:1037900074757576767777787879797A7A7A7B7BAB
:1037A0007C7C7D7D7E7E7F7F808081818282838321
:1037B000848485858586868787888889898A8A8B97
:1037C0008B8C8C8D8D8E8E8F8F909091919192920B
:1037D00093939494959596969797989899999A9A81
:1037E0009B9B9C9C9C9D9D9E9E9F9FA0A0A1A1A2F7
:1037F000A2A3A3A4A4A5A5A65A5A5B5B5C5C5D5DCD
:103800005E5E5F5F606061616162626363646465A4
:10381000656666676768686969696A6A6B6B6C6C1C
:103820006D6D6E6E6F6F7070717172727273737492
:1038300074757576767777787879797A7A7B7B7B09
:103840007C7C7D7D7E7E7F7F808081818282838380
:10385000848484858586868787888889898A8A8BF7
:103860008B8C8C8D8D8D8E8E8F8F9090919192926E
:103870009393949495959696969797989899999AE4
:103880009A9B9B9C9C9D9D9E9E9E9F9FA0A0A1A15C
:10389000A2A2A3A3A4A4A5A55A5B5B5C5C5D5D5E2C
:1038A0005E5F5F5F606061616262636364646565FF
:1038B0006666676767686869696A6A6B6B6C6C6D76
:1038C0006D6E6E6E6F6F70707171727273737474EF
:1038D00075757576767777787879797A7A7B7B7C67
:1038E0007C7C7D7D7E7E7F7F8080818182828383E0
:1038F000838484858586868787888889898A8A8A59
:103900008B8B8C8C8D8D8E8E8F8F909091919192D0
:103910009293939494959596969797989899999948
:103920009A9A9B9B9C9C9D9D9E9E9F9FA0A0A0A1C0
:10393000A1A2A2A3A3A4A4A55B5B5C5C5D5D5E5E8B
:103940005F5F5F6060616162626363646465656557
:1039500066666767686869696A6A6B6B6B6C6C6DD1
:103960006D6E6E6F6F70707171717272737374744B
:1039700075757676777777787879797A7A7B7B7CC4
:103980007C7D7D7D7E7E7F7F80808181828283833E
:1039900083848485858686878788888989898A8AB9
:1039A0008B8B8C8C8D8D8E8E8F8F8F909091919232
:1039B00092939394949595959696979798989999AC
:1039C0009A9A9B9B9B9C9C9D9D9E9E9F9FA0A0A125
:1039D000A1A1A2A2A3A3A4A45B5C5C5D5D5E5E5EEC
:1039E0005F5F6060616162626363636464656566B2
:1039F00066676768686869696A6A6B6B6C6C6D6D2D
:103A00006D6E6E6F6F7070717172727373737474A8
:103A100075757676777778787879797A7A7B7B7C22
:103A20007C7D7D7D7E7E7F7F80808181828282839E
:103A300083848485858686878787888889898A8A1A
:103A40008B8B8C8C8C8D8D8E8E8F8F909091919294
:103A50009292939394949595969697979798989910
:103A6000999A9A9B9B9C9C9C9D9D9E9E9F9FA0A08B
:103A7000A1A1A1A2A2A3A3A45C5C5D5D5D5E5E5F4B
:103A80005F6060616162626263636464656566660B
:103A9000676767686869696A6A6B6B6B6C6C6D6D88
:103AA0006E6E6F6F70707071717272737374747404
:103AB00075757676777778787979797A7A7B7B7C81
:103AC0007C7D7D7D7E7E7F7F8080818182828283FE
:103AD00083848485858686868787888889898A8A7B
:103AE0008B8B8B8C8C8D8D8E8E8F8F8F90909191F8
:103AF0009292939394949495959696979798989973
:103B000099999A9A9B9B9C9C9D9D9D9E9E9F9FA0F0
:103B1000A0A1A1A2A2A2A3A35C5D5D5D5E5E5F5FAA
:103B20006060616161626263636464656565666665
:103B3000676768686969696A6A6B6B6C6C6D6D6DE3
:103B40006E6E6F6F70707171717272737374747561
:103B500075757676777778787979797A7A7B7B7CE0
:103B60007C7D7D7D7E7E7F7F80808181828282835D
:103B700083848485858686868787888889898A8ADA
:103B80008A8B8B8C8C8D8D8E8E8E8F8F9090919159
:103B900092929293939494959596969697979898D7
:103BA00099999A9A9A9B9B9C9C9D9D9E9E9E9F9F55
:103BB000A0A0A1A1A2A2A2A35D5D5D5E5E5F5F6009
:103BC00060606161626263636464646565666667C0
:103BD0006768686869696A6A6B6B6B6C6C6D6D6E3F
:103BE0006E6F6F6F707071717272737373747475BE
:103BF000757676767777787879797A7A7A7B7B7C3E
:103C00007C7D7D7E7E7E7F7F8080818181828283BC
:103C10008384848585858686878788888989898A3B
:103C20008A8B8B8C8C8C8D8D8E8E8F8F90909091BB
:103C3000919292939394949495959696979797983A
:103C40009899999A9A9B9B9B9C9C9D9D9E9E9F9FB9
:103C50009FA0A0A1A1A2A2A25D5D5E5E5F5F606069
:103C60006061616262636363646465656666676719
:103C700067686869696A6A6A6B6B6C6C6D6D6D6E9A
:103C80006E6F6F707070717172727373747474751B
:103C9000757676777777787879797A7A7B7B7B7C9B
:103CA0007C7D7D7E7E7E7F7F80808181818282831C
:103CB0008384848585858686878788888889898A9C
:103CC0008A8B8B8B8C8C8D8D8E8E8F8F8F9090911D
:103CD000919292929393949495959596969797989E
:103CE000989999999A9A9B9B9C9C9C9D9D9E9E9F1E
:103CF0009F9FA0A0A1A1A2A25D5E5E5F5F5F6060CA
:103D00006161626262636364646565656666676774
:103D100068686969696A6A6B6B6C6C6C6D6D6E6EF4
:103D20006F6F6F7070717172727273737474757576
:103D3000757676777778787879797A7A7B7B7B7CF9
:103D40007C7D7D7E7E7E7F7F80808181818282837B
:103D50008384848485858686878787888889898AFD
:103D60008A8A8B8B8C8C8D8D8D8E8E8F8F90909080
:103D70009191929293939394949595969696979702
:103D8000989899999A9A9A9B9B9C9C9D9D9D9E9E82
:103D90009F9FA0A0A0A1A1A25E5E5F5F5F60606127
:103DA00061626262636364646565656666676767CE
:103DB000686869696A6A6A6B6B6C6C6D6D6D6E6E52
:103DC0006F6F7070707171727273737374747575D4
:103DD000767676777778787879797A7A7B7B7B7C58
:103DE0007C7D7D7E7E7E7F7F8080818181828283DB
:103DF000838484848585868687878788888989895E
:103E00008A8A8B8B8C8C8C8D8D8E8E8F8F8F9090E1
:103E10009191929292939394949595959696979763
:103E200098989899999A9A9A9B9B9C9C9D9D9D9EE7
:103E30009E9F9FA0A0A0A1A15E5F5F5F6060616187
:103E40006162626363646464656566666767676828
:103E5000686969696A6A6B6B6C6C6C6D6D6E6E6EAD
:103E60006F6F707071717172727373747474757531
:103E7000767676777778787979797A7A7B7B7C7CB5
:103E80007C7D7D7E7E7E7F7F80808181818282833A
:103E900083838484858586868687878888898989BF
:103EA0008A8A8B8B8B8C8C8D8D8E8E8E8F8F909043
:103EB00091919192929393939494959596969697C7
:103EC0009798989999999A9A9B9B9B9C9C9D9D9E4B
:103ED0009E9E9F9FA0A0A0A15E5F5F6060616161E8
:103EE0006262636363646465656666666767686883
:103EF0006869696A6A6B6B6B6C6C6D6D6D6E6E6F09
:103F00006F7070707171727272737374747475758E
:103F1000767677777778787979797A7A7B7B7C7C13
:103F20007C7D7D7E7E7E7F7F808081818182828399
:103F3000838384848585868686878788888889891F
:103F40008A8A8B8B8B8C8C8D8D8D8E8E8F8F8F90A4
:103F5000909191929292939394949495959696972A
:103F6000979798989999999A9A9B9B9C9C9C9D9DB0
:103F70009E9E9E9F9FA0A0A15F5F60606061616246
:103F800062636363646465656566666767676868DE
:103F900069696A6A6A6B6B6C6C6C6D6D6E6E6E6F64
:103FA0006F707071717172727373737474757575EB
:103FB0007676777777787879797A7A7A7B7B7C7C72
:103FC0007C7D7D7E7E7E7F7F8080818181828283F9
:103FD0008383848485858586868787888888898980
:103FE0008A8A8A8B8B8C8C8C8D8D8E8E8F8F8F9006
:103FF000909191919292939393949495959596968E
:10400000979798989899999A9A9A9B9B9C9C9C9D13
:104010009D9E9E9F9F9FA0A05F60606061616262A5
:104020006263636464646565666667676768686938
:1040300069696A6A6B6B6B6C6C6D6D6D6E6E6F6FC0
:104040006F70707171717272737374747475757648
:104050007676777778787879797A7A7A7B7B7C7CD0
:104060007C7D7D7E7E7E7F7F808081818182828358
:1040700083838484858585868687878788888989E0
:10408000898A8A8B8B8B8C8C8D8D8E8E8E8F8F9068
:1040900090909191929292939394949495959696F0
:1040A00096979798989999999A9A9B9B9B9C9C9D77
:1040B0009D9D9E9E9F9F9FA0606060616162626205
:1040C0006363646464656566666667676868686993
:1040D000696A6A6A6B6B6C6C6C6D6D6E6E6E6F6F1D
:1040E00070707071717272727373747474757576A6
:1040F0007676777778787879797A7A7A7B7B7C7C30
:104100007C7D7D7E7E7E7F7F8080818181828283B7
:10411000838384848585858686878787888889893F
:10412000898A8A8B8B8B8C8C8D8D8D8E8E8F8F8FC9
:104130009090919191929293939394949595959652
:104140009697979798989999999A9A9B9B9B9C9CDC
:104150009D9D9D9E9E9F9F9F606061616162626365
:1041600063636464656565666667676768686969EF
:10417000696A6A6B6B6B6C6C6D6D6D6E6E6F6F6F79
:104180007070717171727273737374747575757602
:104190007677777778787979797A7A7B7B7B7C7C8C
:1041A0007D7D7D7E7E7F7F7F808080818182828217
:1041B00083838484848585868686878788888889A2
:1041C000898A8A8A8B8B8C8C8C8D8D8E8E8E8F8F2C
:1041D00090909091919292929393949494959596B5
:1041E0009696979798989899999A9A9A9B9B9C9C3F
:1041F0009C9D9D9E9E9E9F9F6061616162626363C4
:104200006364646565656666676767686868696949
:104210006A6A6A6B6B6C6C6C6D6D6E6E6E6F6F70D4
:104220007070717172727273737374747575757660
:104230007677777778787979797A7A7B7B7B7C7CEB
:104240007D7D7D7E7E7F7F7F808080818182828276
:104250008383848484858586868687878888888901
:10426000898A8A8A8B8B8C8C8C8D8D8D8E8E8F8F8C
:104270008F90909191919292939393949495959518
:10428000969697979798989999999A9A9A9B9B9CA2
:104290009C9C9D9D9E9E9E9F616161626262636324
:1042A00064646465656666666767686868696969A5
:1042B0006A6A6B6B6B6C6C6D6D6D6E6E6F6F6F7031
:1042C00070707171727272737374747475757676BE
:1042D0007677777878787979797A7A7B7B7B7C7C4A
:1042E0007D7D7D7E7E7F7F7F8080808181828282D6
:1042F0008383848484858586868687878788888962
:1043000089898A8A8B8B8B8C8C8D8D8D8E8E8F8FED
:104310008F9090909191929292939394949495957A
:1043200096969697979798989999999A9A9B9B9B06
:104330009C9C9D9D9D9E9E9E616162626263636482
:104340006464656565666667676768686969696A00
:104350006A6A6B6B6C6C6C6D6D6E6E6E6F6F6F708E
:10436000707171717272737373747475757576761A
:1043700076777778787879797A7A7A7B7B7B7C7CA8
:104380007D7D7D7E7E7F7F7F808080818182828235
:1043900083838484848585858686878787888889C2
:1043A00089898A8A8A8B8B8C8C8C8D8D8E8E8E8F50
:1043B0008F909090919191929293939394949595DC
:1043C00095969696979798989899999A9A9A9B9B6A
:1043D0009B9C9C9D9D9D9E9E6162626263636364E3
:1043E00064656565666667676768686869696A6A5B
:1043F0006A6B6B6B6C6C6D6D6D6E6E6F6F6F7070EA
:104400007071717272727373737474757575767678
:1044100077777778787879797A7A7A7B7B7B7C7C06
:104420007D7D7D7E7E7F7F7F808080818182828294
:104430008383848484858585868687878788888822
:1044400089898A8A8A8B8B8C8C8C8D8D8D8E8E8FB0
:104450008F8F90909091919292929393949494953F
:104460009595969697979798989999999A9A9A9BCD
:104470009B9C9C9C9D9D9D9E616262636363646442
:1044800064656566666667676868686969696A6AB7
:104490006B6B6B6C6C6C6D6D6E6E6E6F6F6F707046
:1044A00071717172727273737474747575757676D6
:1044B00077777778787979797A7A7A7B7B7C7C7C64
:1044C0007D7D7D7E7E7F7F7F8080808181828282F4
:1044D0008383838484858585868686878788888884
:1044E00089898A8A8A8B8B8B8C8C8D8D8D8E8E8E12
:1044F0008F8F9090909191919292939393949494A2
:10450000959596969697979798989999999A9A9B30
:104510009B9B9C9C9C9D9D9E6262636363646464A0
:10452000656566666667676768686869696A6A6A12
:104530006B6B6B6C6C6D6D6D6E6E6E6F6F707070A3
:104540007171717272737373747474757576767633
:1045500077777778787979797A7A7A7B7B7C7C7CC3
:104560007D7D7D7E7E7F7F7F808080818182828253
:1045700083838384848585858686868787888888E3
:104580008989898A8A8B8B8B8C8C8C8D8D8E8E8E73
:104590008F8F8F9090919191929292939394949403
:1045A00095959596969797979898989999999A9A94
:1045B0009B9B9B9C9C9C9D9D626263636464646501
:1045C000656566666767676868686969696A6A6B6E
:1045D0006B6B6C6C6C6D6D6E6E6E6F6F6F707071FF
:1045E0007171727272737373747475757576767691
:1045F00077777878787979797A7A7B7B7B7C7C7C21
:104600007D7D7D7E7E7F7F7F8080808181828282B2
:104610008383838484858585868686878787888843
:104620008989898A8A8A8B8B8C8C8C8D8D8D8E8ED4
:104630008F8F8F9090909191919292939393949465
:1046400094959596969697979798989999999A9AF6
:104650009A9B9B9B9C9C9D9D626363636464656560
:104660006566666667676768686969696A6A6A6BCA
:104670006B6C6C6C6D6D6D6E6E6E6F6F707070715B
:1046800071717272727373747474757575767677EE
:1046900077777878787979797A7A7B7B7B7C7C7C80
:1046A0007D7D7D7E7E7F7F7F808080818182828212
:1046B00083838384848485858686868787878888A4
:1046C0008889898A8A8A8B8B8B8C8C8D8D8D8E8E36
:1046D0008E8F8F8F909091919192929293939394C9
:1046E0009495959596969697979898989999999A5A
:1046F0009A9A9B9B9C9C9C9D6363636464646565C0
:1047000066666667676768686869696A6A6A6B6B24
:104710006B6C6C6C6D6D6E6E6E6F6F6F70707071B8
:10472000717272727373737474747575767676774A
:10473000777778787879797A7A7A7B7B7B7C7C7CDE
:104740007D7D7E7E7E7F7F7F808080818181828271
:104750008383838484848585858686878787888804
:10476000888989898A8A8B8B8B8C8C8C8D8D8D8E98
:104770008E8F8F8F9090909191919292939393942A
:1047800094949595959696979797989898999999BE
:104790009A9A9B9B9B9C9C9C63636464646565651F
:1047A00066666767676868686969696A6A6A6B6B81
:1047B0006C6C6C6D6D6D6E6E6E6F6F6F7070717115
:1047C00071727272737373747475757576767677A9
:1047D000777778787879797A7A7A7B7B7B7C7C7C3E
:1047E0007D7D7E7E7E7F7F7F8080808181818282D1
:1047F0008383838484848585858686878787888864
:10480000888989898A8A8A8B8B8C8C8C8D8D8D8EF8
:104810008E8E8F8F9090909191919292929393938C
:10482000949495959596969697979798989999991F
:104830009A9A9A9B9B9B9C9C63646464656565667D
:10484000666667676768686969696A6A6A6B6B6BDD
:104850006C6C6C6D6D6E6E6E6F6F6F707070717171
:104860007172727273737474747575757676767707
:10487000777778787979797A7A7A7B7B7B7C7C7C9C
:104880007D7D7E7E7E7F7F7F808080818181828230
:1048900083838384848485858586868687878888C4
:1048A000888989898A8A8A8B8B8B8C8C8D8D8D8E59
:1048B0008E8E8F8F8F9090909191919292939393EF
:1048C0009494949595959696969797989898999983
:1048D000999A9A9A9B9B9B9C6364646565656666DE
:1048E000666767676868686969696A6A6B6B6B6C39
:1048F0006C6C6D6D6D6E6E6E6F6F6F7070717171CF
:104900007272727373737474747575757676777763
:10491000777878787979797A7A7A7B7B7B7C7C7DF9
:104920007D7D7E7E7E7F7F7F80808081818182828F
:104930008383838484848585858686868787878824
:10494000888989898A8A8A8B8B8B8C8C8C8D8D8DBA
:104950008E8E8F8F8F90909091919192929293934F
:1049600093949495959596969697979798989899E5
:1049700099999A9A9B9B9B9C64646465656566663D
:104980006767676868686969696A6A6A6B6B6B6C94
:104990006C6C6D6D6D6E6E6F6F6F7070707171712C
:1049A00072727273737374747475757676767777C2
:1049B000777878787979797A7A7A7B7B7B7C7C7D59
:1049C0007D7D7E7E7E7F7F7F8080808181818282EF
:1049D0008283838484848585858686868787878885
:1049E00088888989898A8A8B8B8B8C8C8C8D8D8D1C
:1049F0008E8E8E8F8F8F90909091919292929393B2
:104A00009394949495959596969697979798989948
:104A100099999A9A9A9B9B9B64646565656666669C
:104A200067676768686869696A6A6A6B6B6B6C6CF0
:104A30006C6D6D6D6E6E6E6F6F6F70707071717189
:104A4000727273737374747475757576767677771E
:104A5000777878787979797A7A7A7B7B7C7C7C7DB7
:104A60007D7D7E7E7E7F7F7F80808081818182824E
:104A700082838383848485858586868687878788E5
:104A800088888989898A8A8A8B8B8B8C8C8C8D8D7E
:104A90008E8E8E8F8F8F9090909191919292929313
:104AA00093939494949595959696979797989898AC
:104AB0009999999A9A9A9B9B6465656566666667FB
:104AC00067676868686969696A6A6A6B6B6B6C6C4E
:104AD0006C6D6D6D6E6E6F6F6F70707071717172E5
:104AE000727273737374747475757576767677777E
:104AF000777878787979797A7A7B7B7B7C7C7C7D16
:104B00007D7D7E7E7E7F7F7F8080808181818282AD
:104B10008283838384848485858686868787878845
:104B200088888989898A8A8A8B8B8B8C8C8C8D8DDD
:104B30008D8E8E8E8F8F8F90909091919292929376
:104B4000939394949495959596969697979798980D
:104B5000989999999A9A9A9B64656565666667675C
:104B6000676868686969696A6A6A6B6B6B6C6C6CA8
:104B70006D6D6D6E6E6E6F6F6F7070707171717242
:104B800072727373737474747575757676767777DD
:104B90007878787979797A7A7A7B7B7B7C7C7C7D72
:104BA0007D7D7E7E7E7F7F7F80808081818182820D
:104BB00082838383848484858585868686878787A8
:104BC00088888989898A8A8A8B8B8B8C8C8C8D8D3D
:104BD0008D8E8E8E8F8F8F909090919191929292D8
:104BE0009393939494949595959696969797979872
:104BF000989999999A9A9A9B6565656666666767BA
:104C0000676868686969696A6A6A6B6B6B6C6C6C07
:104C10006D6D6D6E6E6E6F6F6F707071717172729F
:104C20007273737374747475757576767677777737
:104C30007878787979797A7A7A7B7B7B7C7C7C7DD1
:104C40007D7D7E7E7E7F7F7F80808081818182826C
:104C50008283838384848485858586868687878707
:104C60008888888989898A8A8A8B8B8B8C8C8C8DA1
:104C70008D8D8E8E8F8F8F90909091919192929238
:104C800093939394949495959596969697979798D1
:104C900098989999999A9A9A65656666666767671A
:104CA0006868686969696A6A6A6B6B6B6C6C6C6D61
:104CB0006D6D6E6E6E6F6F6F7070707171717272FC
:104CC0007273737374747475757576767677777797
:104CD0007878787979797A7A7A7B7B7B7C7C7C7D31
:104CE0007D7D7E7E7E7F7F7F8080808181818282CC
:104CF0008283838384848485858586868687878767
:104D00008888888989898A8A8A8B8B8B8C8C8C8D00
:104D10008D8D8E8E8E8F8F8F90909091919192929B
:104D20009293939394949495959596969697979736
:104D30009898989999999A9A656666666767676779
:104D40006868686969696A6A6A6B6B6B6C6C6C6DC0
:104D50006D6D6E6E6E6F6F6F70707071717172725B
:104D600072737373747474757575767676777777F6
:104D70007878787979797A7A7A7B7B7B7C7C7C7D90
:104D80007D7D7E7E7E7F7F7F80808081818182822B
:104D900082838383848484858585868686878787C6
:104DA0008888888989898A8A8A8B8B8B8C8C8C8D60
:104DB0008D8D8E8E8E8F8F8F9090909191919292FB
:104DC0009293939394949495959596969697979796
:104DD000989898999999999A6566666667676768D9
:104DE00068686969696A6A6A6B6B6B6C6C6C6D6D1B
:104DF0006D6E6E6E6F6F6F707070717171727272B6
:104E00007373737474747575757576767677777752
:104E10007878787979797A7A7A7B7B7B7C7C7C7DEF
:104E20007D7D7E7E7E7F7F7F80808081818182828A
:104E30008283838384848485858586868687878725
:104E40008888888989898A8A8A8A8B8B8B8C8C8CC2
:104E50008D8D8D8E8E8E8F8F8F909090919191925F
:104E600092929393939494949595959696969797FA
:104E7000979898989999999A666666676767686837
:104E8000686969696A6A6A6B6B6B6B6C6C6C6D6D77
:104E90006D6E6E6E6F6F6F70707071717172727215
:104EA00073737374747475757576767677777778AF
:104EB0007878797979797A7A7A7B7B7B7C7C7C7D4E
:104EC0007D7D7E7E7E7F7F7F8080808181818282EA
:104ED0008283838384848485858586868686878786
:104EE000878888888989898A8A8A8B8B8B8C8C8C25
:104EF0008D8D8D8E8E8E8F8F8F90909091919192BF
:104F0000929293939394949494959595969696975C
:104F100097979898989999990000000000000000D0
:104F20000000000000000000000000000000000081
:104F30000000000000000000000000000000000071
:104F40000000000000000000000000000000000061
:104F50000000000000000000000000000000000051
:105190000000000000000000FFFFFFFFFFFFFFFF17
:1051A000FFFFFFFFFFFFFFFFFFFFFFFFFFFFFFFF0F
:1051B000FFFFFFFFFFFFFFFFFFFFFFFFFFFFFFFFFF
:1051C000FFFFFFFFFFFFFFFFFFFFFFFFFFFFFFFFEF
:1051D000FFFFFFFFFFFFFFFFFFFFFFFFFFFFFFFFDF
:105AF000FFFFFFFFFFFFFFFFEFEFEFEFEFEFEFEF36
:105B0000EFEFEFEFEFEFEFEFEFEFEFEFEFEFEFEFA5
:105B1000EFEFEFEFEFEFEFEFEFEFEFEFEFEFEFEF95
:105B2000EFEFEFEFEFEFEFEFEFEFEFEFEFEFEFEF85
:105B3000EFEFEFEFEFEFEFEFEFEFEFEFEFEFEFEF75
:105B4000EFEFEFEFEFEFEFEFEFEFEFEFEFEFEFEF65
:105B5000EFEFEFEFEFEFEFEFEFEFEFEFEFEFEFEF55
:105B6000EFEFEFEFEFEFEFEFEFEFEFEFEFEFEFEF45
:105B7000EFEFEFEFEFEFEFEFEFEFEFEFEFEFEFEF35
:105B8000EFEFEFEFEFEFEFEFEFEFEFEFEFEFEFEF25
:105B9000EFEFEFEFEFEFEFEFDEDEDEDEDEDEDEDE9D
:105BA000DEDEDEDEDEDEDEDEDEDEDEDEDEDEDEDE15
:105BB000DEDEDEDEDEDEDEDEDEDEDEDEDEDEDEDE05
:105BC000DEDEDEDEDEDEDEDEDEDEDEDEDEDEDEDEF5
:105BD000DEDEDEDEDEDEDEDEDEDEDEDEDEDEDEDEE5
:105BE000DEDEDEDEDEDEDEDEDEDEDEDEDEDEDEDED5
:105BF000DEDEDEDEDEDEDEDEDEDEDEDEDEDEDEDEC5
:105C0000DEDEDEDEDEDEDEDEDEDEDEDEDEDEDEDEB4
:105C1000DEDEDEDEDEDEDEDEDEDEDEDEDEDEDEDEA4
:105C2000DEDEDEDEDEDEDEDEDEDEDEDEDEDEDEDE94
:105C3000DEDEDEDEDEDEDEDECFCFCFCFCFCFCFCFFC
:105C4000CFCFCFCFCFCFCFCFCFCFCFCFCFCFCFCF64
:105C5000CFCFCFCFCFCFCFCFCFCFCFCFCFCFCFCF54
:105C6000CFCFCFCFCFCFCFCFCFCFCFCFCFCFCFCF44
:105C7000CFCFCFCFCFCFCFCFCFCFCFCFCFCFCFCF34
:105C8000CFCFCFCFCFCFCFCFCFCFCFCFCFCFCFCF24
:105C9000CFCFCFCFCFCFCFCFCFCFCFCFCFCFCFCF14
:105CA000CFCFCFCFCFCFCFCFCFCFCFCFCFCFCFCF04
:105CB000CFCFCFCFCFCFCFCFCFCFCFCFCFCFCFCFF4
:105CC000CFCFCFCFCFCFCFCFCFCFCFCFCFCFCFCFE4
:105CD000CFCFCFCFCFCFCFCFC2C2C2C2C2C2C2C23C
:105CE000C2C2C2C2C2C2C2C2C2C2C2C2C2C2C2C294
:105CF000C2C2C2C2C2C2C2C2C2C2C2C2C2C2C2C284
:105D0000C2C2C2C2C2C2C2C2C2C2C2C2C2C2C2C273
:105D1000C2C2C2C2C2C2C2C2C2C2C2C2C2C2C2C263
:105D2000C2C2C2C2C2C2C2C2C2C2C2C2C2C2C2C253
:105D3000C2C2C2C2C2C2C2C2C2C2C2C2C2C2C2C243
:105D4000C2C2C2C2C2C2C2C2C2C2C2C2C2C2C2C233
:105D5000C2C2C2C2C2C2C2C2C2C2C2C2C2C2C2C223
:105D6000C2C2C2C2C2C2C2C2C2C2C2C2C2C2C2C213
:105D7000C2C2C2C2C2C2C2C2B6B6B6B6B6B6B6B663
:105D8000B6B6B6B6B6B6B6B6B6B6B6B6B6B6B6B6B3
:105D9000B6B6B6B6B6B6B6B6B6B6B6B6B6B6B6B6A3
:105DA000B6B6B6B6B6B6B6B6B6B6B6B6B6B6B6B693
:105DB000B6B6B6B6B6B6B6B6B6B6B6B6B6B6B6B683
:105DC000B6B6B6B6B6B6B6B6B6B6B6B6B6B6B6B673
:105DD000B6B6B6B6B6B6B6B6B6B6B6B6B6B6B6B663
:105DE000B6B6B6B6B6B6B6B6B6B6B6B6B6B6B6B653
:105DF000B6B6B6B6B6B6B6B6B6B6B6B6B6B6B6B643
:105E0000B6B6B6B6B6B6B6B6B6B6B6B6B6B6B6B632
:105E1000B6B6B6B6B6B6B6B6ABABABABABABABAB7A
:105E2000ABABABABABABABABABABABABABABABABC2
:105E3000ABABABABABABABABABABABABABABABABB2
:105E4000ABABABABABABABABABABABABABABABABA2
:105E5000ABABABABABABABABABABABABABABABAB92
:105E6000ABABABABABABABABABABABABABABABAB82
:105E7000ABABABABABABABABABABABABABABABAB72
:105E8000ABABABABABABABABABABABABABABABAB62
:105E9000ABABABABABABABABABABABABABABABAB52
:105EA000ABABABABABABABABABABABABABABABAB42
:105EB000ABABABABABABABABA1A1A1A1A1A1A1A182
:105EC000A1A1A1A1A1A1A1A1A1A1A1A1A1A1A1A1C2
:105ED000A1A1A1A1A1A1A1A1A1A1A1A1A1A1A1A1B2
:105EE000A1A1A1A1A1A1A1A1A1A1A1A1A1A1A1A1A2
:105EF000A1A1A1A1A1A1A1A1A1A1A1A1A1A1A1A192
:105F0000A1A1A1A1A1A1A1A1A1A1A1A1A1A1A1A181
:105F1000A1A1A1A1A1A1A1A1A1A1A1A1A1A1A1A171
:105F2000A1A1A1A1A1A1A1A1A1A1A1A1A1A1A1A161
:105F3000A1A1A1A1A1A1A1A1A1A1A1A1A1A1A1A151
:105F4000A1A1A1A1A1A1A1A1A1A1A1A1A1A1A1A141
:105F5000A1A1A1A1A1A1A1A1989898989898989879
:105F600098989898989898989898989898989898B1
:105F700098989898989898989898989898989898A1
:105F80009898989898989898989898989898989891
:105F90009898989898989898989898989898989881
:105FA0009898989898989898989898989898989871
:105FB0009898989898989898989898989898989861
:105FC0009898989898989898989898989898989851
:105FD0009898989898989898989898989898989841
:105FE0009898989898989898989898989898989831
:105FF0009898989898989898909090909090909061
:106000009090909090909090909090909090909090
:106010009090909090909090909090909090909080
:106020009090909090909090909090909090909070
:106030009090909090909090909090909090909060
:106040009090909090909090909090909090909050
:106050009090909090909090909090909090909040
:106060009090909090909090909090909090909030
:106070009090909090909090909090909090909020
:106080009090909090909090909090909090909010
:106090009090909090909090888888888888888840
:1060A0008888888888888888888888888888888870
:1060B0008888888888888888888888888888888860
:1060C0008888888888888888888888888888888850
:1060D0008888888888888888888888888888888840
:1060E0008888888888888888888888888888888830
:1060F0008888888888888888888888888888888820
:10610000888888888888888888888888888888880F
:1061100088888888888888888888888888888888FF
:1061200088888888888888888888888888888888EF
:106130008888888888888888818181818181818117
:10614000818181818181818181818181818181813F
:10615000818181818181818181818181818181812F
:10616000818181818181818181818181818181811F
:10617000818181818181818181818181818181810F
:1061800081818181818181818181818181818181FF
:1061900081818181818181818181818181818181EF
:1061A00081818181818181818181818181818181DF
:1061B00081818181818181818181818181818181CF
:1061C00081818181818181818181818181818181BF
:1061D00081818181818181817B7B7B7B7B7B7B7BDF
:1061E0007B7B7B7B7B7B7B7B7B7B7B7B7B7B7B7BFF
:1061F0007B7B7B7B7B7B7B7B7B7B7B7B7B7B7B7BEF
:106200007B7B7B7B7B7B7B7B7B7B7B7B7B7B7B7BDE
:106210007B7B7B7B7B7B7B7B7B7B7B7B7B7B7B7BCE
:106220007B7B7B7B7B7B7B7B7B7B7B7B7B7B7B7BBE
:106230007B7B7B7B7B7B7B7B7B7B7B7B7B7B7B7BAE
:106240007B7B7B7B7B7B7B7B7B7B7B7B7B7B7B7B9E
:106250007B7B7B7B7B7B7B7B7B7B7B7B7B7B7B7B8E
:106260007B7B7B7B7B7B7B7B7B7B7B7B7B7B7B7B7E
:106270007B7B7B7B7B7B7B7B75757575757575759E
:1062800075757575757575757575757575757575BE
:1062900075757575757575757575757575757575AE
:1062A000757575757575757575757575757575759E
:1062B000757575757575757575757575757575758E
:1062C000757575757575757575757575757575757E
:1062D000757575757575757575757575757575756E
:1062E000757575757575757575757575757575755E
:1062F000757575757575757575757575757575754E
:10630000757575757575757575757575757575753D
:106310007575757575757575707070707070707055
:10632000707070707070707070707070707070706D
:10633000707070707070707070707070707070705D
:10634000707070707070707070707070707070704D
:10635000707070707070707070707070707070703D
:10636000707070707070707070707070707070702D
:10637000707070707070707070707070707070701D
:10638000707070707070707070707070707070700D
:1063900070707070707070707070707070707070FD
:1063A00070707070707070707070707070707070ED
:1063B00070707070707070706B6B6B6B6B6B6B6B05
:1063C0006B6B6B6B6B6B6B6B6B6B6B6B6B6B6B6B1D
:1063D0006B6B6B6B6B6B6B6B6B6B6B6B6B6B6B6B0D
:1063E0006B6B6B6B6B6B6B6B6B6B6B6B6B6B6B6BFD
:1063F0006B6B6B6B6B6B6B6B6B6B6B6B6B6B6B6BED
:106400006B6B6B6B6B6B6B6B6B6B6B6B6B6B6B6BDC
:106410006B6B6B6B6B6B6B6B6B6B6B6B6B6B6B6BCC
:106420006B6B6B6B6B6B6B6B6B6B6B6B6B6B6B6BBC
:106430006B6B6B6B6B6B6B6B6B6B6B6B6B6B6B6BAC
:106440006B6B6B6B6B6B6B6B6B6B6B6B6B6B6B6B9C
:106450006B6B6B6B6B6B6B6B6666666666666666B4
:1064600066666666666666666666666666666666CC
:1064700066666666666666666666666666666666BC
:1064800066666666666666666666666666666666AC
:10649000666666666666666666666666666666669C
:1064A000666666666666666666666666666666668C
:1064B000666666666666666666666666666666667C
:1064C000666666666666666666666666666666666C
:1064D000666666666666666666666666666666665C
:1064E000666666666666666666666666666666664C
:1064F0006666666666666666616161616161616164
:10650000616161616161616161616161616161617B
:10651000616161616161616161616161616161616B
:10652000616161616161616161616161616161615B
:10653000616161616161616161616161616161614B
:10654000616161616161616161616161616161613B
:10655000616161616161616161616161616161612B
:10656000616161616161616161616161616161611B
:10657000616161616161616161616161616161610B
:1065800061616161616161616161616161616161FB
:1065900061616161616161615D5D5D5D5D5D5D5D0B
:1065A0005D5D5D5D5D5D5D5D5D5D5D5D5D5D5D5D1B
:1065B0005D5D5D5D5D5D5D5D5D5D5D5D5D5D5D5D0B
:1065C0005D5D5D5D5D5D5D5D5D5D5D5D5D5D5D5DFB
:1065D0005D5D5D5D5D5D5D5D5D5D5D5D5D5D5D5DEB
:1065E0005D5D5D5D5D5D5D5D5D5D5D5D5D5D5D5DDB
:1065F0005D5D5D5D5D5D5D5D5D5D5D5D5D5D5D5DCB
:106600005D5D5D5D5D5D5D5D5D5D5D5D5D5D5D5DBA
:106610005D5D5D5D5D5D5D5D5D5D5D5D5D5D5D5DAA
:106620005D5D5D5D5D5D5D5D5D5D5D5D5D5D5D5D9A
:106630005D5D5D5D5D5D5D5D5959595959595959AA
:1066400059595959595959595959595959595959BA
:1066500059595959595959595959595959595959AA
:10666000595959595959595959595959595959599A
:10667000595959595959595959595959595959598A
:10668000595959595959595959595959595959597A
:10669000595959595959595959595959595959596A
:1066A000595959595959595959595959595959595A
:1066B000595959595959595959595959595959594A
:1066C000595959595959595959595959595959593A
:1066D000595959595959595955555555555555554A
:1066E000555555555555555555555555555555555A
:1066F000555555555555555555555555555555554A
:106700005555555555555555555555555555555539
:106710005555555555555555555555555555555529
:106720005555555555555555555555555555555519
:106730005555555555555555555555555555555509
:1067400055555555555555555555555555555555F9
:1067500055555555555555555555555555555555E9
:1067600055555555555555555555555555555555D9
:1067700055555555555555555252525252525252E1
:1067800052525252525252525252525252525252E9
:1067900052525252525252525252525252525252D9
:1067A00052525252525252525252525252525252C9
:1067B00052525252525252525252525252525252B9
:1067C00052525252525252525252525252525252A9
:1067D0005252525252525252525252525252525299
:1067E0005252525252525252525252525252525289
:1067F0005252525252525252525252525252525279
:106800005252525252525252525252525252525268
:1068100052525252525252524F4F4F4F4F4F4F4F70
:106820004F4F4F4F4F4F4F4F4F4F4F4F4F4F4F4F78
:106830004F4F4F4F4F4F4F4F4F4F4F4F4F4F4F4F68
:106840004F4F4F4F4F4F4F4F4F4F4F4F4F4F4F4F58
:106850004F4F4F4F4F4F4F4F4F4F4F4F4F4F4F4F48
:106860004F4F4F4F4F4F4F4F4F4F4F4F4F4F4F4F38
:106870004F4F4F4F4F4F4F4F4F4F4F4F4F4F4F4F28
:106880004F4F4F4F4F4F4F4F4F4F4F4F4F4F4F4F18
:106890004F4F4F4F4F4F4F4F4F4F4F4F4F4F4F4F08
:1068A0004F4F4F4F4F4F4F4F4F4F4F4F4F4F4F4FF8
:1068B0004F4F4F4F4F4F4F4F4B4B4B4B4B4B4B4B08
:1068C0004B4B4B4B4B4B4B4B4B4B4B4B4B4B4B4B18
:1068D0004B4B4B4B4B4B4B4B4B4B4B4B4B4B4B4B08
:1068E0004B4B4B4B4B4B4B4B4B4B4B4B4B4B4B4BF8
:1068F0004B4B4B4B4B4B4B4B4B4B4B4B4B4B4B4BE8
:106900004B4B4B4B4B4B4B4B4B4B4B4B4B4B4B4BD7
:106910004B4B4B4B4B4B4B4B4B4B4B4B4B4B4B4BC7
:106920004B4B4B4B4B4B4B4B4B4B4B4B4B4B4B4BB7
:106930004B4B4B4B4B4B4B4B4B4B4B4B4B4B4B4BA7
:106940004B4B4B4B4B4B4B4B4B4B4B4B4B4B4B4B97
:106950004B4B4B4B4B4B4B4B494949494949494997
:106960004949494949494949494949494949494997
:106970004949494949494949494949494949494987
:106980004949494949494949494949494949494977
:106990004949494949494949494949494949494967
:1069A0004949494949494949494949494949494957
:1069B0004949494949494949494949494949494947
:1069C0004949494949494949494949494949494937
:1069D0004949494949494949494949494949494927
:1069E0004949494949494949494949494949494917
:1069F000494949494949494946464646464646461F
:106A00004646464646464646464646464646464626
:106A10004646464646464646464646464646464616
:106A20004646464646464646464646464646464606
:106A300046464646464646464646464646464646F6
:106A400046464646464646464646464646464646E6
:106A500046464646464646464646464646464646D6
:106A600046464646464646464646464646464646C6
:106A700046464646464646464646464646464646B6
:106A800046464646464646464646464646464646A6
:106A900046464646464646464343434343434343AE
:106AA00043434343434343434343434343434343B6
:106AB00043434343434343434343434343434343A6
:106AC0004343434343434343434343434343434396
:106AD0004343434343434343434343434343434386
:106AE0004343434343434343434343434343434376
:106AF0004343434343434343434343434343434366
:106B00004343434343434343434343434343434355
:106B10004343434343434343434343434343434345
:106B20004343434343434343434343434343434335
:106B30004343434343434343414141414141414135
:106B40004141414141414141414141414141414135
:106B50004141414141414141414141414141414125
:106B60004141414141414141414141414141414115
:106B70004141414141414141414141414141414105
:106B800041414141414141414141414141414141F5
:106B900041414141414141414141414141414141E5
:106BA00041414141414141414141414141414141D5
:106BB00041414141414141414141414141414141C5
:106BC00041414141414141414141414141414141B5
:106BD00041414141414141413E3E3E3E3E3E3E3EBD
:106BE0003E3E3E3E3E3E3E3E3E3E3E3E3E3E3E3EC5
:106BF0003E3E3E3E3E3E3E3E3E3E3E3E3E3E3E3EB5
:106C00003E3E3E3E3E3E3E3E3E3E3E3E3E3E3E3EA4
:106C10003E3E3E3E3E3E3E3E3E3E3E3E3E3E3E3E94
:106C20003E3E3E3E3E3E3E3E3E3E3E3E3E3E3E3E84
:106C30003E3E3E3E3E3E3E3E3E3E3E3E3E3E3E3E74
:106C40003E3E3E3E3E3E3E3E3E3E3E3E3E3E3E3E64
:106C50003E3E3E3E3E3E3E3E3E3E3E3E3E3E3E3E54
:106C60003E3E3E3E3E3E3E3E3E3E3E3E3E3E3E3E44
:106C70003E3E3E3E3E3E3E3E3C3C3C3C3C3C3C3C44
:106C80003C3C3C3C3C3C3C3C3C3C3C3C3C3C3C3C44
:106C90003C3C3C3C3C3C3C3C3C3C3C3C3C3C3C3C34
:106CA0003C3C3C3C3C3C3C3C3C3C3C3C3C3C3C3C24
:106CB0003C3C3C3C3C3C3C3C3C3C3C3C3C3C3C3C14
:106CC0003C3C3C3C3C3C3C3C3C3C3C3C3C3C3C3C04
:106CD0003C3C3C3C3C3C3C3C3C3C3C3C3C3C3C3CF4
:106CE0003C3C3C3C3C3C3C3C3C3C3C3C3C3C3C3CE4
:106CF0003C3C3C3C3C3C3C3C3C3C3C3C3C3C3C3CD4
:106D00003C3C3C3C3C3C3C3C3C3C3C3C3C3C3C3CC3
:106D10003C3C3C3C3C3C3C3C3A3A3A3A3A3A3A3AC3
:106D20003A3A3A3A3A3A3A3A3A3A3A3A3A3A3A3AC3
:106D30003A3A3A3A3A3A3A3A3A3A3A3A3A3A3A3AB3
:106D40003A3A3A3A3A3A3A3A3A3A3A3A3A3A3A3AA3
:106D50003A3A3A3A3A3A3A3A3A3A3A3A3A3A3A3A93
:106D60003A3A3A3A3A3A3A3A3A3A3A3A3A3A3A3A83
:106D70003A3A3A3A3A3A3A3A3A3A3A3A3A3A3A3A73
:106D80003A3A3A3A3A3A3A3A3A3A3A3A3A3A3A3A63
:106D90003A3A3A3A3A3A3A3A3A3A3A3A3A3A3A3A53
:106DA0003A3A3A3A3A3A3A3A3A3A3A3A3A3A3A3A43
:106DB0003A3A3A3A3A3A3A3A37373737373737374B
:106DC0003737373737373737373737373737373753
:106DD0003737373737373737373737373737373743
:106DE0003737373737373737373737373737373733
:106DF0003737373737373737373737373737373723
:106E00003737373737373737373737373737373712
:106E10003737373737373737373737373737373702
:106E200037373737373737373737373737373737F2
:106E300037373737373737373737373737373737E2
:106E400037373737373737373737373737373737D2
:106E500037373737373737373535353535353535D2
:106E600035353535353535353535353535353535D2
:106E700035353535353535353535353535353535C2
:106E800035353535353535353535353535353535B2
:106E900035353535353535353535353535353535A2
:106EA0003535353535353535353535353535353592
:106EB0003535353535353535353535353535353582
:106EC0003535353535353535353535353535353572
:106ED0003535353535353535353535353535353562
:106EE0003535353535353535353535353535353552
:106EF000353535353535353534343434343434344A
:106F00003434343434343434343434343434343441
:106F10003434343434343434343434343434343431
:106F20003434343434343434343434343434343421
:106F30003434343434343434343434343434343411
:106F40003434343434343434343434343434343401
:106F500034343434343434343434343434343434F1
:106F600034343434343434343434343434343434E1
:106F700034343434343434343434343434343434D1
:106F800034343434343434343434343434343434C1
:106F900034343434343434343232323232323232C1
:106FA00032323232323232323232323232323232C1
:106FB00032323232323232323232323232323232B1
:106FC00032323232323232323232323232323232A1
:106FD0003232323232323232323232323232323291
:106FE0003232323232323232323232323232323281
:106FF0003232323232323232323232323232323271
:107000003232323232323232323232323232323260
:107010003232323232323232323232323232323250
:107020003232323232323232323232323232323240
:107030003232323232323232303030303030303040
:107040003030303030303030303030303030303040
:107050003030303030303030303030303030303030
:107060003030303030303030303030303030303020
:107070003030303030303030303030303030303010
:107080003030303030303030303030303030303000
:1070900030303030303030303030303030303030F0
:1070A00030303030303030303030303030303030E0
:1070B00030303030303030303030303030303030D0
:1070C00030303030303030303030303030303030C0
:1070D00030303030303030302E2E2E2E2E2E2E2EC0
:1070E0002E2E2E2E2E2E2E2E2E2E2E2E2E2E2E2EC0
:1070F0002E2E2E2E2E2E2E2E2E2E2E2E2E2E2E2EB0
:107100002E2E2E2E2E2E2E2E2E2E2E2E2E2E2E2E9F
:107110002E2E2E2E2E2E2E2E2E2E2E2E2E2E2E2E8F
:107120002E2E2E2E2E2E2E2E2E2E2E2E2E2E2E2E7F
:107130002E2E2E2E2E2E2E2E2E2E2E2E2E2E2E2E6F
:107140002E2E2E2E2E2E2E2E2E2E2E2E2E2E2E2E5F
:107150002E2E2E2E2E2E2E2E2E2E2E2E2E2E2E2E4F
:107160002E2E2E2E2E2E2E2E2E2E2E2E2E2E2E2E3F
:107170002E2E2E2E2E2E2E2E2D2D2D2D2D2D2D2D37
:107180002D2D2D2D2D2D2D2D2D2D2D2D2D2D2D2D2F
:107190002D2D2D2D2D2D2D2D2D2D2D2D2D2D2D2D1F
:1071A0002D2D2D2D2D2D2D2D2D2D2D2D2D2D2D2D0F
:1071B0002D2D2D2D2D2D2D2D2D2D2D2D2D2D2D2DFF
:1071C0002D2D2D2D2D2D2D2D2D2D2D2D2D2D2D2DEF
:1071D0002D2D2D2D2D2D2D2D2D2D2D2D2D2D2D2DDF
:1071E0002D2D2D2D2D2D2D2D2D2D2D2D2D2D2D2DCF
:1071F0002D2D2D2D2D2D2D2D2D2D2D2D2D2D2D2DBF
:107200002D2D2D2D2D2D2D2D2D2D2D2D2D2D2D2DAE
:107210002D2D2D2D2D2D2D2D2B2B2B2B2B2B2B2BAE
:107220002B2B2B2B2B2B2B2B2B2B2B2B2B2B2B2BAE
:107230002B2B2B2B2B2B2B2B2B2B2B2B2B2B2B2B9E
:107240002B2B2B2B2B2B2B2B2B2B2B2B2B2B2B2B8E
:107250002B2B2B2B2B2B2B2B2B2B2B2B2B2B2B2B7E
:107260002B2B2B2B2B2B2B2B2B2B2B2B2B2B2B2B6E
:107270002B2B2B2B2B2B2B2B2B2B2B2B2B2B2B2B5E
:107280002B2B2B2B2B2B2B2B2B2B2B2B2B2B2B2B4E
:107290002B2B2B2B2B2B2B2B2B2B2B2B2B2B2B2B3E
:1072A0002B2B2B2B2B2B2B2B2B2B2B2B2B2B2B2B2E
:1072B0002B2B2B2B2B2B2B2B29292929292929292E
:1072C000292929292929292929292929292929292E
:1072D000292929292929292929292929292929291E
:1072E000292929292929292929292929292929290E
:1072F00029292929292929292929292929292929FE
:1073000029292929292929292929292929292929ED
:1073100029292929292929292929292929292929DD
:1073200029292929292929292929292929292929CD
:1073300029292929292929292929292929292929BD
:1073400029292929292929292929292929292929AD
:1073500029292929292929292828282828282828A5
:10736000282828282828282828282828282828289D
:10737000282828282828282828282828282828288D
:10738000282828282828282828282828282828287D
:10739000282828282828282828282828282828286D
:1073A000282828282828282828282828282828285D
:1073B000282828282828282828282828282828284D
:1073C000282828282828282828282828282828283D
:1073D000282828282828282828282828282828282D
:1073E000282828282828282828282828282828281D
:1073F0002828282828282828272727272727272715
:10740000272727272727272727272727272727270C
:1074100027272727272727272727272727272727FC
:1074200027272727272727272727272727272727EC
:1074300027272727272727272727272727272727DC
:1074400027272727272727272727272727272727CC
:1074500027272727272727272727272727272727BC
:1074600027272727272727272727272727272727AC
:10747000272727272727272727272727272727279C
:10748000272727272727272727272727272727278C
:10749000272727272727272725252525252525258C
:1074A000252525252525252525252525252525258C
:1074B000252525252525252525252525252525257C
:1074C000252525252525252525252525252525256C
:1074D000252525252525252525252525252525255C
:1074E000252525252525252525252525252525254C
:1074F000252525252525252525252525252525253C
:10750000252525252525252525252525252525252B
:10751000252525252525252525252525252525251B
:10752000252525252525252525252525252525250B
:107530002525252525252525242424242424242403
:1075400024242424242424242424242424242424FB
:1075500024242424242424242424242424242424EB
:1075600024242424242424242424242424242424DB
:1075700024242424242424242424242424242424CB
:1075800024242424242424242424242424242424BB
:1075900024242424242424242424242424242424AB
:1075A000242424242424242424242424242424249B
:1075B000242424242424242424242424242424248B
:1075C000242424242424242424242424242424247B
:1075D0002424242424242424232323232323232373
:1075E000232323232323232323232323232323236B
:1075F000232323232323232323232323232323235B
:10760000232323232323232323232323232323234A
:10761000232323232323232323232323232323233A
:10762000232323232323232323232323232323232A
:10763000232323232323232323232323232323231A
:10764000232323232323232323232323232323230A
:1076500023232323232323232323232323232323FA
:1076600023232323232323232323232323232323EA
:1076700023232323232323232121212121212121EA
:1076800021212121212121212121212121212121EA
:1076900021212121212121212121212121212121DA
:1076A00021212121212121212121212121212121CA
:1076B00021212121212121212121212121212121BA
:1076C00021212121212121212121212121212121AA
:1076D000212121212121212121212121212121219A
:1076E000212121212121212121212121212121218A
:1076F000212121212121212121212121212121217A
:107700002121212121212121212121212121212169
:107710002121212121212121202020202020202061
:107720002020202020202020202020202020202059
:107730002020202020202020202020202020202049
:107740002020202020202020202020202020202039
:107750002020202020202020202020202020202029
:107760002020202020202020202020202020202019
:107770002020202020202020202020202020202009
:1077800020202020202020202020202020202020F9
:1077900020202020202020202020202020202020E9
:1077A00020202020202020202020202020202020D9
:1077B00020202020202020201F1F1F1F1F1F1F1FD1
:1077C0001F1F1F1F1F1F1F1F1F1F1F1F1F1F1F1FC9
:1077D0001F1F1F1F1F1F1F1F1F1F1F1F1F1F1F1FB9
:1077E0001F1F1F1F1F1F1F1F1F1F1F1F1F1F1F1FA9
:1077F0001F1F1F1F1F1F1F1F1F1F1F1F1F1F1F1F99
:107800001F1F1F1F1F1F1F1F1F1F1F1F1F1F1F1F88
:107810001F1F1F1F1F1F1F1F1F1F1F1F1F1F1F1F78
:107820001F1F1F1F1F1F1F1F1F1F1F1F1F1F1F1F68
:107830001F1F1F1F1F1F1F1F1F1F1F1F1F1F1F1F58
:107840001F1F1F1F1F1F1F1F1F1F1F1F1F1F1F1F48
:107850001F1F1F1F1F1F1F1F1E1E1E1E1E1E1E1E40
:107860001E1E1E1E1E1E1E1E1E1E1E1E1E1E1E1E38
:107870001E1E1E1E1E1E1E1E1E1E1E1E1E1E1E1E28
:107880001E1E1E1E1E1E1E1E1E1E1E1E1E1E1E1E18
:107890001E1E1E1E1E1E1E1E1E1E1E1E1E1E1E1E08
:1078A0001E1E1E1E1E1E1E1E1E1E1E1E1E1E1E1EF8
:1078B0001E1E1E1E1E1E1E1E1E1E1E1E1E1E1E1EE8
:1078C0001E1E1E1E1E1E1E1E1E1E1E1E1E1E1E1ED8
:1078D0001E1E1E1E1E1E1E1E1E1E1E1E1E1E1E1EC8
:1078E0001E1E1E1E1E1E1E1E1E1E1E1E1E1E1E1EB8
:1078F0001E1E1E1E1E1E1E1E1D1D1D1D1D1D1D1DB0
:107900001D1D1D1D1D1D1D1D1D1D1D1D1D1D1D1DA7
:107910001D1D1D1D1D1D1D1D1D1D1D1D1D1D1D1D97
:107920001D1D1D1D1D1D1D1D1D1D1D1D1D1D1D1D87
:107930001D1D1D1D1D1D1D1D1D1D1D1D1D1D1D1D77
:107940001D1D1D1D1D1D1D1D1D1D1D1D1D1D1D1D67
:107950001D1D1D1D1D1D1D1D1D1D1D1D1D1D1D1D57
:107960001D1D1D1D1D1D1D1D1D1D1D1D1D1D1D1D47
:107970001D1D1D1D1D1D1D1D1D1D1D1D1D1D1D1D37
:107980001D1D1D1D1D1D1D1D1D1D1D1D1D1D1D1D27
:107990001D1D1D1D1D1D1D1D1C1C1C1C1C1C1C1C1F
:1079A0001C1C1C1C1C1C1C1C1C1C1C1C1C1C1C1C17
:1079B0001C1C1C1C1C1C1C1C1C1C1C1C1C1C1C1C07
:1079C0001C1C1C1C1C1C1C1C1C1C1C1C1C1C1C1CF7
:1079D0001C1C1C1C1C1C1C1C1C1C1C1C1C1C1C1CE7
:1079E0001C1C1C1C1C1C1C1C1C1C1C1C1C1C1C1CD7
:1079F0001C1C1C1C1C1C1C1C1C1C1C1C1C1C1C1CC7
:107A00001C1C1C1C1C1C1C1C1C1C1C1C1C1C1C1CB6
:107A10001C1C1C1C1C1C1C1C1C1C1C1C1C1C1C1CA6
:107A20001C1C1C1C1C1C1C1C1C1C1C1C1C1C1C1C96
:107A30001C1C1C1C1C1C1C1C1B1B1B1B1B1B1B1B8E
:107A40001B1B1B1B1B1B1B1B1B1B1B1B1B1B1B1B86
:107A50001B1B1B1B1B1B1B1B1B1B1B1B1B1B1B1B76
:107A60001B1B1B1B1B1B1B1B1B1B1B1B1B1B1B1B66
:107A70001B1B1B1B1B1B1B1B1B1B1B1B1B1B1B1B56
:107A80001B1B1B1B1B1B1B1B1B1B1B1B1B1B1B1B46
:107A90001B1B1B1B1B1B1B1B1B1B1B1B1B1B1B1B36
:107AA0001B1B1B1B1B1B1B1B1B1B1B1B1B1B1B1B26
:107AB0001B1B1B1B1B1B1B1B1B1B1B1B1B1B1B1B16
:107AC0001B1B1B1B1B1B1B1B1B1B1B1B1B1B1B1B06
:107AD0001B1B1B1B1B1B1B1B1A1A1A1A1A1A1A1AFE
:107AE0001A1A1A1A1A1A1A1A1A1A1A1A1A1A1A1AF6
:107AF0001A1A1A1A1A1A1A1A1A1A1A1A1A1A1A1AE6
:107B00001A1A1A1A1A1A1A1A1A1A1A1A1A1A1A1AD5
:107B10001A1A1A1A1A1A1A1A1A1A1A1A1A1A1A1AC5
:107B20001A1A1A1A1A1A1A1A1A1A1A1A1A1A1A1AB5
:107B30001A1A1A1A1A1A1A1A1A1A1A1A1A1A1A1AA5
:107B40001A1A1A1A1A1A1A1A1A1A1A1A1A1A1A1A95
:107B50001A1A1A1A1A1A1A1A1A1A1A1A1A1A1A1A85
:107B60001A1A1A1A1A1A1A1A1A1A1A1A1A1A1A1A75
:107B70001A1A1A1A1A1A1A1A19191919191919196D
:107B80001919191919191919191919191919191965
:107B90001919191919191919191919191919191955
:107BA0001919191919191919191919191919191945
:107BB0001919191919191919191919191919191935
:107BC0001919191919191919191919191919191925
:107BD0001919191919191919191919191919191915
:107BE0001919191919191919191919191919191905
:107BF00019191919191919191919191919191919F5
:107C000019191919191919191919191919191919E4
:107C100019191919191919191818181818181818DC
:107C200018181818181818181818181818181818D4
:107C300018181818181818181818181818181818C4
:107C400018181818181818181818181818181818B4
:107C500018181818181818181818181818181818A4
:107C60001818181818181818181818181818181894
:107C70001818181818181818181818181818181884
:107C80001818181818181818181818181818181874
:107C90001818181818181818181818181818181864
:107CA0001818181818181818181818181818181854
:107CB000181818181818181817171717171717174C
:107CC0001717171717171717171717171717171744
:107CD0001717171717171717171717171717171734
:107CE0001717171717171717171717171717171724
:107CF0001717171717171717171717171717171714
:107D00001717171717171717171717171717171703
:107D100017171717171717171717171717171717F3
:107D200017171717171717171717171717171717E3
:107D300017171717171717171717171717171717D3
:107D400017171717171717171717171717171717C3
:107D500017171717171717171616161616161616BB
:107D600016161616161616161616161616161616B3
:107D700016161616161616161616161616161616A3
:107D80001616161616161616161616161616161693
:107D90001616161616161616161616161616161683
:107DA0001616161616161616161616161616161673
:107DB0001616161616161616161616161616161663
:107DC0001616161616161616161616161616161653
:107DD0001616161616161616161616161616161643
:107DE0001616161616161616161616161616161633
:107DF000161616161616161615151515151515152B
:107E00001515151515151515151515151515151522
:107E10001515151515151515151515151515151512
:107E20001515151515151515151515151515151502
:107E300015151515151515151515151515151515F2
:107E400015151515151515151515151515151515E2
:107E500015151515151515151515151515151515D2
:107E600015151515151515151515151515151515C2
:107E700015151515151515151515151515151515B2
:107E800015151515151515151515151515151515A2
:107E90001515151515151515151515151515151592
:107EA0001515151515151515151515151515151582
:107EB0001515151515151515151515151515151572
:107EC0001515151515151515151515151515151562
:107ED0001515151515151515151515151515151552
:107EE0001515151515151515151515151515151542
:107EF0001515151515151515151515151515151532
:107F00001515151515151515151515151515151521
:107F10001515151515151515151515151515151511
:107F20001515151515151515151515151515151501
:107F300015151515151515151414141414141414F9
:107F400014141414141414141414141414141414F1
:107F500014141414141414141414141414141414E1
:107F600014141414141414141414141414141414D1
:107F700014141414141414141414141414141414C1
:107F800014141414141414141414141414141414B1
:107F900014141414141414141414141414141414A1
:107FA0001414141414141414141414141414141491
:107FB0001414141414141414141414141414141481
:107FC0001414141414141414141414141414141471
:107FD0001414141414141414131313131313131369
:107FE0001313131313131313131313131313131361
:107FF0001313131313131313131313131313131351
:108000001313131313131313131313131313131340
:108010001313131313131313131313131313131330
:108020001313131313131313131313131313131320
:108030001313131313131313131313131313131310
:108040001313131313131313131313131313131300
:1080500013131313131313131313131313131313F0
:1080600013131313131313131313131313131313E0
:1080700013131313131313131212121212121212D8
:1080800012121212121212121212121212121212D0
:1080900012121212121212121212121212121212C0
:1080A00012121212121212121212121212121212B0
:1080B00012121212121212121212121212121212A0
:1080C0001212121212121212121212121212121290
:1080D0001212121212121212121212121212121280
:1080E0001212121212121212121212121212121270
:1080F0001212121212121212121212121212121260
:10810000121212121212121212121212121212124F
:10811000121212121212121212121212121212123F
:10812000121212121212121212121212121212122F
:10813000121212121212121212121212121212121F
:10814000121212121212121212121212121212120F
:1081500012121212121212121212121212121212FF
:1081600012121212121212121212121212121212EF
:1081700012121212121212121212121212121212DF
:1081800012121212121212121212121212121212CF
:1081900012121212121212121212121212121212BF
:1081A00012121212121212121212121212121212AF
:1081B00012121212121212121111111111111111A7
:1081C000111111111111111111111111111111119F
:1081D000111111111111111111111111111111118F
:1081E000111111111111111111111111111111117F
:1081F000111111111111111111111111111111116F
:10820000111111111111111111111111111111115E
:10821000111111111111111111111111111111114E
:10822000111111111111111111111111111111113E
:10823000111111111111111111111111111111112E
:10824000111111111111111111111111111111111E
:108250001111111111111111101010101010101016
:10826000101010101010101010101010101010100E
:1082700010101010101010101010101010101010FE
:1082800010101010101010101010101010101010EE
:1082900010101010101010101010101010101010DE
:1082A00010101010101010101010101010101010CE
:1082B00010101010101010101010101010101010BE
:1082C00010101010101010101010101010101010AE
:1082D000101010101010101010101010101010109E
:1082E000101010101010101010101010101010108E
:1082F00010101010101010100F0F0F0F0F0F0F0F86
:108300000F0F0F0F0F0F0F0F0F0F0F0F0F0F0F0F7D
:108310000F0F0F0F0F0F0F0F0F0F0F0F0F0F0F0F6D
:108320000F0F0F0F0F0F0F0F0F0F0F0F0F0F0F0F5D
:108330000F0F0F0F0F0F0F0F0F0F0F0F0F0F0F0F4D
:108340000F0F0F0F0F0F0F0F0F0F0F0F0F0F0F0F3D
:108350000F0F0F0F0F0F0F0F0F0F0F0F0F0F0F0F2D
:108360000F0F0F0F0F0F0F0F0F0F0F0F0F0F0F0F1D
:108370000F0F0F0F0F0F0F0F0F0F0F0F0F0F0F0F0D
:108380000F0F0F0F0F0F0F0F0F0F0F0F0F0F0F0FFD
:108390000F0F0F0F0F0F0F0F0F0F0F0F0F0F0F0FED
:1083A0000F0F0F0F0F0F0F0F0F0F0F0F0F0F0F0FDD
:1083B0000F0F0F0F0F0F0F0F0F0F0F0F0F0F0F0FCD
:1083C0000F0F0F0F0F0F0F0F0F0F0F0F0F0F0F0FBD
:1083D0000F0F0F0F0F0F0F0F0F0F0F0F0F0F0F0FAD
:1083E0000F0F0F0F0F0F0F0F0F0F0F0F0F0F0F0F9D
:1083F0000F0F0F0F0F0F0F0F0F0F0F0F0F0F0F0F8D
:108400000F0F0F0F0F0F0F0F0F0F0F0F0F0F0F0F7C
:108410000F0F0F0F0F0F0F0F0F0F0F0F0F0F0F0F6C
:108420000F0F0F0F0F0F0F0F0F0F0F0F0F0F0F0F5C
:108430000F0F0F0F0F0F0F0F0E0E0E0E0E0E0E0E54
:108440000E0E0E0E0E0E0E0E0E0E0E0E0E0E0E0E4C
:108450000E0E0E0E0E0E0E0E0E0E0E0E0E0E0E0E3C
:108460000E0E0E0E0E0E0E0E0E0E0E0E0E0E0E0E2C
:108470000E0E0E0E0E0E0E0E0E0E0E0E0E0E0E0E1C
:108480000E0E0E0E0E0E0E0E0E0E0E0E0E0E0E0E0C
:108490000E0E0E0E0E0E0E0E0E0E0E0E0E0E0E0EFC
:1084A0000E0E0E0E0E0E0E0E0E0E0E0E0E0E0E0EEC
:1084B0000E0E0E0E0E0E0E0E0E0E0E0E0E0E0E0EDC
:1084C0000E0E0E0E0E0E0E0E0E0E0E0E0E0E0E0ECC
:1084D0000E0E0E0E0E0E0E0E0D0D0D0D0D0D0D0DC4
:1084E0000D0D0D0D0D0D0D0D0D0D0D0D0D0D0D0DBC
:1084F0000D0D0D0D0D0D0D0D0D0D0D0D0D0D0D0DAC
:108500000D0D0D0D0D0D0D0D0D0D0D0D0D0D0D0D9B
:108510000D0D0D0D0D0D0D0D0D0D0D0D0D0D0D0D8B
:108520000D0D0D0D0D0D0D0D0D0D0D0D0D0D0D0D7B
:108530000D0D0D0D0D0D0D0D0D0D0D0D0D0D0D0D6B
:108540000D0D0D0D0D0D0D0D0D0D0D0D0D0D0D0D5B
:108550000D0D0D0D0D0D0D0D0D0D0D0D0D0D0D0D4B
:108560000D0D0D0D0D0D0D0D0D0D0D0D0D0D0D0D3B
:108570000D0D0D0D0D0D0D0D0D0D0D0D0D0D0D0D2B
:108580000D0D0D0D0D0D0D0D0D0D0D0D0D0D0D0D1B
:108590000D0D0D0D0D0D0D0D0D0D0D0D0D0D0D0D0B
:1085A0000D0D0D0D0D0D0D0D0D0D0D0D0D0D0D0DFB
:1085B0000D0D0D0D0D0D0D0D0D0D0D0D0D0D0D0DEB
:1085C0000D0D0D0D0D0D0D0D0D0D0D0D0D0D0D0DDB
:1085D0000D0D0D0D0D0D0D0D0D0D0D0D0D0D0D0DCB
:1085E0000D0D0D0D0D0D0D0D0D0D0D0D0D0D0D0DBB
:1085F0000D0D0D0D0D0D0D0D0D0D0D0D0D0D0D0DAB
:108600000D0D0D0D0D0D0D0D0D0D0D0D0D0D0D0D9A
:108610000D0D0D0D0D0D0D0D0C0C0C0C0C0C0C0C92
:108620000C0C0C0C0C0C0C0C0C0C0C0C0C0C0C0C8A
:108630000C0C0C0C0C0C0C0C0C0C0C0C0C0C0C0C7A
:108640000C0C0C0C0C0C0C0C0C0C0C0C0C0C0C0C6A
:108650000C0C0C0C0C0C0C0C0C0C0C0C0C0C0C0C5A
:108660000C0C0C0C0C0C0C0C0C0C0C0C0C0C0C0C4A
:108670000C0C0C0C0C0C0C0C0C0C0C0C0C0C0C0C3A
:108680000C0C0C0C0C0C0C0C0C0C0C0C0C0C0C0C2A
:108690000C0C0C0C0C0C0C0C0C0C0C0C0C0C0C0C1A
:1086A0000C0C0C0C0C0C0C0C0C0C0C0C0C0C0C0C0A
:1086B0000C0C0C0C0C0C0C0C0C0C0C0C0C0C0C0CFA
:1086C0000C0C0C0C0C0C0C0C0C0C0C0C0C0C0C0CEA
:1086D0000C0C0C0C0C0C0C0C0C0C0C0C0C0C0C0CDA
:1086E0000C0C0C0C0C0C0C0C0C0C0C0C0C0C0C0CCA
:1086F0000C0C0C0C0C0C0C0C0C0C0C0C0C0C0C0CBA
:108700000C0C0C0C0C0C0C0C0C0C0C0C0C0C0C0CA9
:108710000C0C0C0C0C0C0C0C0C0C0C0C0C0C0C0C99
:108720000C0C0C0C0C0C0C0C0C0C0C0C0C0C0C0C89
:108730000C0C0C0C0C0C0C0C0C0C0C0C0C0C0C0C79
:108740000C0C0C0C0C0C0C0C0C0C0C0C0C0C0C0C69
:108750000C0C0C0C0C0C0C0C0B0B0B0B0B0B0B0B61
:108760000B0B0B0B0B0B0B0B0B0B0B0B0B0B0B0B59
:108770000B0B0B0B0B0B0B0B0B0B0B0B0B0B0B0B49
:108780000B0B0B0B0B0B0B0B0B0B0B0B0B0B0B0B39
:108790000B0B0B0B0B0B0B0B0B0B0B0B0B0B0B0B29
:1087A0000B0B0B0B0B0B0B0B0B0B0B0B0B0B0B0B19
:1087B0000B0B0B0B0B0B0B0B0B0B0B0B0B0B0B0B09
:1087C0000B0B0B0B0B0B0B0B0B0B0B0B0B0B0B0BF9
:1087D0000B0B0B0B0B0B0B0B0B0B0B0B0B0B0B0BE9
:1087E0000B0B0B0B0B0B0B0B0B0B0B0B0B0B0B0BD9
:1087F0000B0B0B0B0B0B0B0B0B0B0B0B0B0B0B0BC9
:108800000B0B0B0B0B0B0B0B0B0B0B0B0B0B0B0BB8
:108810000B0B0B0B0B0B0B0B0B0B0B0B0B0B0B0BA8
:108820000B0B0B0B0B0B0B0B0B0B0B0B0B0B0B0B98
:108830000B0B0B0B0B0B0B0B0B0B0B0B0B0B0B0B88
:108840000B0B0B0B0B0B0B0B0B0B0B0B0B0B0B0B78
:108850000B0B0B0B0B0B0B0B0B0B0B0B0B0B0B0B68
:108860000B0B0B0B0B0B0B0B0B0B0B0B0B0B0B0B58
:108870000B0B0B0B0B0B0B0B0B0B0B0B0B0B0B0B48
:108880000B0B0B0B0B0B0B0B0B0B0B0B0B0B0B0B38
:108890000B0B0B0B0B0B0B0B0A0A0A0A0A0A0A0A30
:1088A0000A0A0A0A0A0A0A0A0A0A0A0A0A0A0A0A28
:1088B0000A0A0A0A0A0A0A0A0A0A0A0A0A0A0A0A18
:1088C0000A0A0A0A0A0A0A0A0A0A0A0A0A0A0A0A08
:1088D0000A0A0A0A0A0A0A0A0A0A0A0A0A0A0A0AF8
:1088E0000A0A0A0A0A0A0A0A0A0A0A0A0A0A0A0AE8
:1088F0000A0A0A0A0A0A0A0A0A0A0A0A0A0A0A0AD8
:108900000A0A0A0A0A0A0A0A0A0A0A0A0A0A0A0AC7
:108910000A0A0A0A0A0A0A0A0A0A0A0A0A0A0A0AB7
:108920000A0A0A0A0A0A0A0A0A0A0A0A0A0A0A0AA7
:108930000A0A0A0A0A0A0A0A09090909090909099F
:108940000909090909090909090909090909090997
:108950000909090909090909090909090909090987
:108960000909090909090909090909090909090977
:108970000909090909090909090909090909090967
:108980000909090909090909090909090909090957
:108990000909090909090909090909090909090947
:1089A0000909090909090909090909090909090937
:1089B0000909090909090909090909090909090927
:1089C0000909090909090909090909090909090917
:1089D0000909090909090909090909090909090907
:1089E00009090909090909090909090909090909F7
:1089F00009090909090909090909090909090909E7
:108A000009090909090909090909090909090909D6
:108A100009090909090909090909090909090909C6
:108A200009090909090909090909090909090909B6
:108A300009090909090909090909090909090909A6
:108A40000909090909090909090909090909090996
:108A50000909090909090909090909090909090986
:108A60000909090909090909090909090909090976
:108A7000090909090909090908080808080808086E
:108A80000808080808080808080808080808080866
:108A90000808080808080808080808080808080856
:108AA0000808080808080808080808080808080846
:108AB0000808080808080808080808080808080836
:108AC0000808080808080808080808080808080826
:108AD0000808080808080808080808080808080816
:108AE0000808080808080808080808080808080806
:108AF00008080808080808080808080808080808F6
:108B000008080808080808080808080808080808E5
:108B100008080808080808080808080808080808D5
:108B200008080808080808080808080808080808C5
:108B300008080808080808080808080808080808B5
:108B400008080808080808080808080808080808A5
:108B50000808080808080808080808080808080895
:108B60000808080808080808080808080808080885
:108B70000808080808080808080808080808080875
:108B80000808080808080808080808080808080865
:108B90000808080808080808080808080808080855
:108BA0000808080808080808080808080808080845
:108BB000080808080808080807070707070707073D
:108BC0000707070707070707070707070707070735
:108BD0000707070707070707070707070707070725
:108BE0000707070707070707070707070707070715
:108BF0000707070707070707070707070707070705
:108C000007070707070707070707070707070707F4
:108C100007070707070707070707070707070707E4
:108C200007070707070707070707070707070707D4
:108C300007070707070707070707070707070707C4
:108C400007070707070707070707070707070707B4
:108C500007070707070707070707070707070707A4
:108C60000707070707070707070707070707070794
:108C70000707070707070707070707070707070784
:108C80000707070707070707070707070707070774
:108C90000707070707070707070707070707070764
:108CA0000707070707070707070707070707070754
:108CB0000707070707070707070707070707070744
:108CC0000707070707070707070707070707070734
:108CD0000707070707070707070707070707070724
:108CE0000707070707070707070707070707070714
:108CF000070707070707070706060606060606060C
:108D00000606060606060606060606060606060603
:108D100006060606060606060606060606060606F3
:108D200006060606060606060606060606060606E3
:108D300006060606060606060606060606060606D3
:108D400006060606060606060606060606060606C3
:108D500006060606060606060606060606060606B3
:108D600006060606060606060606060606060606A3
:108D70000606060606060606060606060606060693
:108D80000606060606060606060606060606060683
:108D90000606060606060606060606060606060673
:108DA0000606060606060606060606060606060663
:108DB0000606060606060606060606060606060653
:108DC0000606060606060606060606060606060643
:108DD0000606060606060606060606060606060633
:108DE0000606060606060606060606060606060623
:108DF0000606060606060606060606060606060613
:108E00000606060606060606060606060606060602
:108E100006060606060606060606060606060606F2
:108E200006060606060606060606060606060606E2
:108E300006060606060606060606060606060606D2
:108E400006060606060606060606060606060606C2
:108E500006060606060606060606060606060606B2
:108E600006060606060606060606060606060606A2
:108E70000606060606060606060606060606060692
:108E80000606060606060606060606060606060682
:108E90000606060606060606060606060606060672
:108EA0000606060606060606060606060606060662
:108EB0000606060606060606060606060606060652
:108EC0000606060606060606060606060606060642
:108ED000060606060606060605050505050505053A
:108EE0000505050505050505050505050505050532
:108EF0000505050505050505050505050505050522
:108F00000505050505050505050505050505050511
:108F10000505050505050505050505050505050501
:108F200005050505050505050505050505050505F1
:108F300005050505050505050505050505050505E1
:108F400005050505050505050505050505050505D1
:108F500005050505050505050505050505050505C1
:108F600005050505050505050505050505050505B1
:108F700005050505050505050505050505050505A1
:108F80000505050505050505050505050505050591
:108F90000505050505050505050505050505050581
:108FA0000505050505050505050505050505050571
:108FB0000505050505050505050505050505050561
:108FC0000505050505050505050505050505050551
:108FD0000505050505050505050505050505050541
:108FE0000505050505050505050505050505050531
:108FF0000505050505050505050505050505050521
:109000000505050505050505050505050505050510
:109010000505050505050505040404040404040408
:109020000404040404040404040404040404040400
:1090300004040404040404040404040404040404F0
:1090400004040404040404040404040404040404E0
:1090500004040404040404040404040404040404D0
:1090600004040404040404040404040404040404C0
:1090700004040404040404040404040404040404B0
:1090800004040404040404040404040404040404A0
:109090000404040404040404040404040404040490
:1090A0000404040404040404040404040404040480
:1090B0000404040404040404040404040404040470
:1090C0000404040404040404040404040404040460
:1090D0000404040404040404040404040404040450
:1090E0000404040404040404040404040404040440
:1090F0000404040404040404040404040404040430
:10910000040404040404040404040404040404041F
:10911000040404040404040404040404040404040F
:1091200004040404040404040404040404040404FF
:1091300004040404040404040404040404040404EF
:1091400004040404040404040404040404040404DF
:1091500004040404040404040303030303030303D7
:1091600003030303030303030303030303030303CF
:1091700003030303030303030303030303030303BF
:1091800003030303030303030303030303030303AF
:10919000030303030303030303030303030303039F
:1091A000030303030303030303030303030303038F
:1091B000030303030303030303030303030303037F
:1091C000030303030303030303030303030303036F
:1091D000030303030303030303030303030303035F
:1091E000030303030303030303030303030303034F
:1091F000030303030303030303030303030303033F
:10920000030303030303030303030303030303032E
:10921000030303030303030303030303030303031E
:10922000030303030303030303030303030303030E
:1092300003030303030303030303030303030303FE
:1092400003030303030303030303030303030303EE
:1092500003030303030303030303030303030303DE
:1092600003030303030303030303030303030303CE
:1092700003030303030303030303030303030303BE
:1092800003030303030303030303030303030303AE
:10929000030303030303030303030303030303039E
:1092A000030303030303030303030303030303038E
:1092B000030303030303030303030303030303037E
:1092C000030303030303030303030303030303036E
:1092D000030303030303030303030303030303035E
:1092E000030303030303030303030303030303034E
:1092F000030303030303030303030303030303033E
:10930000030303030303030303030303030303032D
:10931000030303030303030303030303030303031D
:10932000030303030303030303030303030303030D
:109330000303030303030303020202020202020205
:1093400002020202020202020202020202020202FD
:1093500002020202020202020202020202020202ED
:1093600002020202020202020202020202020202DD
:1093700002020202020202020202020202020202CD
:1093800002020202020202020202020202020202BD
:1093900002020202020202020202020202020202AD
:1093A000020202020202020202020202020202029D
:1093B000020202020202020202020202020202028D
:1093C000020202020202020202020202020202027D
:1093D000020202020202020202020202020202026D
:1093E000020202020202020202020202020202025D
:1093F000020202020202020202020202020202024D
:10940000020202020202020202020202020202023C
:10941000020202020202020202020202020202022C
:10942000020202020202020202020202020202021C
:10943000020202020202020202020202020202020C
:1094400002020202020202020202020202020202FC
:1094500002020202020202020202020202020202EC
:1094600002020202020202020202020202020202DC
:1094700002020202020202020101010101010101D4
:1094800001010101010101010101010101010101CC
:1094900001010101010101010101010101010101BC
:1094A00001010101010101010101010101010101AC
:1094B000010101010101010101010101010101019C
:1094C000010101010101010101010101010101018C
:1094D000010101010101010101010101010101017C
:1094E000010101010101010101010101010101016C
:1094F000010101010101010101010101010101015C
:10950000010101010101010101010101010101014B
:10951000010101010101010101010101010101013B
:10952000010101010101010101010101010101012B
:10953000010101010101010101010101010101011B
:10954000010101010101010101010101010101010B
:1095500001010101010101010101010101010101FB
:1095600001010101010101010101010101010101EB
:1095700001010101010101010101010101010101DB
:1095800001010101010101010101010101010101CB
:1095900001010101010101010101010101010101BB
:1095A00001010101010101010101010101010101AB
:1095B000010101010101010101010101010101019B
:1095C000010101010101010101010101010101018B
:1095D000010101010101010101010101010101017B
:1095E000010101010101010101010101010101016B
:1095F000010101010101010101010101010101015B
:10960000010101010101010101010101010101014A
:10961000010101010101010101010101010101013A
:10962000010101010101010101010101010101012A
:10963000010101010101010101010101010101011A
:10964000010101010101010101010101010101010A
:109650000101010101010101000000000000000002
:1096600000000000000000000000000000000000FA
:1096700000000000000000000000000000000000EA
:1096800000000000000000000000000000000000DA
:1096900000000000000000000000000000000000CA
:109A100000000000000000002DE9F84F5FF0000991
:109A20005FF000080026002750245025DFF8E40BE3
:109A300090F90000002840F0298177208046B8F195
:109A4000750F20DB4F2005280BDBDFF8CC1BA02295
:109A500002FB08F21144095C7E2900D1761C001F2C
:109A6000F1E79B2051280BDBDFF8AC1BA02202FBA7
:109A700008F21144095C7E2900D17F1C001FF1E728
:109A8000B8F10108DBE7BE4203DA342005002C0000
:109A900004E0B74202DA6C2005002C0077208046F3
:109AA000B8F1750FC0F2D080A946DFF8700B0068DE
:109AB00081454DDADFF8600BA02101FB08F1084475
:109AC000484440787E2840D1DFF84C0BA02101FBB0
:109AD00008F10844484480787E2836D1DFF8380BF6
:109AE000A02101FB08F1084410F8090021282CD11D
:109AF000DFF8240BA02101FB08F10844484410F8CA
:109B0000010C212821D1DFF8100BA02101FB08F165
:109B10000844484410F8020C212816D1DFF8F80A4E
:109B2000A02101FB08F10844484410F8030C212847
:109B30000BD14846401EDFF8E81A01F80800002063
:109B4000DFF8E01A01F8080002E019F10109ACE7BA
:109B5000A146DFF8D40A006848454CDADFF8B80AB5
:109B6000A02101FB08F10844484410F8010C7E28AC
:109B70003ED1DFF8A40AA02101FB08F108444844C3
:109B800010F8020C7E2833D1DFF88C0AA02101FBEB
:109B900008F1084410F80900212829D1DFF8780AD3
:109BA000A02101FB08F108444844407821281FD136
:109BB000DFF8640AA02101FB08F1084448448078DA
:109BC000212815D1DFF8500AA02101FB08F1084433
:109BD0004844C07821280BD119F10100DFF84C1A54
:109BE00001F808000020DFF8481A01F8080002E038
:109BF000B9F10109ADE7DFF8280A10F80800DFF82D
:109C0000341AD8F10002114481F87700DFF81C0AF9
:109C100010F80800DFF8201AD8F10002114481F88A
:109C20007700DFF8FC0910F80800DFF8001A11F8D7
:109C300008100818022190FBF1F0DFF8001A01F873
:109C40000800B8F101082BE7DFF8EC090078DFF82D
:109C5000E81949780818DFF8E019897840180321D5
:109C600090FBF1F0DFF8D8190860DFF8C809007838
:109C7000DFF8C01949780818DFF8B8198978401852
:109C8000032190FBF1F0DFF8201C0860DFF8840965
:109C900090F90000012840F0C782DFF8A8090068A9
:109CA000DFF8A4190978884231DA77208046B8F1C4
:109CB000750F20DB4F2005280BDBDFF85C19A02295
:109CC00002FB08F21144095C7E2900D1761C001FBA
:109CD000F1E79B2051280BDBDFF83C19A02202FBA7
:109CE00008F21144095C7E2900D17F1C001FF1E7B6
:109CF000B8F10108DBE7BE4203DA342005002C008E
:109D00001FE0B7421DDA6C2005002C0019E0DFF8D7
:109D10009C0B006851280ADBDFF8900B00681D38A7
:109D20000400DFF8880B00681930050009E0DFF84F
:109D30007C0B006819380400DFF8700B00681D30D8
:109D4000050077208046B8F1750FC0F25F82A94602
:109D5000DFF8C8080068814543DADFF8BC08A021B5
:109D600001FB08F1084410F809007E2836D1DFF81D
:109D7000A808A02101FB08F10844484440787E2847
:109D80002CD1DFF89408A02101FB08F108444844D5
:109D900010F8010C212821D1DFF87C08A02101FB5B
:109DA00008F10844484410F8020C212816D1DFF8C5
:109DB0006808A02101FB08F10844484410F80C0C85
:109DC00021280BD14846401EDFF8541801F808003E
:109DD0000020DFF8501801F8080002E019F101092D
:109DE000B6E7A146DFF840080068484541DADFF8E9
:109DF0002808A02101FB08F1084410F809007E287A
:109E000034D1DFF81408A02101FB08F108444844CC
:109E100010F8010C7E2829D1DFF8FC07A02101FBF6
:109E200008F108444844407821281FD1DFF8E807AA
:109E3000A02101FB08F1084448448078212815D16D
:109E4000DFF8D407A02101FB08F108444844007B57
:109E500021280BD119F10100DFF8D01701F8080013
:109E60000020DFF8CC1701F8080002E0B9F1010981
:109E7000B8E7B8F1770F31DADFF8C8070068DFF824
:109E8000C8170978884229DB5FF00A0ADFF89007D3
:109E900040444178DFF8880710F8080001F095FD8C
:109EA000824507DADFF8780740444078DFF870171A
:109EB00001F80800DFF8740740444178DFF86C07C8
:109EC00010F8080001F081FD824507DADFF85C0731
:109ED00040444078DFF8541701F80800DFF86407C1
:109EE0000068DFF8641709788842C0F26681DFF8FD
:109EF0003C0710F80800DFF830170968884240F086
:109F0000AA80DFF81407A02101FB08F10844DFF85C
:109F10001C1711F80810405C7E2840F09C80DFF888
:109F20000C0710F808A05FFA8AFABAF1500F80F215
:109F30009280DFF8E406A02101FB08F108445FFAF3
:109F40008AFA10F80A00212840F08280DFF8C8065B
:109F5000A02101FB08F108445FFA8AFA50444078D6
:109F6000212875D1DFF8B006A02101FB08F10844D3
:109F70005FFA8AFA504410F8010C7E2868D1DFF8A5
:109F80009806A02101FB08F108445FFA8AFA5044C0
:109F900010F8020C7E285BD1D3465FFA8BFBBBF135
:109FA000500F55DADFF87006A02101FB08F10844D4
:109FB0005FFA8BFB10F80B007E2846D1DFF85806BD
:109FC000A02101FB08F108445FFA8BFB584440785C
:109FD0007E283AD1DFF84006A02101FB08F10844B1
:109FE0005FFA8BFB584410F8010C21282DD1DFF8C3
:109FF0002806A02101FB08F108445FFA8BFB5844B6
:10A0000010F8020C212820D15FFA8AFA51465FFA33
:10A010008BFB584601F0D9FC142816DAB8F1770FFB
:10A0200013DADFF8F405A02101FB08F108445FFA18
:10A030008AFA504490F8A0007E2806D1DFF8EC059B
:10A0400000F808A05FF0500A02E01BF1010BA4E742
:10A050001AF1010A67E7DFF8C80510F80800DFF811
:10A06000BC150968884240F0A880DFF8AC05A02143
:10A0700001FB08F10844DFF8A81511F80810405C4E
:10A080007E2840F09A80DFF8980510F808A05FFA63
:10A090008AFABAF1510FC0F29080DFF87C05A02156
:10A0A00001FB08F108445FFA8AFA10F80A00212837
:10A0B00040F08080DFF86005A02101FB08F1084432
:10A0C0005FFA8AFA504410F8010C212872D1DFF8A7
:10A0D0004805A02101FB08F108445FFA8AFA5044C0
:10A0E00040787E2866D1DFF83005A02101FB08F119
:10A0F00008445FFA8AFA504480787E285AD1D346C1
:10A100005FFA8BFBBBF1510F54DBDFF80C05A0218C
:10A1100001FB08F108445FFA8BFB10F80B007E2866
:10A1200045D1DFF8F404A02101FB08F108445FFAEF
:10A130008BFB584410F8010C7E2838D1DFF8D80486
:10A14000A02101FB08F108445FFA8BFB58444078DA
:10A1500021282CD1DFF8C004A02101FB08F108441C
:10A160005FFA8BFB58448078212820D15FFA8AFA65
:10A1700051465FFA8BFB584601F027FC142816DA8B
:10A18000B8F1770F13DADFF89004A02101FB08F192
:10A1900008445FFA8AFA504490F8A0007E2806D15D
:10A1A000DFF87C0400F808A05FF0500A02E0BBF181
:10A1B000010BA5E7BAF1010A69E7DFF8640410F8BA
:10A1C0000800DFF87014D8F10002114481F877001C
:10A1D000DFF8580410F80800DFF85C14D8F100022A
:10A1E000114481F87700DFF8380410F80800DFF830
:10A1F0003C1411F808100818022190FBF1F0DFF868
:10A200003C1401F80800B8F101089CE5DFF81C04D3
:10A2100090F87500DFF828140860DFF8040490F85F
:10A220007500DFF884160860BDE8F18F2DE9F0476E
:10A23000002400250A26DFF8DC0390F9000000283E
:10A2400040F00281DFF8E003D0F80090DFF8CC03A3
:10A25000D0F800A074200500DFF8980A0068854255
:10A26000C0F2F280DFF8C0030068DFF8D413096899
:10A27000891B884204DADFF8C8030068801B814626
:10A28000DFF8BC0300683018DFF8901309688842D3
:10A2900005DADFF8AC0300683018070003E0DFF8E8
:10A2A0007C0300680700FFB23C005FFA89F9A14512
:10A2B0003DDADFF86403A02101FB05F10844005DED
:10A2C0007E2832D1DFF85003A02101FB05F10844BC
:10A2D000204410F8010C7E2827D1DFF83C03A02190
:10A2E00001FB05F10844204410F8020C7E281CD123
:10A2F000DFF82403A02101FB05F108442044407845
:10A30000212812D1DFF81003A02101FB05F1084438
:10A3100020448078212808D1A01CDFF8101348556C
:10A320000020DFF80C13485501E0641EBDE7DFF89C
:10A33000FC02405DDFF808130860BC48405DBA4984
:10A340000968884208D12800C0B200F07FF9B749F7
:10A350004855C0B2BA490860DFF84C0500683018AB
:10A36000AE490968884205DADFF83C050068301814
:10A37000824602E0A94800688246AB480068DFF8E0
:10A3800028150968891B884205DADFF81C05006872
:10A39000801B804602E0A448006880465FFA88F887
:10A3A00044465FFA8AFA544537DA9B48A02101FBFC
:10A3B00005F10844005D7E282DD19748A02101FBBE
:10A3C00005F10844204440787E2824D19248A021F9
:10A3D00001FB05F10844204480787E281BD18E487B
:10A3E000A02101FB05F10844204410F8010C2128AC
:10A3F00011D18948A02101FB05F10844204410F83F
:10A40000020C212807D12000801E854948550020D4
:10A410008449485501E0641CC3E78148405DDFF88A
:10A42000881408607E48405D7C490968884209D1EB
:10A430002800C0B200F03CFA79494855C0B2DFF8B4
:10A44000681408606D1E07E7BDE8F0872DE9F84342
:10A4500000240025002600275FF045085FF07409FE
:10A46000B9F10A0FC0F2D480714810F80900002831
:10A4700010D16C4810F8090000280BD16B4810F877
:10A480000900674911F809100818022190FBF1F042
:10A490008046A9E0664810F8090000284AD06148C3
:10A4A00010F80900002845D0614810F8090001287B
:10A4B0002ED15C4810F80900012829D15F48484492
:10A4C00040785E494944897851FA80F05B494944B3
:10A4D000C97850FA81F0032190FBF1F080467FF0BB
:10A4E00013024146484601F00BFB504901F80900B0
:10A4F000C0B25349086014224146484601F000FBAF
:10A50000474901F80900C0B2DFF89C1308606BE00E
:10A510004A484844C07849494944897851FA80F00A
:10A5200046494944497850FA81F0032190FBF1F003
:10A53000804659E03E4810F80900002828D13948E3
:10A5400010F80900002823D0DFF8EC0A0078401C3E
:10A55000DFF8E41A0870334848444078012809D1EC
:10A56000334848444078012804D13448484440786E
:10A57000804639E03148484440782C4911F80910A8
:10A5800051FA80F1294848444078091A88462BE05E
:10A59000274810F80900002826D0224810F80900A2
:10A5A000002821D1DFF8940A0078401CDFF88C1ACB
:10A5B00008701C4848444078012809D11C48484488
:10A5C0004078012804D11D484844407880460BE07B
:10A5D0001A4848444178124848444078091A1048BB
:10A5E00010F80900081880460C480068404502DA57
:10A5F0000A48006880460C480068804502DA0A482C
:10A60000006880460D4800F80980B9F1010927E784
:10A61000BDE8F183161000209C29FF1F3C04FF1F9A
:10A62000E075FF1FE076FF1F3804FF1FF074FF1F67
:10A630006876FF1F6476FF1F6076FF1F6875FF1F37
:10A640005876FF1F7077FF1F710FFF1FF0B40100D6
:10A65000DFF8EC0990F90000002840F02381DFF8D2
:10A66000E40990F90000172800F07F80DFF8D40992
:10A6700090F90000112878D0DFF8CC090468DFF8E1
:10A68000CC0905681626DFF8C0090068DFF8C07934
:10A69000C9B20F447F78BF1BB84206DADFF8B009B1
:10A6A000C9B208444078801B0400DFF8A409C9B28D
:10A6B0000844407856FA80F0DFF890793F68B84255
:10A6C00007DADFF88C09C9B2084440783018030073
:10A6D00003E0DFF8780900680300DBB21A00E4B297
:10A6E000944242DADFF86C09C9B2A02707FB01F7F0
:10A6F0003844805C7E2836D1DFF85809C9B2A027DB
:10A7000007FB01F73844104410F8010C7E282AD1C9
:10A71000DFF84009C9B2A02707FB01F7384410440D
:10A7200010F8020C7E281ED1DFF82809C9B2A02734
:10A7300007FB01F7384410444078212813D1DFF893
:10A740001409C9B2A02707FB01F7384410448078E8
:10A75000212808D10020DFF80079C9B27854921C72
:10A760001000C0B29EE0521EB9E7DFF8E408C9B29B
:10A77000084440784E2867DADFF8E008C9B2084498
:10A780004078532860DBDFF8BC0890F900001728F8
:10A790005AD0DFF8B00890F90000112854D05020AA
:10A7A0000200DFF8A408006890424DDADFF8A40840
:10A7B000C9B2A02303FB01F31844805C7E2841D179
:10A7C000DFF89008C9B2A02303FB01F3184410443A
:10A7D00010F8010C7E2835D1DFF87808C9B2A02323
:10A7E00003FB01F31844104410F8020C7E2829D111
:10A7F000DFF86008C9B2A02303FB01F3184410443A
:10A80000407821281ED1DFF84C08C9B2A02303FBF1
:10A8100001F3184410448078212813D1DFF834085C
:10A82000C9B2A02303FB01F318441044C0782128C7
:10A8300008D10020DFF82038C9B25854921C10000B
:10A84000C0B22FE0521EACE7DFF80808C9B2A0235F
:10A8500003FB01F31844DFF8F837C9B20B445B7807
:10A86000C05C212804D10120DFF8EC37C9B258546C
:10A87000DFF8E007C9B2A02303FB01F31844DFF8B7
:10A88000D037C9B20B445B78C05C7E2804D102206B
:10A89000DFF8C437C9B25854DFF8B407C9B2084466
:10A8A0004078FFE7F0BC70475C76FF1F6C77FF1FB6
:10A8B00070B40100DFF894070368DFF8840790F9AB
:10A8C0000000002840F02681DFF8780790F90000AA
:10A8D000172800F08380DFF86C0790F9000011283A
:10A8E0007CD01625DFF87407C9B20844407855FAC1
:10A8F00080F0DFF858673668B04208DADFF85C07A6
:10A90000C9B20844407855FA80F0030003E0DFF84C
:10A910003C0700680300DFF830070068DFF83C6799
:10A92000C9B20E447678761BB04207DADFF82C07FE
:10A93000C9B208444078401B020003E0DFF8080772
:10A940000068020010000400E4B29C4246DADFF81E
:10A950000407C9B2A02606FB01F63044E4B2005D4C
:10A960007E2839D1DFF8EC06C9B2A02606FB01F635
:10A970003044E4B2204440787E282DD1DFF8D4065C
:10A98000C9B2A02606FB01F63044E4B22044807828
:10A990007E2821D1DFF8BC06C9B2A02606FB01F64D
:10A9A0003044E4B2204410F8010C212814D1DFF81F
:10A9B000A406C9B2A02606FB01F63044E4B2204446
:10A9C00010F8020C212807D10020DFF8EC6AC9B288
:10A9D0007054A01EC0B2CAE0641CB5E7DFF8700670
:10A9E000C9B2084440784E2866DADFF87006C9B26A
:10A9F0000844407853285FDBDFF8480690F90000F0
:10AA0000172859D0DFF83C0690F90000112853D0E0
:10AA10005020DFF838562D68A8424DDADFF834565A
:10AA2000C9B2A02606FB01F635442D5C7E2D41D12E
:10AA3000DFF82056C9B2A02606FB01F635440544CE
:10AA40006D787E2D36D1DFF80C56C9B2A02606FBF4
:10AA500001F635440544AD787E2D2BD1DFF8F45551
:10AA6000C9B2A02606FB01F63544054415F8015C81
:10AA7000212D1FD1DFF8DC55C9B2A02606FB01F657
:10AA80003544054415F8025C212D13D1DFF8C45577
:10AA9000C9B2A02606FB01F63544054415F8035C4F
:10AAA000212D07D10025DFF8106AC9B27554801E28
:10AAB000C0B25CE0401CACE7DFF89805C9B2A02545
:10AAC00005FB01F52844DFF89455C9B20D446D78B3
:10AAD000405D212804D10120DFF8DC59C9B2685457
:10AAE000DFF87005C9B2A02505FB01F52844DFF8A1
:10AAF0006C55C9B20D446D78405D7E2804D10220AA
:10AB0000DFF8B459C9B26854DFF85005C9B2084437
:10AB100040782CE0DFF83C05C9B2A02505FB01F523
:10AB20002844DFF83855C9B20D446D78405D2128BE
:10AB300004D10120DFF88059C9B26854DFF8140548
:10AB4000C9B2A02505FB01F52844DFF81055C9B2AC
:10AB50000D446D78405D7E2804D10220DFF85859FD
:10AB6000C9B26854DFF8F404C9B20844407870BC34
:10AB70007047DFF8C4090068DFF8C0190968884227
:10AB800040D150205B49096888423BDBDFF8C8149C
:10AB9000095C022912D1DFF8C014014411F8011C2C
:10ABA00002290BD1DFF8B014014411F8021C02296C
:10ABB00004D1401CDFF88019086023E050281FDA18
:10ABC000DFF88C14095C97291ADBDFF88414014440
:10ABD00049788D2914DBDFF8781401444978DFF8CF
:10ABE0007024125C91420BD2DFF84C190968DFF82F
:10ABF0004C291268914203D1DFF83C19086001E04A
:10AC0000401EBFE7DFF88C0A0068DFF88C1A09687D
:10AC1000884240D150203749096888423BDBDFF841
:10AC20009818095C022912D1DFF88C18014411F838
:10AC3000011C02290BD1DFF88018014411F8021C15
:10AC4000022904D1401CDFF84C1A086023E0502888
:10AC50001FDADFF80814095C0A291ADADFF8FC1396
:10AC600001444978142914DADFF8F013095CDFF89D
:10AC7000EC230244527891420BD2DFF8181A09688B
:10AC8000DFF8142A1268914203D1DFF8081A08602D
:10AC900001E0401EBFE7DFF8FC090068DFF8981804
:10ACA0000968884206DADFF8EC090068DFF8741AF0
:10ACB000086005E0DFF880080068DFF8681A0860BF
:10ACC000DFF8800390F90000112805D1DFF868084B
:10ACD0000068DFF8501A0860DFF8680390F9000098
:10ACE000172805D1DFF8AC090068DFF8381A0860CA
:10ACF000704700004C04FF1F10B5002400F014FD45
:10AD00002000C0B200F0ACF904002000C0B200F096
:10AD100007F8040000F0C2FC00F012FC10BD0000B7
:10AD2000F8B52DED028B82B0040000208DF80200F2
:10AD300000208DF8000000208DF801004FF4C87548
:10AD4000E4B2002C40F06E81BE4890F9000000286B
:10AD500005D0BC4890F90000022840F063816E20C5
:10AD60008DF800009DF80000DFF8B81909688842E6
:10AD7000C0F2CD80B8489DF80010405C00281BD17F
:10AD8000B5489DF8001008444078002814D1DFF839
:10AD900028079DF80010405C01280DD1DFF8180746
:10ADA0009DF8001008444078012805D19DF8010065
:10ADB000401C8DF8010002E000208DF801009DF894
:10ADC00001000628C0F29D809DF80000A049C0B295
:10ADD000084410F8010C9E499DF80020895C8842C7
:10ADE00080F08F809DF800009949C0B2084410F8A7
:10ADF000020C97499DF80020114411F8011C88426B
:10AE000080F07F809DF800009149C0B2084410F89E
:10AE1000030C8F499DF80020114411F8021C884250
:10AE20006FD29DF800008A49C0B2084410F8040CA3
:10AE300087499DF80020114411F8031C884260D214
:10AE40009DF800008249C0B2084410F8050C804902
:10AE50009DF80020114411F8041C884251D29DF83D
:10AE60000000B0F10A02D2B29DF80010784800F05C
:10AE700025FDDFF8BC0980ED000A9DF80020521C7A
:10AE8000D2B29DF800100A31C9B2714800F016FD27
:10AE9000DFF8A00980ED000ADFF8940990ED000AC0
:10AEA000DFED630AB4EE600AF1EE10FA29DBDFF899
:10AEB000840990ED000AB5EE400AF1EE10FA20D5B3
:10AEC000DFF8700990ED000ADFED5A0AB4EE600A6F
:10AED000F1EE10FA15DBDFF8E0059DF800100844EC
:10AEE00010F8010C01280CD1DFF8CC059DF80010FA
:10AEF000084410F8020C012803D101208DF802004B
:10AF000005E09DF80000401E8DF800002AE79DF83E
:10AF10000200012840F0868000208DF80200042005
:10AF2000484908709DF800000A21494AC0B21044FF
:10AF3000827A47489DF80030C05C121A91FBF2F00B
:10AF400000EE100AB8EEC08A9DF800000930060035
:10AF5000DFF8E4080068B04256DA9DF80000C0B29D
:10AF6000301A0A3800EE100AB8EEC00ADFF8C4083A
:10AF7000D0ED000A36489DF800100844807A01EEB2
:10AF8000100AB8EE411A00EE201ABDEEC10A10EE0A
:10AF9000107A2E480068B84202DA2C480068070090
:10AFA0002B48875514222A48815D300000F0A8FD07
:10AFB000DFF88818885528222548815D300000F088
:10AFC0009FFD2649885521480068DFF87018895D83
:10AFD000884204DA1D480068DFF8601888551B486D
:10AFE00000681E49895D884203DA184800681B49D9
:10AFF00088550020DFF8C0148855DFF8BC04805D58
:10B0000015498855761EA3E7DFF82C080068DFF89D
:10B0100084160860DFF87C060068DFF81C150860FD
:10B02000012000E0002002B0BDEC028BF2BD000068
:10B03000CDCC4C3DFFFF9FC01E1000201D100020F6
:10B04000161000201A1000203804FF1F3C04FF1FB8
:10B05000F074FF1F9C29FF1F6876FF1FE075FF1F1C
:10B06000F8B52DED028B82B0040000208DF80100B0
:10B0700000208DF8020000208DF800004FF4C87504
:10B08000E4B2002C40F0A381DFF8B80790F900008B
:10B09000002806D0DFF8AC0790F90000022840F045
:10B0A00096816C20DFF8A0170860DFF89C07006825
:10B0B000DFF8701609688842C0F2EF80DFF8F80305
:10B0C000DFF884170968405C00281FD1DFF8E80327
:10B0D000DFF87417096808444078002816D1DFF8B3
:10B0E0006C07DFF864170968405C01280ED1DFF8AF
:10B0F0005C07DFF85417096808444078012805D137
:10B100009DF80000401C8DF8000002E000208DF842
:10B1100000009DF800000628C0F2B780DFF8300775
:10B12000DFF824170968405CDFF82417DFF81827D8
:10B130001268114411F8011C884280F0A680DFF8E3
:10B140001007DFF804170968084410F8010CDFF84D
:10B150000017DFF8F4261268114411F8021C884227
:10B1600080F09380DFF8E806DFF8DC160968084411
:10B1700010F8020CDFF8D816DFF8CC26126811445C
:10B1800011F8031C884280F08080DFF8C406DFF8E5
:10B19000B8160968084410F8030CDFF8B416DFF895
:10B1A000A8261268114411F8041C88426DD2DFF8F9
:10B1B000A006DFF894160968084410F8040CDFF8BC
:10B1C0009016DFF884261268114411F8051C884295
:10B1D0005BD2DFF874060068B0F10A02D2B2DFF881
:10B1E000680600680100C9B2DFF8640600F066FB7B
:10B1F000DFF83C0680ED000ADFF84C060268521CBE
:10B20000D2B2DFF8440601680A31C9B2DFF840065D
:10B2100000F054FBDFF81C0680ED000ADFF8100692
:10B2200090ED000ADFED6C0AB4EE600AF1EE10FA60
:10B230002BD5DFF8000690ED000AB5EE400AF1EEDE
:10B2400010FA22DDDFF8EC0590ED000AF1EE040AB9
:10B25000B4EE600AF1EE10FA17D5DFF8F005DFF86A
:10B26000E8150968084410F8010C01280DD1DFF831
:10B27000DC05DFF8D4150968084410F8020C012831
:10B2800003D101208DF8010007E0DFF8BC0500685C
:10B29000401EDFF8B415086007E79DF8010001289B
:10B2A00040F0958000208DF801000320DFF8941510
:10B2B00008700A21DFF89805DFF88C251268104421
:10B2C000827ADFF88C05DFF880351B68C05C121AC3
:10B2D00091FBF2F000EE100AB8EEC08ADFF86805C4
:10B2E000006809300600DFF850050068B04262DAF5
:10B2F000DFF854050068301A0A3800EE100AB8EE7C
:10B30000C00ADFF83005D0ED000ADFF84405DFF8A9
:10B31000381509680844807A01EE100AB8EE411A1F
:10B3200000EE201ABDEEC10A10EE107ADFF82405F7
:10B330000068874203DADFF81C0500680700DFF8C1
:10B34000100587557FF01302DFF80405815D30009A
:10B3500000F0D6FBDFF8E41488557FF02702DFF811
:10B36000F004815D300000F0CBFB54498855DFF8D4
:10B37000CC04805DDFF8DC140968884205DADFF868
:10B38000D4040068DFF8B41488554C48805DDFF8B9
:10B39000C4140968884204DADFF8B8040068474931
:10B3A00088550020444988554348805DDFF89C1447
:10B3B0008855761E97E7DFF880040068B549086075
:10B3C000B4480068DFF8BC140860012000E00020E9
:10B3D00002B0BDEC028BF2BDCCCC4CBD00209FED89
:10B3E000550ADFED540A0022DFF86C341A70DFF8DA
:10B3F0006C241268DFF82C331B689A4204DADFF8F9
:10B4000024231268110003E0DFF8502412681100B1
:10B410007722100088422DDBDFF83024125C012AED
:10B4200003D1254A125C012A22D0DFF82024125CC5
:10B43000022A03D1204A125C022A19D0DFF8FC2329
:10B44000125C453A01EE102AB8EEC11A0A2290FBAE
:10B45000F2F2DFF80C3403EB8202D2ED001A41EE77
:10B46000210ADFF8F4231278521CDFF8EC331A704B
:10B47000401ECFE7DFF8E023127801EE102AB8EE85
:10B48000411A80EE811AB0EE410A9FED7F1AB4EEA8
:10B49000410AF1EE10FA03DB9FED7C1AB0EE410A8F
:10B4A0009FED9E1AB4EE410AF1EE10FA03D59FED1E
:10B4B0009B1AB0EE410A7047E076FF1FF074FF1F41
:10B4C00080B5DFF8A00390F90000002830D1DFF844
:10B4D0009803006803282BD1DFF8900390ED000A51
:10B4E000DFED6B0AB4EE600AF1EE10FA20DBDFF854
:10B4F0008003C0688047DFF8780390F93A0001289C
:10B5000012D10220DFF86C1308700420DFF8581302
:10B510000860DFF864030068DFF86C13086000213E
:10B52000002000F088FB03E00121002000F083FBF5
:10B5300001BD0000000000004404FF1F5004FF1F75
:10B5400070B5012428252226E4B2DFF84003006804
:10B55000844217D273480068F6B2B04212DB022070
:10B56000DFF818130870DFF8180390ED000AB5EE45
:10B57000400AF1EE10FA05D1DFF80403DFF8EC120F
:10B5800009680160DFF8F80290ED000AB5EE400AA4
:10B59000F1EE10FA18D0DFF8D40290ED000ADFF8CF
:10B5A000E002D0ED000A30EE600ADFED5D0AB4EE95
:10B5B000600AF1EE10FA07DB0020DFF8C012087015
:10B5C0000020DFF8C8120860DFF8C40290ED000A1E
:10B5D000B5EE400AF1EE10FA13D5DFF8A8020168C3
:10B5E000D1F17401DFF8AC02007800F0EEF9042824
:10B5F00007DA0020DFF8941208600320DFF87C12DD
:10B600000870DFF88C0290ED000AB5EE400AF1EE0A
:10B6100010FA12DD1F480168D1F17401DFF87802D9
:10B62000007800F0D2F9042807DA0320DFF84C1282
:10B6300008700020DFF854120860DFF8080290F963
:10B64000000001280BD0DFF8FC0190F9000003286E
:10B6500005D0DFF8F00190F90000042803D10020A4
:10B66000DFF828120860DFF8340290ED000ADFED01
:10B670006E0AB4EE600AF1EE10FA03DB0020DFF888
:10B680000C12086070BD00000100584200005842D2
:10B69000010048434804FF1F5404FF1F0A21C9B298
:10B6A00000EE101AB8EE400ADFF8F001D0ED000A03
:10B6B000F4EE400AF1EE10FA26D51A4802685E4808
:10B6C0000068121A022A1FDA0120DFF8B021107078
:10B6D000DFF8D0010268DFF8D0010068121AB2F575
:10B6E000A87F19DBDFF8BC010068DFF8BC2110601F
:10B6F000DFF898010068401CDFF8902110600020FE
:10B70000DFF89C21106007E00020DFF87021107046
:10B710000020DFF87821106070470000000058C258
:10B72000010070424004FF1F00220021DFF87C016D
:10B7300090ED000AB5EE400AF1EE10FA19D0DFF8EC
:10B740006C0190ED000AB5EE400AF1EE10FA47D018
:10B75000DFF8180190ED000ADFF85001D0ED000A83
:10B7600030EE600ADFED310AB4EE600AF1EE10FA55
:10B7700036DB7420C0B251280DDB344BC0B21B5CE9
:10B78000012B06D1DFF82831C0B21B5C012B00D1A0
:10B79000521C401EEEE7D2B21E2A21DB0220294BAA
:10B7A0001870DFF80801DFF8C4301B680360DFF8A9
:10B7B00004010078401CDFF8FC301870DFF8F4005A
:10B7C000007802280CD1DFF8F000DFF8A0301B6809
:10B7D00003600020DFF8DC3018700020194B18706F
:10B7E000DFF8D40090ED000AB5EE400AF1EE10FA51
:10B7F00019D0164890F87400002814D1DFF8B00072
:10B8000090F8740000280ED1DFF8A0000023036038
:10B81000DFF8A400002303600020DFF898301870E0
:10B820000020084B18707047010018420100704258
:10B830008C77FF1F9077FF1F4C04FF1F6875FF1F59
:10B84000704700001A1000208877FF1F6876FF1FDE
:10B85000E075FF1F3804FF1F1F1000205804FF1F52
:10B86000A474FF1F16100020CC11FF1F4C0F0020E6
:10B870006811FF1F281000205C77FF1F2210002096
:10B88000580F00204404FF1F6077FF1F6477FF1FDD
:10B890007477FF1F1D1000201E1000208077FF1FEF
:10B8A0006877FF1F640F0020680F00205C0F0020E6
:10B8B000E076FF1F20100020600F00202DE9F043EC
:10B8C000DFED3C0A9FED3B1A9FED3A0A002300246E
:10B8D000002500260027DFED371A5FF0000C5FF02F
:10B8E000000E5FF00008C9B2D2B2B1EB020902EE5D
:10B8F000109AB8EEC22AF0EE421A5FF00009CE4666
:10B900005FF00009C846C9B28C4602EE10CAB8EE14
:10B91000C22AC9B202EE901AF8EE622A72EEE12A49
:10B92000F4EE422AF1EE10FA1DD510F80C90C8463C
:10B93000E146CE4613FA8EF314FA88F41FFA8EFE0F
:10B940001FFA8EFE0EFB0E661FFA88F81FFA88F8A3
:10B9500008FB08771FFA8EFE1FFA88F808FB0E55C1
:10B96000BCF1010CD1E702EE103AB8EE422A82EEA9
:10B97000212AF0EE420A02EE104AB8EE422A82EE86
:10B98000212AB0EE421A02EE105AB8EE422A61EEB7
:10B99000A02A02EEC12A02EE906AF8EE622A21EE97
:10B9A000A03A43EE602A82EE222AB0EE420ABDE8B7
:10B9B000F083000000000000B5EE400AF1EE10FA3E
:10B9C00002D5B1EE400AFFE770470200914202D271
:10B9D000531A180001E08B1A1800704730B5ADF506
:10B9E000164D81B00DF5964079494FF4964200F01E
:10B9F0006BF9684677494FF4964200F065F9DFED40
:10BA00006F2AB0EE620ADFED6E2AF0EE620ADFED19
:10BA10006D2AB0EE621AF2EE002AF0EE621ADFED45
:10BA20006A2AB0EE622A6C4800210160F0EE002A1A
:10BA3000B0EE403A00EEE23A684880ED003AF0EEAF
:10BA4000002AB0EE403A01EEE23A6448D0ED002A16
:10BA5000C2EE832ABFEE003A72EE832A6048C0ED40
:10BA6000002A5F48D0ED002AB0EE613A01EEA23A1A
:10BA700073EE602A5B48C0ED002A5948D0ED002AD9
:10BA8000B0EE423A02EE223A73EE412A5648C0ED39
:10BA9000002A5648C0ED000A554880ED001A0020E3
:10BAA0000500EDB2782D27DA00200400E4B2A02CC6
:10BAB00020DA5048EDB2A02101FB05F10844E4B2C0
:10BAC0006946EDB2A022E4B202FB0542895C015551
:10BAD0004948EDB2A02101FB05F10844E4B20DF59F
:10BAE0009641EDB2A022E4B202FB0542895C015509
:10BAF000641CDBE76D1CD4E70DF5164D01B030BDBD
:10BB000070B404003C4BA02505FB04F52B445B5CA2
:10BB100052FA83F5374BA02606FB04F633445E5CED
:10BB20005FF0FF335E43B5F1670300EE103AB8EE05
:10BB3000C00A2A4BD3ED000A20EE200ADFED230ACB
:10BB400080EE200A16F1340300EE903AF8EEE00A97
:10BB5000244B93ED001A60EE810A9FED1C1AC0EE93
:10BB6000810A30EE200A214BD3ED000A30EE200A84
:10BB700016F1340300EE903AF8EEE00A184B93ED1C
:10BB8000001A60EE810A9FED111AC0EE810AB7EE2D
:10BB9000001A70EE810A80EE200ABDEEC00A10EE97
:10BBA000103A5B1C1800A02801DB9F231800002816
:10BBB00001D500231800C0B270BC704700001F43BD
:10BBC0000000404200004C420000DE4200004842BB
:10BBD00018040000184F0000DC74FF1FD474FF1F0E
:10BBE000EC74FF1FD874FF1FE074FF1FE474FF1F85
:10BBF000E874FF1FF0C3FF1FF078FF1F10B50400AB
:10BC000064B2042C07DA01220121264864B2005DE7
:10BC100000F0AAF80EE0042004002000441E40B208
:10BC2000002807D0012201211E4864B2005D00F007
:10BC30009BF8F2E710BD38B504000D0064B2042C87
:10BC400007DA2900C9B2174864B2005D00F0EBF8CA
:10BC50000EE0042004002000441E40B2002807D05B
:10BC60002900C9B20F4864B2005D00F0DCF8F2E7C9
:10BC700031BD10B5040064B2042C05DA094864B281
:10BC8000005D00F00EF90CE0042004002000441ECA
:10BC900040B2002805D0034864B2005D00F001F90D
:10BCA000F4E710BD2C0CFF1F62B38B0708D0521EA7
:10BCB00011F8013B00F8013B00F024808B07F6D11E
:10BCC000830740F0208000BF103A07D330B4B1E8BA
:10BCD0003810103AA0E83810F9D230BC530724BF0E
:10BCE000B1E80810A0E8081044BF51F8043B40F840
:10BCF000043BD20724BF31F8022B20F8022B44BFAB
:10BD00000B7803707047121F17D35B0009D151F8ED
:10BD1000043B20F8023B1B0C121F20F8023BF6D21A
:10BD20000BE051F8043B00F8013B1B0A20F8023BF2
:10BD30001B0C121F00F8013BF3D238BF121D521E1C
:10BD400024BF11F8013B00F8013BF8D87047826826
:10BD5000521C8260426832B10268531C0360117049
:10BD60004168491E4160704770B506000C0015001F
:10BD70004FF480713000C0B200F0D6F864B2002CED
:10BD800013D16748F6B23100491150F821106448C8
:10BD9000F6B23200521150F822004269012316F027
:10BDA0001F0083409A434A613CE05D48F6B231008F
:10BDB000491150F821105A48F6B23200521150F889
:10BDC00022004269012316F01F0083401A434A6192
:10BDD000EDB2002D13D15248F6B23100491150F89E
:10BDE00021000168012216F01F00824091434C4857
:10BDF000F6B23200521150F82200016012E04848B9
:10BE0000F6B23100491150F821000168012216F004
:10BE10001F00824011434248F6B23200521150F8DE
:10BE20002200016070BD38B505000C003C48EDB241
:10BE30002900491150F82100406915F01F01C84040
:10BE4000C00703D46321374800F0E1F8E4B2002CC6
:10BE500013D13348EDB22900491150F8210001688F
:10BE6000012215F01F00824091432D48EDB22A00B7
:10BE7000521150F82200016012E02948EDB2290069
:10BE8000491150F821000168012215F01F0082407D
:10BE900011432348EDB22A00521150F822000160EC
:10BEA00031BD10B504001E48E4B22100491150F81C
:10BEB0002100406914F01F01C840C00703D47B2152
:10BEC000184800F0A4F81648E4B22100491150F8CF
:10BED0002110012214F01F008240CA6010BD10B56D
:10BEE00004000F48E4B22100491150F821004069D4
:10BEF00014F01F01C840C00703D58C21094800F089
:10BF000086F80748E4B22100491150F82100006981
:10BF100014F01F04E04010F0010010BD000000000C
:10BF2000740BFF1FA47F010010B42C4A13684FF458
:10BF300000740200D2B2520994402343274A13608E
:10BF4000274AC0B203005B1152F82330012410F0DD
:10BF50001F029440C3F8A040214AC0B203005B1105
:10BF600052F82320C0B210F01F0342F8231010BC77
:10BF7000704710B4194A13684FF400740200D2B22B
:10BF8000520994402343154A1360154AC0B2030076
:10BF90005B1152F82330012410F01F029440C3F8C3
:10BFA000A04031F4E0610E4AC0B203005B1152F8C8
:10BFB0002320C0B210F01F0352F8232012F4E062D5
:10BFC0001143074AC0B203005B1152F82320C0B2EC
:10BFD00010F01F0342F8231010BC70473880044053
:10BFE000E40BFF1FDFF800F0C90FFF1FDFF800F0C0
:10BFF000A50FFF1FBFF34F8F4748016811F4E061A1
:10C000004648014344480160BFF34F8FFEE738B50F
:10C0100004000D000020FFF7F1FD2A002100404838
:10C0200000F08AF80020FFF724FE4FF47A7000F049
:10C03000B2F8F2E738B504000D00210049B2002043
:10C0400000F0E5F9200032BD10B50024082000F012
:10C050001BFA082000F04EFA002841D10020FFF71B
:10C06000CDFD082000F046FA012801D1012004008E
:10C070000020FFF7FEFD2B4800F05EF84FF4FA7049
:10C0800000F089F8E4B2012CEBD1082000F032FA7C
:10C090000028E6D1082000F02DFA002806D1002063
:10C0A000FFF7E7FD642000F076F8F3E7082000F0E2
:10C0B00021FA012806D10020FFF7DBFD322000F035
:10C0C0006AF8F3E7184800F037F8FFF78FFF6420AD
:10C0D00000F061F80020FFF785FFFFF78BFFC0E756
:10C0E00010BD10B5114804680120FFF787FD01203D
:10C0F000FFF7BFFD0E48E4B20F2101FB04F100EB96
:10C100000102E4B221000B4800F016F84FF47A70F7
:10C1100000F041F8EBE700000CED00E00400FA0548
:10C12000F0820100808401009083010004ED00E0B2
:10C130005C04FF1F8C8201000EB4C0B5024603A848
:10C1400000210190009101AB0121044878440C309A
:10C1500000F0ACFA06BC5DF810FB00BFEDC20000B9
:10C1600010B50400002C15D0B4F1807F03D3292131
:10C170000F48FFF74CFF00200E4908600E4804608E
:10C1800000200E49086005200A4908600948006837
:10C19000C003FBD510BD10B504002000441E0028CC
:10C1A00004D007480068FFF7DBFFF6E710BD00008A
:10C1B000347E010010E000E014E000E018E000E050
:10C1C000780F0020012210F01F018A40DFF89C1236
:10C1D00040B203005B0941F8232070472DE9F84382
:10C1E00004000D0064B2002C08D0022C2CD018D30F
:10C1F000042C4FD03BD3052C5FD071E0DFF87002E8
:10C20000006850F48060DFF8681208604FF44071F5
:10C210000F20FFF789FE4FF440710E20FFF784FED8
:10C220005EE0DFF84C02006850F40060DFF8401276
:10C2300008604FF440714320FFF776FE4FF44071E1
:10C240004420FFF771FE4BE0DFF82402006850F451
:10C250008050DFF81C1208604FF440716320FFF734
:10C2600063FE4FF440716220FFF75EFE38E0DFF8B6
:10C270000002006850F40050DFF8F41108604FF439
:10C2800040715020FFF750FE4FF440715120FFF7EE
:10C290004BFE25E0DFF8DC01006850F48060DFF839
:10C2A000D41108604FF440714E20FFF73DFE4FF46B
:10C2B00040714F20FFF738FE12E0DFF8B801006848
:10C2C00050F40060DFF8AC1108604FF44071892031
:10C2D000FFF72AFE4FF440718820FFF725FEFFE7A5
:10C2E000DFF8940164B250F82400C07810F0F30035
:10C2F000DFF8841164B251F82410C870DFF87801B7
:10C3000064B250F824008078DFF86C1164B251F800
:10C310002410887064B2002C02D064B2012C07D1C2
:10C32000DFF8580101684FF47A704143894606E00E
:10C33000DFF84C0101684FF47A70414389462801C7
:10C34000B9FBF0F00600B6B2B6F5005F02DB41F6CD
:10C35000FF700600B9FBF5F0B6B2B0EB06100700AF
:10C36000BFB2202F03DBDC214648FFF750FE4248D6
:10C3700064B250F82400007810F0E0008046C6F364
:10C38000042050EA08003C4964B251F824100870B7
:10C39000394864B250F824004670374864B250F807
:10C3A0002400807A10F0E000804617F01F0050EA69
:10C3B0000800314964B251F8241088722E4864B2E2
:10C3C00050F82400007C50F088002B4964B251F8EA
:10C3D00024100874284864B250F82400C07850F043
:10C3E0000C00254964B251F82410C870BDE8F183EF
:10C3F000214A40B252F8202012799206F8D51E4AFE
:10C4000040B252F8202092F907200A7070471A4A69
:10C4100040B252F8202012791206F8D5164A40B2DE
:10C4200052F82020D17170470100134849B250F8EA
:10C430002100807D002801D0012000E0002070470D
:10C4400010B504000C4864B250F82400C07850F0D5
:10C450002000094964B251F82410C87064B2600029
:10C460002D3040B2FFF7AEFE10BD000000E100E04D
:10C470003480044028800440F80BFF1F780F002010
:10C48000800F00203480010010B5040064B2092C34
:10C490000DDA002200217F4864B2005DFFF764FCE2
:10C4A00003217C4864B2005DFFF763FD14E00920BE
:10C4B00004002000441E40B200280DD000220021BC
:10C4C000744864B2005DFFF74FFC0321714864B209
:10C4D000005DFFF74EFDECE710BD10B504006D48A0
:10C4E00064B2005DFFF7FBFC002801D1002000E0F2
:10C4F000012010BD10B50400200040B2FFF7EDFF91
:10C5000000280AD10A20FFF746FE200040B2FFF7BC
:10C51000E4FF002801D1002000E0012010BD01B49B
:10C520005D49097802292AD09DF800105B4A5C4BCE
:10C530001B7802F813109DF80110584A584B1B78CD
:10C5400002EB4302517056490978491C544A117054
:10C5500053490978142902DB0021514A11705049CE
:10C560000978080001004F4A1278C9B2914203D1FC
:10C570000221494A117002E00121474A117001B0BD
:10C580007047010044480078002801D1002029E0CC
:10C590004248444B1B7810F8130008703F48414B49
:10C5A0001B7800EB4300407848703E480078401C00
:10C5B0003C4B18703B480078142802DB0020394BB4
:10C5C0001870374800780200364800781300DBB254
:10C5D000984203D10020304B187002E001202E4B0E
:10C5E00018700120704710B582B00020040064B2BA
:10C5F000092C4EDA200040B2FFF76FFF002835D13A
:10C60000294864B2005D401C274964B20855264899
:10C6100064B2005D02283ADB234864B2005D022860
:10C6200008D18DF8004000208DF801000098FFF738
:10C6300076FF2CE01C4864B2005D292827DB1A48ED
:10C6400064B2005D29280CD18DF8004002208DF8DD
:10C6500001000098FFF763FF0220134964B20855F8
:10C6600015E00220104964B2085510E00E4864B28B
:10C67000005D022807DB8DF8004001208DF80100E5
:10C680000098FFF74CFF0020074964B20855641C6E
:10C69000ADE713BD200CFF1F2E100020840F0020DB
:10C6A0002D1000202C100020AC0F00202DE9F043AD
:10C6B0009FB081462698DFF804898DF83B00174625
:10C6C00000201E4602910B900FF680344FF0FF358C
:10C6D0000AE017F8011B0298C8470028029000F0F2
:10C6E0009A800B98401C0B90387850B12528F0D1D7
:10C6F00000200021059006910790089109900A9169
:10C7000003E00B989AE041F0010117F8010F20288F
:10C71000F9D023280DD02B2804D02D2806D030287E
:10C720000AD07AE041F0020189B2EEE741F004015B
:10C73000FAE741F00801F7E741F01001F4E70020C3
:10C740000D9009E00D98404505DA00EB800302EBFF
:10C750004302303A0D927F1C3A78A2F130000A2849
:10C76000F0D33A782E2A18BF0C9523D117F8010F71
:10C770002A2807D1306830607F1C50F8042B3060C5
:10C780000C9217E02D280CBF17F8010B0020002297
:10C790000C920AE040B90C9A424505DA02EB82029B
:10C7A00003EB4203303B0C937F1C3B78A3F1300238
:10C7B0000A2AEFD3ADF838102046397800F07AFD18
:10C7C00008B117F8010B8DF83A009DF83A00682877
:10C7D00004BF3978682903D162208DF83A0007E058
:10C7E0006C2804BF38786C2803D171218DF83A1079
:10C7F0007F1C10A80490324617F8013B6946484652
:10C8000000F05CF838B910AA6946484600F084F98F
:10C8100000287FF569AF284610E02A288FD13068BC
:10C82000306050F8042B3060002A0D9204D552423B
:10C8300041F004010D9289B27F1C92E71FB0BDE860
:10C84000F083622820D0682811D06A2803D06C2891
:10C8500027D0712825D10868C01D20F00700086086
:10C86000D0E9002308300860194610467047002AB6
:10C870000A680A60106803D0121D0A6000B217E04F
:10C88000121D0A6080B217E0002A0A680A60106868
:10C8900003D0121D0A6040B20AE0121D0A60C0B245
:10C8A0000AE0002A0A680A60106803D0121D0A60B4
:10C8B000C1177047121D0A600021704770B51C46F1
:10C8C0000D46B4F125002E69114600F01381203881
:10C8D000022865D9133841D00B3816D0401E1ED01F
:10C8E000401E02285CD9001F19D0401F00F0838031
:10C8F000401E33D0401E00F0CD80C01E00F0D88016
:10C90000801E2BD0C01E29D0FAE06869421C6A61E3
:10C910000A680A6052F8043B0A603354FAE095F85A
:10C920003A000122FFF78DFFC5E90001002399427B
:10C9300004DA6869411C69612D210DE0288F8107A7
:10C9400004D56869411C69612B2105E0C00722D527
:10C950006869411C6961202131541CE095F83A0056
:10C960000022FFF76EFFC5E9000195F838000107C6
:10C9700011D5D5E900230020834208BF82420AD0A6
:10C9800044F02000782806D1686930213154401CD9
:10C99000411C69613454214668693044E86083E091
:10C9A0000868C01D20F007000860D0E900230830A7
:10C9B0000860C5E90023D5E90001C80F04D0686903
:10C9C000411C69612D210DE0288F810704D568691C
:10C9D000411C69612B2105E0C00704D56869411C31
:10C9E00069612021315468693044E8602146284655
:10C9F00000F0C1F98EE005F13A02507820B14FF015
:10CA0000FF340FF650005EE01078622808D06828E6
:10CA100024D06A2812D06C282ED071280ED02BE09A
:10CA20000A680A6052F8040B0A6020B94FF0FF341C
:10CA30000FF6380047E0E96A01706BE00A680A60A7
:10CA400052F8040B0A6020B94FF0FF340FF61C00B7
:10CA500039E0EA6AD317C0E900235BE00A680A609C
:10CA600052F8040B0A6020B94FF0FF340FF2FC704B
:10CA700029E0E96A01804DE00A680A6052F8040B77
:10CA80000A6020B94FF0FF340FF2E0701BE0E96A52
:10CA900001603FE00A680A6052F8040B0A60002156
:10CAA000C5E90001EE607821284600F0BCF831E0CD
:10CAB0000868086050F8044B0860EC603CB94FF01F
:10CAC000FF340FF2C07000F001FC201A70BD2E6B15
:10CAD000002E04D5204600F01BFC044608E0324638
:10CAE0000021204600F030FC002814BF041B34460F
:10CAF000AC610FE06869411C69612521315409E08E
:10CB00006869411C696125223254200002D0481C0A
:10CB100068617454002070BD2DE9F0410F4682B069
:10CB20000646796B7869BC6A091A386A091AB869C5
:10CB3000091A786A091AF869091A97F838000C1B5B
:10CB4000410790460FD42021002C8DF800100ADDFB
:10CB5000254601236A463946304600F05FFB00282F
:10CB60005DD16D1EF5D17B6942463946304600F0F5
:10CB700055FB002853D130208DF800003D6A002D70
:10CB800009DD01236A463946304600F047FB00289C
:10CB900045D16D1EF5D1BB69FA683946304600F0C3
:10CBA0003DFB00283BD130208DF800007D6A002D30
:10CBB00008DD01236A463946304600F02FFB70BB82
:10CBC0006D1EF6D1F868B969FB69421839463046DE
:10CBD00000F024FB18BB30208DF80000BD6A002D4A
:10CBE00008DD01236A463946304600F017FBB0B92C
:10CBF0006D1EF6D197F8380041070DD52021002C85
:10CC00008DF8001008DD01236A463946304600F0F1
:10CC100005FB20B9641EF6D10020BDE8F6814FF077
:10CC2000FF30BDE8F6812DE9F04704468A462569C4
:10CC3000BAF16F0F08BF082705D04AF02000782806
:10CC400014BF0A2710273C26D4E90001BAF1640F6B
:10CC500018BFBAF1690F8046894607D10B460021FB
:10CC60008B4203DAD8F1000869EB490900208145BD
:10CC700008BF80451FD1206BE8B9082F47D194F831
:10CC80003800010743D530203B2685F83B003EE0C5
:10CC900000280ED594F8380000F01400102808D1B0
:10CCA000626B6069121A206A121A561A002EC8BFE7
:10CCB0002662BDE8F087404649463A46FB1700F039
:10CCC0006FFB3032761ED2B23A2AA4BFAAF15100CD
:10CCD0008218AA55404649463A46FB1700F060FBC9
:10CCE000804689460020814508BF804503D0E06822
:10CCF000A9198842DFD3082F09D194F83800010719
:10CD000005D5A95D302902D0761E3020A855A81976
:10CD1000E060C6F13C01206BA1618142B8DA411AA2
:10CD200021624FF6EF70218F01402187BDE8F08727
:10CD30002DE9D04306460F4614464FF00008DFF8B1
:10CD4000809212E0E00707D542464B46304639460E
:10CD500000F09EFB06460F464046494642464B467B
:10CD600000F096FB641080468946002CEAD13046DC
:10CD70003946BDE8D0832DE9F04F04468FB0206BD3
:10CD8000D4E9009A0028884604AD48BF062005D49F
:10CD900004BF48F02000672801D101202063D4E9B6
:10CDA000002358004015401C0DD119030BD0A8F1E9
:10CDB000610103201A29A06102D20FF2E44110E0C0
:10CDC0000FF2E0410DE058004015401C0ED1190350
:10CDD0000CD1A8F1610103201A29A06116D30FF22A
:10CDE000CC41E0680322FEF75FFFE3E0CDE90223D8
:10CDF00023F00041B1F5801F11D20026B14208BFD7
:10CE0000B242019605D1DDE9020118E00FF2984126
:10CE1000E7E7DDE9020101AA00F004FC08E0694E41
:10CE200006EB1156684901960B40684910461943B4
:10CE3000019F674A47F29756774397FBF2F6C4E99A
:10CE40000001024621F000430020834204BF8242D9
:10CE5000002300F0A780484651460022002300F03E
:10CE600019FC38BF8AF0004A3246D2F10702019617
:10CE700003DD5146FFF75CFF0AE0524200205549AE
:10CE8000FFF756FF02460B464846514600F01AFC93
:10CE9000814648F0200BBBF1660F206B06BF019E58
:10CEA0000A3606263618142EC8BF142630208A46A5
:10CEB0008DF810000DF11107002E33DD4846514664
:10CEC00000F024FD01460A4607F1080304200A2762
:10CED000B2FBF7F707EB8705A2EB4502303203F808
:10CEE000012C0A22B7FBF2F202EB8205A7EB450701
:10CEF0003037401E03F8027DE9D1083E002E03F1D1
:10CF00000807D9DD084600F015FD02460B464846E5
:10CF1000514600F01DFD00222F4B00F0B9FA81466A
:10CF20008A46CBE70DF111003F1A0DF1110504E01F
:10CF30000198401E7F1E01906D1C28783028F7D084
:10CF4000BBF1660F02D10198401C04E0BBF1650FF4
:10CF50000CBF01200020236BC3189F42B8BF7B1E6B
:10CF6000002B1ED4BB4204DAE85C3528A8BF392068
:10CF700000DA302019466A1E02EB010900E05B1E50
:10CF800019F801A9491E8245F9D0392802D1685CF7
:10CF9000401C6854002904D50198401C15465B1CB0
:10CFA0000190019800B200901BB22A4641462046EB
:10CFB00000F014F80FB0BDE8F08F0000CBCCCC0C23
:10CFC0000000244002FCFFFFFFFF0F800000E03F55
:10CFD000A08601000000F03F84D797412DE9F0477B
:10CFE00084B00546894692461F4600F023FD002F77
:10CFF000406A2E6B90F8008002DC01270FF2B02A05
:10D00000BDF9304049F02000662808BF641C13D0E9
:10D01000672840F0898014F1040F74DBB44272DA9F
:10D0200095F83800641C010702D4B742B8BF3E46E9
:10D0300024B2361B48BF002624B2E868A969002C38
:10D0400022DC4A1C30234354002E03DC95F83800C0
:10D05000010703D5E86800F80280521CE642B8BF19
:10D06000744224B2A6196042BE42B8BF3746AA61D4
:10D0700068623FB2EF61E868AB693A4651461844CE
:10D08000FEF712FEF61B18E022469742084416DA15
:10D090003A465146FEF708FEA9697918E01B002EB2
:10D0A000A961686203DC95F83800020705D5E868D5
:10D0B00000F80180E869401CE861AE6297E05146E3
:10D0C000FEF7F2FDA86920183F1B002E03DC95F83F
:10D0D00038100A0703D5E96801F80080401CA861F0
:10D0E0003FB2BE42B8BF3746E868AB693FB23A4686
:10D0F0000AEB04011844FEF7D7FDA8693818A861A7
:10D10000F61B6E6273E0B74204DA95F838100A072E
:10D1100058BF3E46761E48BF0026B9F1670F0CBFC8
:10D120004FF065094FF04509A969EB68481CA861F3
:10D13000002E1AF8012B5A5403DC95F838100A0710
:10D1400017D5E968431CAB6101F80080002E10DDA3
:10D150007F1E3FB2BE42B8BF3746E8683FB23A468C
:10D1600051461844FEF7A0FDA8693818A861F61BBF
:10D170006E62E868A9690844002C80F8009004D425
:10D180002B21417000F1020A04E02D21417000F1D1
:10D19000020A644200206A460AE021460A2391FB03
:10D1A000F3F404EB8403A1EB430102F8011B401CE0
:10D1B00024B2002CF1DC012806DC49F020016529AD
:10D1C00004BF30210AF8011B48B930200AF8010BCE
:10D1D00007E0401E1DF8001030310AF8011B00283E
:10D1E000F7DCE868A9690844AAEB0000E86195F853
:10D1F000380000F0140010280DD16969A8694118A1
:10D20000686A4118E8694118A86A4118686B814248
:10D21000BCBF411A296204B0BDE8F087F8B50546E5
:10D220000E4617461C46002074B117F8011BB06863
:10D23000A847B06030B1F06A401CF0620020641E64
:10D24000F3D1F2BD4FF0FF30F2BD0000686A6C749C
:10D250007A4C00007072696E74665F733A20256EB6
:10D2600020646973616C6C6F776564007072696EBD
:10D2700074663A2062616420256E20617267756D64
:10D28000656E74007072696E74665F733A206261D5
:10D290006420257320617267756D656E74000000EF
:10D2A0006E616E004E414E00696E6600494E46004A
:10D2B0003000217E0278C9B28A421AB11CBF10F830
:10D2C000012FF9E718BF00207047000080B508B9AA
:10D2D0000FF21C0005490B681BB122220021984760
:10D2E00001E000F0ADFB222002BD0000BC0F0020D9
:10D2F000636F6E73747261696E742068616E646CC2
:10D3000065723A20626164206D65737361676500C0
:10D3100000F10103810704D010F8011B89B18107D6
:10D32000FAD10268B2F10131914311F0803F04BF9C
:10D3300050F8042FF6E710F8011B11B110F8011B8B
:10D34000FBE7C01A70470000C9B2830706D0521E1F
:10D3500022D310F8013B9942F7D11FE0083A13D3CA
:10D3600002F1040241EA012141EA014150F8043B83
:10D37000121F21BF4B40A3F1013C2CEA030C1CF00F
:10D38000803FF3D0C9B2001F083210F8013B521E93
:10D3900028BF91EA030FF8D818BF0120401E70473C
:10D3A0001B4213D1094236D12AB18446B0FBF2F0B8
:10D3B00002FB10C2704700F047BBFCD300220023E1
:10D3C00070470B000200002100207047904271EB73
:10D3D000030CF6D370B5B1FA81F4B3FA83F52C1BC4
:10D3E000A340C4F1200532FA05F63343A2405FF0B2
:10D3F0000046E64002E05B085FEA3202841A71EB05
:10D40000030524BF204629467641F4D302000B00D1
:10D410003000002170BD012ACFD970B5140C20D086
:10D42000B1FA81F4B2FA82F5C4F120046419B4F1BE
:10D430002006D6D3B2405FF00044F440002502E05D
:10D4400052085FEA3303C61A71EB020E24BF30465E
:10D45000714664416D41F3D302000B0020002900A6
:10D4600070BD0C46B1FBF2F102FB11452D0445EAFB
:10D470001045B5FBF2F402FB145580B240EA0545B5
:10D48000B5FBF2F002FB105240EA044070BD000010
:10D49000B0B581EA030C0CF0004C40F2FF7515EAC0
:10D4A00011541DBF15EA1357AC42AF4231E0E419E5
:10D4B00023EA455343F48013C90241F0004141EA95
:10D4C000505EC702A7FB02100029A2FB0E21E3FB5E
:10D4D0006720E3FB6E0118BF42F00102A4F58064EF
:10D4E0000F0302D252004041494154F101046CDD66
:10D4F000470872F1004250F1000051EB0451A1F5D0
:10D5000080115CBF41EA0C01B0BD4CEA055100201E
:10D51000B0BD05EA1357AC4214BFAF4241E050EA38
:10D52000410E1CBF52EA430E02E061460020B0BD2E
:10D5300024423C441BD15FEA070EF6D0090302BF28
:10D5400001460020AEF1140EB1FA81F7AEEB0704EC
:10D5500001FA07FE0C37C7F1200100FA07F7C840AF
:10D560004EEA000E23EA455343F48013AAE733F052
:10D570000043B3FA83F704BFB2FA82FE77440B3F4D
:10D58000E41BB7F1200E2FBF02FA0EF3BB40C7F128
:10D59000200E22FA0EFE38BF43EA0E03BA40641C86
:10D5A0008AE750EA410E14BF52EA430E6FF00001C1
:10D5B0004FF4001717EB430F8ABF194617EB410FC3
:10D5C000B5E74CEA05510020B0BDD4F10104B4F137
:10D5D00020070FDAC4F12007520828BF42F00102E9
:10D5E00010FA07F501FA07F7E1BF2A43E040384394
:10D5F000E1400FE0352C98DCC7F1200452EA4002EC
:10D6000020FA07F218BF42F0010231FA07F0A140F8
:10D610000A43002172F1004250F1000051EB0C016D
:10D62000B0BD000010B5144600F002F8226010BD35
:10D63000C1F30A5343B14A0012F5001F28D2A3F2E6
:10D64000FE32A1EB0251704750EA410C20D001F0AC
:10D65000004C31EA0C01B1FA81F204BFB0FA80F358
:10D66000D2180B3AB2F120032CBF00FA03F191401B
:10D6700041EA0C013EBFC2F1200C20FA0CF3194321
:10D680009040524240F2FD33D21A01EB03517047F1
:10D69000002270474FF4001C1CEB410F94BF1CEBA1
:10D6A000430F09E041EA030C50EA4C0C52EA0C0C1F
:10D6B00003D2994208BF9042704714BF8B42824206
:10D6C00070470000F0B540F2FF7581EA030C0CF0E2
:10D6D000004C15EA11541DBF15EA1357AC42AF4276
:10D6E000E5E0BC41C1F31301C3F31303801A994170
:10D6F00043F4801304D2641E40004941801859410C
:10D70000C90241EA5051B1FBF3F603FB1611A2FB2B
:10D710000675D7EBC020A94102D2761E8018594168
:10D72000C90241EA5051B1FBF3FE03FB1E11A2FBFB
:10D730000E75D7EBC020A94103D2AEF1010E8018BF
:10D740005941890241EA9051760546EA8E2EB1FB95
:10D75000F3F603FB1611A2FB0675D7EB8020A94157
:10D7600002D2761E80185941C90241EA50514EEA50
:10D77000060EB1FBF3F603FB1611A2FB0675D7EB01
:10D78000C020A94102D2761E80185941C90241EA3F
:10D790005051B1FBF3F703FB1711A2FB0735D3EB95
:10D7A000C020A94167F100070CBF004247F0010704
:10D7B00066F3D5274FEA1E31B80814F5806412DDF0
:10D7C000BD0775F1004250EB0E5051EB045111F5BD
:10D7D000801F5CBF41EA0C01F0BD4CF07F6141F05D
:10D7E000E0410020F0BDBD076D0840EA0E5041F455
:10D7F0008011D4F10104B4F120060ADAC4F1200644
:10D800000200E04001FA06F3E1401843B24015433C
:10D810000EE0342C13DCC6F1200445EA40056D0807
:10D8200020FA06F2154321FA06F0A1400D4300212B
:10D8300075F1004250F1000051EB0C01F0BD0020E9
:10D840005FEA0C01F0BDCFB992185B41B3FA83F7E0
:10D8500004BFB2FA82F6BF190B3FB7F120062FBF03
:10D8600002FA06F3BB40C7F1200622FA06F638BFDB
:10D870003343BA401CB1E419641E33E77F4231F0F0
:10D880000041B1FA81F404BFB0FA80F6A4190B3C50
:10D89000B4F120062FBF00FA06F1A140C4F1200622
:10D8A00020FA06F638BF3143A0403C1B1AE7AC42D1
:10D8B0001ABF05EA1357AF4212E050EA41061CBFF7
:10D8C00052EA4306BFE750EA4107304661461CBFB3
:10D8D00041EA0551F0BD52EA430C08BFC143F0BD17
:10D8E00000204FF4001616EB410F98BF16EB430FC4
:10D8F00008BF16EB410F24BFC14305E016EB430FF1
:10D900000CBF61464CEA0551F0BD0000400D4918BE
:10D9100040EA81200CD2490DA1F58061491C40F0FC
:10D92000004005DBD1F11F0154BFC840C01770474C
:10D9300000207047014648B1B0FA80F18840C91C08
:10D94000C1F58461090501EBD02140057047000055
:10D9500070B44FF0004591EA030F40F17F806B40B7
:10D96000841A71EB030603D2001BB14112197341F3
:10D970004FF4001C1CEB410F34BF7CEB430442E02E
:10D980000C0DA4EB1356352E4FDC45EAC323DB0AFE
:10D9900045EAC121C912B6F120050DDD63FA05F68D
:10D9A000EB4086EA0305124218BF45F00105C01896
:10D9B00051F100010CD213E062FA06F5F240554035
:10D9C000F3415A40B340F3405A408018594107D3BD
:10D9D00049085FEA30005FEA350528BF45F00105D8
:10D9E00001F58011420875F1004250F1000041EB51
:10D9F00004514E0016F5001F70BC38BF7047002060
:10DA0000090D090570471CEB410F10D252EA43067D
:10DA10000BD0BCEB410F05D80C0DAB43661E342E6A
:10DA2000B6DD02E0AB438018594170BC704770BC52
:10DA3000704700000148704700000000E40EFF1F1F
:10DA4000012000F0BFB800007047000070B44FF034
:10DA5000004591EA030F7FF583AF6B40841A71EBA9
:10DA6000030604D26E40001BB141121973414FF4FA
:10DA7000001C1CEB410F34BF7CEB430682E00C0D15
:10DA8000A4EB1356362E7BDC012E45EAC32341DC82
:10DA900043EA525312BFD20292025B08240545EAC0
:10DAA000C12141EA5051D2EBC020994125D407D180
:10DAB000B0FA80F610FA06F162D00020203608E0B5
:10DAC000B1FA81F6B140C6F1200220FA02F2114308
:10DAD000B0404FEAF474B4EB465434F001064FEA18
:10DAE00074040AD8D6F50016760D04F00044F04010
:10DAF00061FA06F25040F1404840C00A40EA415005
:10DB000021F0004128BF5FEA500550F1000044EBCE
:10DB1000D12135E0DB0A45EAC121C90AB6F1200569
:10DB20000EDD42EA0242120CC5F1200603FA06F6A7
:10DB3000EB4042EA06056D42984161F100010DE0BB
:10DB400062FA06F5F240554063FA06FC82EA0C02DE
:10DB5000F3405A406D42904161EB030111F4801F84
:10DB600005D1641E620502D06D004041494121F497
:10DB70008011430875F1004350F1000041EB04515E
:10DB800070BC70471CEB410F15D223F0004352EAE2
:10DB900043060BD04FEA4C0CBCEB410F04D80C0DE4
:10DBA000661E342EB7DDEBE7801A994150EA410634
:10DBB00008BF0021E4E708BF1CEB430F28BF6FF04C
:10DBC0000001DDE72021090326311820ABBEF9E76B
:10DBD00010B500200400E4B2082C08DA002201216C
:10DBE00014F12000C0B2FEF7BFF8641CF3E7002276
:10DBF00001211920FEF7B8F8012201212A20FEF7A1
:10DC0000B3F8012201212B20FEF7AEF800220121FA
:10DC10001B20FEF7A9F8002201211820FEF7A4F826
:10DC20004FF4A0711920FEF77FF94FF4A0712A205C
:10DC3000FEF77AF94FF4A0712B20FEF775F94FF437
:10DC4000A0711B20FEF770F90020DFF8241D08608A
:10DC50000120DFF81C1D08604FF4FA70FEF79BFAF4
:10DC60000120DFF8101D08600020DFF80C1D08609F
:10DC70000020DFF8081D08601120DFF8041D08707F
:10DC80000020DFF8001D08600120DFF8F81C0860A4
:10DC90000120DFF8E81C08607820FEF77CFA0120FC
:10DCA000DFF8D01C08600020DFF8CC1C08600020E2
:10DCB000DFF8C81C0860B120DFF8C41C0870002021
:10DCC000DFF8C01C08600120DFF8B81C08600120E4
:10DCD000DFF8A81C08600120DFF8981C086001200C
:10DCE000DFF8941C08600020DFF8901C0860052015
:10DCF000DFF88C1C08700020DFF8881C0860012009
:10DD0000DFF8801C08600120DFF8701C086001202B
:10DD1000DFF8601C08600120DFF85C1C0860002050
:10DD2000DFF8581C08603A20DFF8541C0870002007
:10DD3000DFF8501C08600120DFF8481C0860012053
:10DD4000DFF8381C08600120DFF8281C086001207B
:10DD5000DFF8241C08600020DFF8201C08603A204F
:10DD6000DFF81C1C08700020DFF8181C0860012078
:10DD7000DFF8101C08600120DFF8001C086001209B
:10DD8000DFF8F01B08600020DFF8EC1B08600020C3
:10DD9000DFF8E81B0860B220DFF8E41B0870002001
:10DDA000DFF8E01B08600120DFF8D81B08600120C5
:10DDB000DFF8C81B08600120DFF8B81B08600120ED
:10DDC000DFF8B41B08600020DFF8B01B08600520F6
:10DDD000DFF8AC1B08700020DFF8A81B08600120EA
:10DDE000DFF8A01B08600120DFF8901B086001200D
:10DDF000DFF8801B08600120DFF87C1B0860002032
:10DE0000DFF8781B08603A20DFF8741B08700020E8
:10DE1000DFF8701B08600120DFF8681B0860012034
:10DE2000DFF8581B08600120DFF8481B086001205C
:10DE3000DFF8441B08600020DFF8401B08603A2030
:10DE4000DFF83C1B08700020DFF8381B0860012059
:10DE5000DFF8301B08600120DFF8201B086001207C
:10DE6000DFF8101B08600020DFF80C1B08600020A2
:10DE7000DFF8081B0860B320DFF8041B08700020DF
:10DE8000DFF8001B08600120DFF8F81A08600120A5
:10DE9000DFF8E81A08600120DFF8D81A08600120CE
:10DEA000DFF8D41A08600020DFF8D01A08600520D7
:10DEB000DFF8CC1A08700020DFF8C81A08600120CB
:10DEC000DFF8C01A08600120DFF8B01A08600120EE
:10DED000DFF8A01A08600120DFF89C1A0860002013
:10DEE000DFF8981A08603A20DFF8941A08700020CA
:10DEF000DFF8901A08600120DFF8881A0860012016
:10DF0000DFF8781A08600120DFF8681A086001203D
:10DF1000DFF8641A08600020DFF8601A08603A2011
:10DF2000DFF85C1A08700020DFF8581A086001203A
:10DF3000DFF8501A08600120DFF8401A086001205D
:10DF4000DFF8301A08600120DFF82C1A0860002082
:10DF5000DFF8281A08600520DFF8241A087000206E
:10DF6000DFF8201A08600120DFF8181A0860012085
:10DF7000DFF8081A08600120DFF8F81908600120AE
:10DF8000DFF8F41908600020DFF8F01908603A2083
:10DF9000DFF8EC1908700020DFF8E81908600120AC
:10DFA000DFF8E01908600120DFF8D01908600120CF
:10DFB000DFF8C01908600120DFF8BC1908600020F4
:10DFC000DFF8B81908603A20DFF8B41908700020AB
:10DFD000DFF8B01908600120DFF8A81908600120F7
:10DFE000DFF8981908600120DFF888190860002020
:10DFF000DFF8841908600020DFF880190860B42079
:10E00000DFF87C1908700020DFF87819086001201B
:10E01000DFF8701908600120DFF86019086001203E
:10E02000DFF8501908600120DFF84C190860002063
:10E03000DFF8481908600720DFF84419087000204D
:10E04000DFF8401908600120DFF838190860012066
:10E05000DFF8281908600120DFF81819086000208F
:10E06000DFF8141908600020DFF810190860C020DC
:10E07000DFF80C1908700020DFF80819086001208B
:10E08000DFF8001908600120DFF8F01808600120AF
:10E09000DFF8E01808600120DFF8DC1808600020D5
:10E0A000DFF8D81808602820DFF8D418087000209E
:10E0B000DFF8D01808600120DFF8C81808600120D8
:10E0C000DFF8B81808600120DFF8A8180860012000
:10E0D000DFF8A41808600020DFF8A0180860082006
:10E0E000DFF89C1808700020DFF8981808600120FD
:10E0F000DFF8901808600120DFF880180860012020
:10E10000DFF8701808600120DFF86C180860002044
:10E11000DFF8681808608420DFF8641808700020B1
:10E12000DFF8601808600120DFF858180860012047
:10E13000DFF8481808600120DFF838180860002070
:10E14000DFF8341808600020DFF830180860C120BC
:10E15000DFF82C1808700020DFF82818086001206C
:10E16000DFF8201808600120DFF81018086001208F
:10E17000DFF8001808600120DFF8FC1708600020B5
:10E18000DFF8F8170860C020DFF8F41708700020E7
:10E19000DFF8F01708600120DFF8E81708600120B9
:10E1A000DFF8D81708600120DFF8C81708600020E2
:10E1B000DFF8C41708600020DFF8C0170860C2202D
:10E1C000DFF8BC1708700020DFF8B81708600120DE
:10E1D000DFF8B01708600120DFF8A0170860012001
:10E1E000DFF8901708600120DFF88C170860002026
:10E1F000DFF8881708600C20DFF88417087000200B
:10E20000DFF8801708600120DFF878170860012028
:10E21000DFF8681708600120DFF858170860012050
:10E22000DFF8541708600020DFF85017086000205E
:10E23000DFF84C1708700020DFF84817086001204D
:10E24000DFF8401708600120DFF830170860012070
:10E25000DFF8201708600020DFF81C170860002096
:10E26000DFF818170860C320DFF8141708700020C3
:10E27000DFF8101708600120DFF808170860012098
:10E28000DFF8F81608600120DFF8E81608600120C2
:10E29000DFF8E41608600020DFF8E01608608C2044
:10E2A000DFF8DC1608700020DFF8D81608600120BF
:10E2B000DFF8D01608600120DFF8C01608600120E2
:10E2C000DFF8B01608600120DFF8AC160860002007
:10E2D000DFF8A81608602A20DFF8A41608700020CE
:10E2E000DFF8A01608600120DFF89816086001200A
:10E2F000DFF8881608600120DFF878160860002033
:10E30000DFF8741608600020DFF870160860C4207B
:10E31000DFF86C1608700020DFF86816086001202E
:10E32000DFF8601608600120DFF850160860012051
:10E33000DFF8401608600120DFF83C160860002076
:10E34000DFF8381608608A20DFF8341608700020DD
:10E35000DFF8301608600120DFF828160860012079
:10E36000DFF8181608600120DFF8081608600120A1
:10E37000DFF8041608600020DFF800160860EE20C1
:10E38000DFF8FC1508700020DFF8F81508600120A0
:10E39000DFF8F01508600120DFF8E01508600120C3
:10E3A000DFF8D01508600020DFF8CC1508600020E9
:10E3B000DFF8C8150860C520DFF8C4150870002014
:10E3C000DFF8C01508600120DFF8B81508600120EB
:10E3D000DFF8A81508600120DFF898150860012013
:10E3E000DFF8941508600020DFF8901508600C2015
:10E3F000DFF88C1508700020DFF888150860012010
:10E40000DFF8801508600120DFF870150860012032
:10E41000DFF8601508600020DFF85C150860002058
:10E42000DFF858150860E020DFF854150870002068
:10E43000DFF8501508600120DFF84815086001205A
:10E44000DFF8381508600120DFF828150860012082
:10E45000DFF8241508600020DFF82015086005208B
:10E46000DFF81C1508700020DFF81815086001207F
:10E47000DFF8101508600120DFF8001508600120A2
:10E48000DFF8F01408600120DFF8EC1408600020C9
:10E49000DFF8E81408601A20DFF8E41408700020A0
:10E4A000DFF8E01408600120DFF8D81408600120CC
:10E4B000DFF8C81408600120DFF8B81408600120F4
:10E4C000DFF8B41408600020DFF8B01408600C20F6
:10E4D000DFF8AC1408700020DFF8A81408600120F1
:10E4E000DFF8A01408600120DFF890140860012014
:10E4F000DFF8801408600120DFF87C140860002039
:10E50000DFF8781408600E20DFF87414087000201B
:10E51000DFF8701408600120DFF86814086001203B
:10E52000DFF8581408600120DFF848140860012063
:10E53000DFF8441408600020DFF8401408603A2037
:10E54000DFF83C1408700020DFF838140860012060
:10E55000DFF8301408600120DFF820140860012083
:10E56000DFF8101408600120DFF80C1408600020A8
:10E57000DFF8081408603420DFF804140870002065
:10E58000DFF8001408600120DFF8F81308600120AC
:10E59000DFF8E81308600120DFF8D81308600120D5
:10E5A000DFF8D41308600020DFF8D01308602D20B6
:10E5B000DFF8CC1308700020DFF8C81308600120D2
:10E5C000DFF8C01308600120DFF8B01308600120F5
:10E5D000DFF8A01308600120DFF89C13086000201A
:10E5E000DFF8981308602F20DFF8941308700020DC
:10E5F000DFF8901308600120DFF88813086001201D
:10E60000DFF8781308600120DFF868130860012044
:10E61000DFF8641308600020DFF8601308602D2025
:10E62000DFF85C1308700020DFF858130860012041
:10E63000DFF8501308600120DFF840130860012064
:10E64000DFF8301308600120DFF82C130860002089
:10E65000DFF8281308602A20DFF824130870002050
:10E66000DFF8201308600120DFF81813086001208C
:10E67000DFF8081308600120DFF8F81208600120B5
:10E68000DFF8F41208600020DFF8F01208602F2095
:10E69000BB4908700020BB4908600120B9490860E7
:10E6A0000120B64908600120B24908600120B24942
:10E6B00008600020B14908603C20B1490870002082
:10E6C000B04908600120AF4908600120AB490860EB
:10E6D0000120A84908600120A74908600020A74937
:10E6E00008600020A64908700020A64908600120A3
:10E6F000A44908600120A149086001209D490860E3
:10E7000001209D49086000209C49086001209C4927
:10E71000087000209B49086001209A490860012088
:10E7200096490860012093490860012092490860D9
:10E730000020924908600220914908700020914908
:10E74000086001208F49086001208C490860012081
:10E7500088490860012088490860002087490860CE
:10E7600010208749087000208649086001208549EB
:10E77000086001208149086001207E49086000206E
:10E780007D49086000207D490860E1207C490870CF
:10E7900000207C49086001207A49086001207749FF
:10E7A0000860012073490860012073490860002057
:10E7B000724908600420724908700020714908609D
:10E7C00001207049086001206C49086001206949F6
:10E7D00008600120684908600020684908601B2023
:10E7E0006749087000206749086001206549086092
:10E7F00001206249086001205E49086001205E49ED
:10E80000086000205D4908600D205D490870002007
:10E810005C49086001205B49086001205749086095
:10E8200001205449086001205349086000205349E1
:10E8300008600E20524908700020524908600120EB
:10E840005049086001204D4908600120494908608D
:10E850000120494908600020484908602D204849A6
:10E8600008700020474908600120464908600120DF
:10E870004249086001203F49086001203E49086084
:10E8800000203E49086029203D49087000203D498C
:10E89000086001203B4908600120384908600120D8
:10E8A0003449086001203449086000203349086079
:10E8B0002420334908700020324908600120314982
:10E8C000086001202D49086001202A4908600120C4
:10E8D0002949086000202949086029202849087032
:10E8E00000202849086001202649086001202349AA
:10E8F000086001201F49086001201F4908600020AE
:10E900001E49086028201E49087000201D49086023
:10E9100001201C49086001201849086001201549A0
:10E92000086001201449086000201449086026206E
:10E93000134908700020134908600120114908603C
:10E9400001200E49086001200A49086001200A4997
:10E95000086000200949086031200949087000203A
:10E9600008490860012007490860012003490BE0BD
:10E970006000FE432808FE436C00FE432C08FE4363
:10E9800040F00F406400FE4308600120DFF80C1CDB
:10E9900008600120DFF8081C08600020DFF8041C74
:10E9A00008603B20DFF8001C08700020DFF8FC1B2B
:10E9B00008600120DFF8F41B08600120DFF8E41B89
:10E9C00008600120DFF8D41B08600120DFF8D01BAD
:10E9D00008600020DFF8CC1B08600020DFF8C81BAF
:10E9E00008700020DFF8C41B08600120DFF8BC1BA2
:10E9F00008600120DFF8AC1B08600120DFF89C1BD9
:10EA000008600120DFF8981B08600020DFF8941BE5
:10EA100008600020DFF8901B08700020DFF88C1BD6
:10EA200008600120DFF8841B08600120DFF8741BF8
:10EA300008600120DFF8641B08600120DFF8601B1C
:10EA400008600020DFF85C1B08600320DFF8581B1B
:10EA500008700020DFF8541B08600120DFF84C1B11
:10EA600008600120DFF83C1B08600120DFF82C1B48
:10EA700008600120DFF8281B08600020DFF8241B55
:10EA800008601220DFF8201B08700020DFF81C1B34
:10EA900008600120DFF8141B08600120DFF8041B68
:10EAA00008600120DFF8F41A08600020DFF8F01A8F
:10EAB00008600020DFF8EC1A08603A20DFF8E81A56
:10EAC00008700020DFF8E41A08600120DFF8DC1A83
:10EAD00008600120DFF8CC1A08600120DFF8BC1ABA
:10EAE00008600120DFF8B81A08600020DFF8B41AC7
:10EAF00008600520DFF8B01A08700020DFF8AC1AB3
:10EB000008600120DFF8A41A08600120DFF8941AD9
:10EB100008600120DFF8841A08600020DFF8801AFE
:10EB200008600020DFF87C1A08602920DFF8781AD6
:10EB300008700020DFF8741A08600120DFF86C1AF2
:10EB400008600120DFF85C1A08600120DFF84C1A29
:10EB500008600020DFF8481A08600020DFF8441A37
:10EB600008602C20DFF8401A08700020DFF83C1AFB
:10EB700008600120DFF8341A08600120DFF8241A49
:10EB80000860DFF8400C007800F001F810BD10B507
:10EB90000400E4B2042C04DBC821DFF82C0CFDF7E0
:10EBA00036FADFF8200C0470E4B2002C09D0022CF5
:10EBB00000F0B982C0F05E81032C00F0EA8300F01F
:10EBC000EBBC0120DFF8D41908600020DFF8D01971
:10EBD00008600020DFF8CC1908603620DFF8C8197B
:10EBE00008700020DFF8C41908600120DFF8BC19A4
:10EBF00008600120DFF8AC1908600120DFF89C19DB
:10EC000008600120DFF8981908600020DFF89419E7
:10EC10000860C820DFF8901908700020DFF88C1910
:10EC200008600120DFF8841908600120DFF87419FA
:10EC300008600120DFF8641908600020DFF860191F
:10EC400008600020DFF85C1908602A20DFF85819F6
:10EC500008700020DFF8541908600120DFF84C1913
:10EC600008600120DFF83C1908600120DFF82C194A
:10EC700008600120DFF8281908600020DFF8241957
:10EC800008600020DFF8201908700020DFF81C1948
:10EC900008600120DFF8141908600120DFF804196A
:10ECA00008600120DFF8F41808600120DFF8F01890
:10ECB00008600020DFF8EC1808600020DFF8E81892
:10ECC00008700020DFF8E41808600120DFF8DC1885
:10ECD00008600120DFF8CC1808600120DFF8BC18BC
:10ECE00008600120DFF8B81808600020DFF8B418C9
:10ECF00008600020DFF8B01808700020DFF8AC18BA
:10ED000008600120DFF8A41808600120DFF89418DB
:10ED100008600120DFF8841808600120DFF88018FF
:10ED200008600020DFF87C1808608020DFF8781881
:10ED300008700020DFF8741808600120DFF86C18F4
:10ED400008600120DFF85C1808600120DFF84C182B
:10ED500008600020DFF8481808600020DFF8441839
:10ED600008602B20DFF8401808700020DFF83C18FE
:10ED700008600120DFF8341808600120DFF824184B
:10ED800008600120DFF8141808600120DFF810186F
:10ED900008600020DFF80C1808600020DFF8081871
:10EDA00008700020DFF8041808600120DFF8FC1765
:10EDB00008600120DFF8EC1708600120DFF8DC179D
:10EDC00008600120DFF8D81708600020DFF8D417AA
:10EDD00008603220DFF8D01708700020DFF8CC1769
:10EDE00008600120DFF8C41708600120DFF8B417BD
:10EDF00008600120DFF8A41708600120DFF8A017E1
:10EE000008600020DFF89C1708600020DFF89817E2
:10EE100008700020DFF8941708600120DFF88C17D5
:10EE200008600120DFF87C1708600120DFF86C170C
:10EE300008600120DFF8681708600020DFF8641719
:10EE40000860B220DFF8601708700020DFF85C1758
:10EE500008600120DFF8541708600120DFF844172C
:10EE600008608020DFF8641908808020DFF86019CE
:10EE7000088091E30120DFF8241708600020DFF804
:10EE8000201708600020DFF81C1708603620DFF824
:10EE9000181708700020DFF8141708600120DFF849
:10EEA0000C1708600120DFF8FC1608600120DFF86D
:10EEB000EC1608600120DFF8E81608600020DFF893
:10EEC000E4160860A820DFF8E01608700020DFF8DC
:10EED000DC1608600120DFF8D41608600120DFF896
:10EEE000C41608600120DFF8B41608600020DFF8BF
:10EEF000B01608600020DFF8AC1608602A20DFF8A2
:10EF0000A81608700020DFF8A41608600120DFF8BA
:10EF10009C1608600120DFF88C1608600120DFF8DD
:10EF20007C1608600120DFF8781608600020DFF802
:10EF3000741608600020DFF8701608700020DFF8F3
:10EF40006C1608600120DFF8641608600120DFF805
:10EF5000541608600120DFF8441608600120DFF82D
:10EF6000401608600020DFF83C1608600320DFF838
:10EF7000381608700020DFF8341608600120DFF82A
:10EF80002C1608600120DFF81C1608600120DFF84D
:10EF90000C1608600120DFF8081608600020DFF872
:10EFA000041608600020DFF8001608700020DFF863
:10EFB000FC1508600120DFF8F41508600120DFF877
:10EFC000E41508600120DFF8D41508600120DFF89F
:10EFD000D01508600020DFF8CC1508608220DFF82B
:10EFE000C81508700020DFF8C41508600120DFF89C
:10EFF000BC1508600120DFF8AC1508600120DFF8BF
:10F000009C1508600020DFF8981508600020DFF8E4
:10F01000941508602B20DFF8901508700020DFF8A9
:10F020008C1508600120DFF8841508600120DFF8E6
:10F03000741508600120DFF8641508600120DFF80E
:10F04000601508600020DFF85C1508600020DFF81C
:10F05000581508700020DFF8541508600120DFF80B
:10F060004C1508600120DFF83C1508600120DFF82E
:10F070002C1508600120DFF8281508600020DFF853
:10F08000241508600220DFF8201508700020DFF842
:10F090001C1508600120DFF8141508600120DFF856
:10F0A000041508600120DFF8F41408600120DFF87F
:10F0B000F01408600020DFF8EC1408600020DFF88E
:10F0C000E81408700020DFF8E41408600120DFF87D
:10F0D000DC1408600120DFF8CC1408600120DFF8A0
:10F0E000BC1408600120DFF8B81408600020DFF8C5
:10F0F000B41408608120DFF8B01408700020DFF835
:10F10000AC1408600120DFF8A41408600120DFF8C7
:10F11000941408608020DFF8B41608808020DFF89F
:10F12000B016088038E20120DFF870140860002073
:10F13000DFF86C1408600020DFF8681408603620DF
:10F14000DFF8641408700020DFF860140860012004
:10F15000DFF8581408600120DFF848140860012027
:10F16000DFF8381408600120DFF83414086000204C
:10F17000DFF8301408600820DFF82C140870002035
:10F18000DFF8281408600120DFF82014086001204F
:10F19000DFF8101408600120DFF800140860002078
:10F1A000DFF8FC1308600020DFF8F81308602A205D
:10F1B000DFF8F41308700020DFF8F0130860012076
:10F1C000DFF8E81308600120DFF8D8130860012099
:10F1D000DFF8C81308600120DFF8C41308600020BE
:10F1E000DFF8C01308600020DFF8BC1308700020AF
:10F1F000DFF8B81308600120DFF8B01308600120C1
:10F20000DFF8A01308600120DFF8901308600120E8
:10F21000DFF88C1308600020DFF8881308600220F4
:10F22000DFF8841308700020DFF8801308600120E5
:10F23000DFF8781308600120DFF868130860012008
:10F24000DFF8581308600120DFF85413086000202D
:10F25000DFF8501308600020DFF84C13087000201E
:10F26000DFF8481308600120DFF840130860012030
:10F27000DFF8301308600120DFF820130860012058
:10F28000DFF81C1308600020DFF8181308608120E5
:10F29000DFF8141308700020DFF810130860012055
:10F2A000DFF8081308600120DFF8F8120860012079
:10F2B000BA4908600020BA4908600020B9490860CE
:10F2C0002B20B94908700020B84908600120B749CF
:10F2D00008600120B34908600120B049086001209E
:10F2E000AF4908600020AF4908600020AE490870AF
:10F2F0000020AE4908600120AC4908600120A949FE
:10F3000008600120A54908600120A5490860002087
:10F31000A44908600320A44908700020A34908609C
:10F320000120A249086001209E49086001209B49F4
:10F33000086001209A49086000209A49086000206E
:10F340009949087000209949086001209749086090
:10F3500001209449086001209049086001209049EB
:10F36000086000208F49086082208F4908700020C3
:10F370008E49086001208D49086001208949086094
:10F380008020DFF8481408808020DFF844140880CB
:10F3900002E10120814908600020814908600020C5
:10F3A0008049086036208049087000207F49086045
:10F3B00001207E49086001207A49086001207749D0
:10F3C00008600120764908600020764908606820BE
:10F3D000754908700020754908600120734908606C
:10F3E00001207049086001206C49086000206C49C8
:10F3F000086000206B4908602A206B4908700020D3
:10F400006A4908600120694908600120654908606F
:10F4100001206249086001206149086000206149BB
:10F4200008600020604908700020604908600120E1
:10F430005E49086001205B49086001205749086067
:10F4400001205749086000205649086003205649AA
:10F4500008700020554908600120544908600120C7
:10F460005049086001204D49086001204C4908605E
:10F4700000204C49086000204B49087000204B498F
:10F4800008600120494908600120464908600120C0
:10F490004249086001204249086000204149086053
:10F4A00082204149087000204049086001203F49FE
:10F4B000086001203B4908600120384908600020AD
:10F4C000374908600020374908602B20364908700A
:10F4D0000020364908600120344908600120314984
:10F4E000086001202D49086001202D490860002096
:10F4F0002C49086000202C49087000202B49086026
:10F5000001202A490860012026490860012023497A
:10F51000086001202249086000202249086000207C
:10F520002149087000202149086001201F49086016
:10F5300001201C4908600120184908600120184971
:10F540000860002017490860002017490870002053
:10F55000164908600120154908600120114908601A
:10F5600001200E49086001200D49086000200D4966
:10F57000086080200C49087000200C4908600120B8
:10F580000A49086001200749086080208F490880E7
:10F5900080208F490880FFE710BD00002808FE4347
:10F5A0006C00FE432C08FE4340F00F406400FE4315
:10F5B00003B484480078C00705D5BDF800002030AA
:10F5C000ADF8000004E0BDF802002030ADF8020004
:10F5D00001208049086000207F49086000207F49A1
:10F5E00008602A207E49087000207E4908600120BA
:10F5F0007C4908600120794908600120754908604C
:10F60000012075490860002074490860BDF80000B9
:10F6100080B2000A72490870002072490860012017
:10F620007049086001206D4908600120694908603F
:10F63000012069490860002068490860BDF80000A1
:10F640006749087000206749086001206549086023
:10F6500001206249086001205E49086001205E497E
:10F66000086000205D490860BDF80000BDF8041086
:10F6700011FA80F0401E00125949087000205949C3
:10F6800008600120574908600120544908600120A2
:10F690005049086001205049086000204F49086027
:10F6A000BDF80010BDF804004118481E4C49087010
:10F6B00000204C49086001204A4908600120474960
:10F6C0000860012043490860002043490860002089
:10F6D000424908602B2042490870002041490860D7
:10F6E00001204049086001203C4908600120394957
:10F6F0000860012038490860002038490860BDF8DA
:10F70000020080B2000A36490870002035490860BE
:10F7100001203449086001203049086001202D494A
:10F72000086001202C49086000202C490860BDF8C1
:10F7300002002B49087000202A490860012029494D
:10F740000860012025490860012022490860012045
:10F7500021490860002021490860BDF80200BDF879
:10F76000061011FA80F0401E00121D49087000209A
:10F770001C49086001201B490860012017490860E6
:10F780000120144908600120134908600020134932
:10F790000860BDF80210BDF806004118481E104967
:10F7A000087000200F49086001200E490860012000
:10F7B0000A49086002B0704704480088704704484E
:10F7C000008870472F100020987D0100680FFF1FF0
:10F7D0006A0FFF1F2808FE436C00FE432C08FE43FF
:10F7E00040F00F406400FE433EB59624DFF8E00A87
:10F7F000006804280CD1DFF8DC0A0168DFF8D80AB9
:10F800000068091AA14203D14FF4784001F0D5F8FD
:10F81000DFF8BC0A0068042804D1DFF8BC0A0068DD
:10F82000002819D0DFF8A80A0068042808D1DFF8FA
:10F83000A40A0168DFF8A00A0068091A8C420BD3F9
:10F84000DFF88C0A0068032840F03D854420FCF76F
:10F8500046FB012840F03785DFF8800AB0F9000048
:10F86000002840F007810020ADF80600BDF8060032
:10F87000ADF8040000F048FF00F046FD4020ADF870
:10F8800004003020ADF806004FF478423021019892
:10F8900001F0A7F86020ADF806000020ADF80400E4
:10F8A000DFF83C0A90ED000AB5EE400AF1EE10FADE
:10F8B00007DB4FF478431F222B21019801F011F947
:10F8C00006E04FF478431F222D21019801F009F939
:10F8D0000820ADF804004FF4784000901F23042264
:10F8E000DFF8000A90ED000AF2EE040A20EE200A8A
:10F8F000BDEEC00A10EE101A019801F0F8F9702060
:10F90000ADF806000020ADF80400DFF8DC0900685F
:10F91000DFF8D8190968884207DB4FF478431F22C3
:10F920002B21019801F0DDF806E04FF478431F2207
:10F930002D21019801F0D5F80820ADF80400DFF87A
:10F94000AC090168DFF8A0090068FCF73EF84FF445
:10F95000784100911F2304220100019801F0C7F9AA
:10F960006020ADF806002820ADF804004FF4784080
:10F9700000901F230322DFF878090168019801F045
:10F98000B6F95820ADF804004FF4784000901F23DA
:10F990000322DFF860090168019801F0A8F9DFF897
:10F9A000580990F9000000280ED14020ADF804005D
:10F9B0004FF4784000901F230222DFF8240D90F9C5
:10F9C0000010019801F093F9DFF82C0990F900007C
:10F9D00001280ED14020ADF804004FF4784000908B
:10F9E0001F230222DFF8FC0C90F90010019801F0AF
:10F9F0007EF97020ADF806002820ADF804004FF421
:10FA000078431F225821019801F06BF83020ADF89F
:10FA100004004FF4784000901F230322DFF8C80C45
:10FA20000168019801F063F94820ADF804004FF433
:10FA300078431F225921019801F053F85020ADF866
:10FA400004004FF4784000901F230322DFF89C0C41
:10FA50000168019801F04BF97020ADF804004FF4F3
:10FA6000784000901F230322DFF890080168019876
:10FA700001F03DF9DFF86408B0F90000012840F01A
:10FA800091800020ADF804000020ADF806004FF48E
:10FA9000784000901F230222DFF86418019801F0DB
:10FAA0005BFA0020ADF804001020ADF806004FF41A
:10FAB000784000901F230222DFF84818019801F0D7
:10FAC0004BFA0020ADF804002020ADF806004FF4FA
:10FAD000784000901F230522DFF8141C019801F0E4
:10FAE0003BFA0020ADF804003020ADF806004FF4DA
:10FAF000784000901F230522DFF8F81B019801F0E1
:10FB00002BFA0020ADF804004020ADF806004FF4B9
:10FB1000784000901F230522DFF8DC1B019801F0DC
:10FB20001BFA0020ADF804005020ADF806004FF499
:10FB3000784000901F230322DFF8C01B019801F0DA
:10FB40000BFA0020ADF804006020ADF806004FF479
:10FB5000784000901F230522DFF8A41B019801F0D4
:10FB6000FBF90020ADF804007020ADF806004FF45A
:10FB7000784000901F230422DFF8881B019801F0D1
:10FB8000EBF9DFF8080CB0F90000012807D04FF4BA
:10FB9000784000F012FF0020DFF8F41B087001200D
:10FBA00001F0C3FBDFF83407B0F90000022840F091
:10FBB00091800020ADF804000020ADF806004FF45D
:10FBC000784000901F230322DFF8C81B019801F042
:10FBD000C3F90020ADF804001020ADF806004FF482
:10FBE000784000901F230522DFF8AC1B019801F03C
:10FBF000B3F90020ADF804002020ADF806004FF462
:10FC0000784000901F230422DFF8901B019801F038
:10FC1000A3F90020ADF804003020ADF806004FF441
:10FC2000784000901F230422DFF8741B019801F034
:10FC300093F90020ADF804004020ADF806004FF421
:10FC4000784000901F230522DFF8581B019801F02F
:10FC500083F90020ADF804005020ADF806004FF401
:10FC6000784000901F230522DFF83C1B019801F02B
:10FC700073F90020ADF804006020ADF806004FF4E1
:10FC8000784000901F230422DFF8201B019801F028
:10FC900063F90020ADF804007020ADF806004FF4C1
:10FCA000784000901F230322DFF8041B019801F025
:10FCB00053F9DFF8D80AB0F90000022807D04FF452
:10FCC000784000F07AFE0820DFF8C41A087002209D
:10FCD00001F02BFBDFF80406B0F90000032840F028
:10FCE00091800020ADF804000020ADF806004FF42C
:10FCF000784000901F230322DFF8B81A019801F022
:10FD00002BF90020ADF804001020ADF806004FF4E8
:10FD1000784000901F230422DFF89C1A019801F01C
:10FD20001BF90020ADF804002020ADF806004FF4C8
:10FD3000784000901F230422DFF87C1A019801F01C
:10FD40000BF90020ADF804003020ADF806004FF4A8
:10FD5000784000901F230422DFF85C1A019801F01C
:10FD6000FBF80020ADF804004020ADF806004FF489
:10FD7000784000901F230422DFF83C1A019801F01C
:10FD8000EBF80020ADF804005020ADF806004FF469
:10FD9000784000901F230422DFF81C1A019801F01C
:10FDA000DBF80020ADF804006020ADF806004FF449
:10FDB000784000901F230422DFF8FC19019801F01D
:10FDC000CBF80020ADF804007020ADF806004FF429
:10FDD000784000901F230422DFF8DC19019801F01D
:10FDE000BBF8DFF8A809B0F90000032807D04FF4EA
:10FDF000784000F0E2FD1020DFF89419087003202D
:10FE000001F093FADFF8D404B0F90000042840F0C0
:10FE10002F810020ADF804000020ADF806004FF45B
:10FE2000784000901F230422DFF89019019801F018
:10FE300093F85820ADF804004FF4784000901F2349
:10FE40000422DFF8B0040168019800F050FF0020A0
:10FE5000ADF804001020ADF806004FF47840009093
:10FE60001F230422DFF85819019801F075F8DFF814
:10FE70005409B0F90000002818D45020ADF804004F
:10FE80004FF478431F22D3A1019800F0FCFE5820C4
:10FE9000ADF804004FF4784000901F230422DFF8EF
:10FEA0002409B0F90010019800F021FFDFF81409CF
:10FEB000B0F90000002819D55020ADF804004FF427
:10FEC00078431F22C4A1019800F0DDFE5820ADF850
:10FED00004004FF4784000901F230422DFF8E40868
:10FEE000B0F900104942019800F001FF0020ADF880
:10FEF00004002020ADF806004FF4784000901F2346
:10FF00000522DFF8C418019801F026F85820ADF852
:10FF100004004FF4784000901F230422DFF8AC085F
:10FF20000168019800F0E3FE0020ADF804003020E5
:10FF3000ADF806004FF4784000901F230222DFF84E
:10FF40009018019801F008F85820ADF804004FF41B
:10FF5000784000901F230422DFF8780890ED000A13
:10FF6000BCEEC00A10EE101A019800F0C0FE00208E
:10FF7000ADF804004020ADF806004FF47840009042
:10FF80001F230322DFF85018019800F0E5FF5820E6
:10FF9000ADF804004FF4784000901F230422DFF8EE
:10FFA0003C0890ED000ABCEEC00A10EE101A019851
:10FFB00000F09DFE0020ADF804005020ADF80600D2
:10FFC0004FF4784000901F230222DFF814180198A4
:10FFD00000F0C2FF5820ADF804004FF478400090C4
:10FFE0001F230422DFF8FC0790ED000ABCEEC00AD4
:10FFF00010EE101A019800F07AFE0020ADF804000F
:020000040001F9
:100000006020ADF806004FF4784000901F230422D2
:10001000DFF8D417019800F09FFF5820ADF80400D6
:100020004FF4784000901F230422B04801680198E3
:1000300000F05DFE0020ADF804007020ADF8060071
:100040004FF4784000901F230422DFF89C1701989A
:1000500000F082FF5820ADF804004FF47840009083
:100060001F230422DFF88407C16A019800F03FFED5
:100070009A48B0F90000052840F02581DFF87007A4
:1000800000680290DFF86C0705684FF47842290099
:10009000029800F029FC4FF478431F228AA10298AD
:1000A00000F0F1FD1020ADF80A004FF478431F2254
:1000B00086A1029800F0E7FD1820ADF808000020A6
:1000C000ADF80A00DFF8180690F90000002808D102
:1000D0004FF478431F22DFF82017029800F0D3FD79
:1000E00084E0DFF8FC0590F90000022808D14FF405
:1000F00078431F22DFF80417029800F0C4FD75E072
:10010000DFF8DC0590F90000032808D14FF47843AC
:100110001F22DFF8EC16029800F0B5FD66E0DFF86C
:10012000C00590F90000042808D14FF478431F223D
:10013000DFF8D016029800F0A6FD57E0DFF8A00522
:1001400090F90000052808D14FF478431F22DFF80A
:10015000B816029800F097FD48E0DFF8840590F9A2
:100160000000012808D14FF478431F22DFF89C16C5
:10017000029800F088FD39E0DFF8640590F900008E
:10018000102808D14FF478431F22DFF88416029814
:1001900000F079FD2AE0DFF8480590F90000112809
:1001A00008D14FF478431F22DFF86816029800F058
:1001B0006AFD1BE0DFF8280590F9000016280DD134
:1001C0004FF478431F22DFF85016029800F05BFDD1
:1001D0000CE000BF2B0000002D0000004FF478431E
:1001E0001F22DFF83816029800F04DFD1020ADF800
:1001F0000A00DFF8F00490F90000002807D14FF45E
:1002000078431F22DFF8F015029800F03CFDDFF87C
:10021000D40490F90000102807D14FF478431F222E
:10022000DFF8EC15029800F02EFD0020ADF8080074
:100230002020ADF80A00DFF8E80590F9000000285A
:1002400007D14FF478431F22DFF8D815029800F049
:100250001AFDDFF8CC0590F90000012808D14FF411
:1002600078431F22DFF8C015029800F00CFD1CE057
:10027000DFF8AC0590F90000022808D14FF478436C
:100280001F22DFF8A815029800F0FDFC0DE0DFF852
:10029000900590F90000032807D14FF478431F22FE
:1002A000DFF88C15029800F0EEFC3020ADF80A0063
:1002B0004FF4784000901F230422DFF8780501688E
:1002C000029800F014FD37BD4D793A0048653A00B8
:1002D000CC11FF1F5C77FF1F6077FF1F10100020FD
:1002E0007477FF1F8077FF1FC412FF1F2C04FF1FAE
:1002F0004004FF1F180F0020161000206C0F002074
:100300004C8101008C81010030B583B00020ADF834
:100310000200BDF80200ADF800008020ADF8040036
:100320006020ADF8060001990098FFF741F901201F
:10033000DFF8041508600020DFF8001508600020D1
:10034000DFF8FC1408602C20DFF8F8140870002097
:10035000DFF8F41408600120DFF8EC1408600120D5
:10036000DFF8DC140860DFF8E40400880500EDB273
:10037000DFF8D804B0F900006030854280F2458192
:10038000DFF8CC040088C0B200010400E4B2DFF85A
:10039000C004B0F9000000018030844280F2338153
:1003A000DFF8B004EDB2A02101FB05F10844E4B28E
:1003B000005D212837D10120DFF87C14086001207E
:1003C000DFF8781408600020DFF874140860FF205C
:1003D000DFF8701408700020DFF86C14086001204A
:1003E000DFF8641408600120DFF85414086001206D
:1003F000DFF8441408600120DFF840140860002092
:10040000DFF83C140860FF20DFF838140870002083
:10041000DFF8341408600120DFF82C140860012094
:10042000DFF81C140860DFF82C04EDB2A02101FBFA
:1004300005F10844E4B2005D7E2837D10120DFF8E1
:10044000F81308600120DFF8F41308600020DFF8DB
:10045000F01308600020DFF8EC1308700020DFF8CC
:10046000E81308600120DFF8E01308600120DFF8DE
:10047000D01308600120DFF8C01308600120DFF806
:10048000BC1308600020DFF8B81308600020DFF814
:10049000B41308700020DFF8B01308600120DFF803
:1004A000A81308600120DFF898130860DFF8A403A0
:1004B000EDB2A02101FB05F10844E4B2005D022881
:1004C00036D10120DFF8701308600120DFF86C13CB
:1004D00008600020DFF8681308600720DFF8641365
:1004E00008700020DFF8601308600120DFF858135F
:1004F00008600120DFF8481308600120DFF8381396
:1005000008600120DFF8341308600020DFF83013A2
:100510000860E020DFF82C1308700020DFF82813B3
:1005200008600120DFF8201308600120C44908603A
:10053000DFF82003EDB2A02101FB05F10844E4B28D
:10054000005D032829D10120BB4908600120BB4977
:1005500008600020BA4908600020BA4908700020ED
:10056000B94908600120B84908600120B449086011
:100570000120B14908600120B04908600020B0495D
:1005800008601F20AF4908700020AF4908600120B3
:10059000AD4908600120AA490860AE48EDB2A0212B
:1005A00001FB05F10844E4B2005D042829D10120D3
:1005B000A14908600120A14908600020A049086005
:1005C000F820A049087000209F49086001209E493A
:1005D000086001209A4908600120974908600120BD
:1005E00096490860002096490860002095490870E7
:1005F0000020954908600120934908600120904936
:100600000860641CC2E66D1CB1E6934890F90000D6
:10061000012826D1344800688D49B1F90010B0EBAB
:100620000110ADF80000314801688848B0F90000B9
:10063000091AADF80210BDF80000762811DABDF8ED
:1006400000000B280DDBBDF80200602809DABDF8B8
:1006500002000B2805DB4FF478420A21009800F0D5
:10066000C0F97D4890F90000002837D17B4890F808
:100670002F007749B1F90010B0EB0110ADF8000080
:10068000764890F830107148B0F90000091AADF8BA
:100690000210BDF80000762820DABDF800000B2813
:1006A0001CDBBDF80200602818DABDF802000B2838
:1006B00014DB6A4890F93100052805D14FF47842DF
:1006C0000A21009800F08DF9644890F9310006285D
:1006D00004D11F220A21009800F083F937BD0000E1
:1006E0001A1000201C1000206C77FF1F7077FF1F6E
:1006F000B872010058730100F8730100B87B010063
:1007000098740100387901007720554909688842BA
:100710000ADB5049A02202FB00F21144514A125C4C
:1007200003238B54401EF0E777204F490968884225
:100730000ADB4849A02202FB00F211444B4A125C3A
:1007400004238B54401EF0E777204949096888420A
:100750001ADB4849095C012903D14749095C012991
:1007600010D04449095C022903D14349095C02299C
:1007700008D03849A02202FB00F211443F4A125C23
:1007800002238B54401EE0E7704700001210002047
:1007900031100020387D010018770100387A0100FF
:1007A000B87A0100D875010078760100B8770100A9
:1007B000187C0100787C010038780100387B01004A
:1007C000B87801001410002038750100400F002097
:1007D0000C8201001004FF1FD87C01009812FF1F3B
:1007E000CC8101004C0F0020B87901000078FF1F78
:1007F00094850100988501005885010060850100FD
:1008000068850100708501000485010010850100E4
:10081000A8840100B88401001C85010078850100CE
:100820002210002028850100348501004085010048
:10083000808501006477FF1F2808FE436C00FE439B
:100840002C08FE4340F00F406400FE43660FFF1F7C
:10085000640FFF1F9C29FF1F161000206811FF1F47
:100860004404FF1FF074FF1F4804FF1FE075FF1FC3
:100870004004FF1F6876FF1FE076FF1F6875FF1FAB
:1008800008B4F0B5A2B004000D001600ADF80040A9
:10089000ADF8025027A807003B0032007F2101A8D5
:1008A00000F036FE4FF478431F2201A9009800F0B3
:1008B000EAF922B0F0BC5DF808FB000010B582B088
:1008C000DFF820050468FDF783F9FEF778FFADF83F
:1008D0000000FEF771FFADF802004FF47842009976
:1008E000200000F001F813BDF2B5040015000099D6
:1008F0002000FEF75DFEBDF80010BDF80200414388
:100900000F000120DFF8E01408600020DFF8DC149D
:1009100008600020DFF8D81408602C20DFF8D41419
:1009200008700020DFF8D01408600120DFF8C81438
:1009300008600120DFF8B814086000200600BE42FD
:100940003AD20120DFF8A01408600120DFF89C14DF
:1009500008600020DFF898140860280080B2000AC0
:10096000DFF8901408700020DFF88C140860012074
:10097000DFF8841408600120DFF874140860012097
:10098000DFF8641408600120DFF8601408600020BC
:10099000DFF85C140860DFF85C0405700020DFF805
:1009A000581408600120DFF8501408600120DFF8B7
:1009B00040140860761CC2E7F1BD38B50400DFF8CA
:1009C0003C040568FEF7F8FEADF80200FEF7F7FEFE
:1009D000ADF80000220092B200992800FFF784FFD2
:1009E00031BD2DE9F14382B00C001500FEF7E7FEA2
:1009F0008046FEF7E1FE8146FEF7E1FEBDF80810F5
:100A0000814205D2FEF7D8FEBDF80A10814204D318
:100A10005721DFF8EC03FBF7FAFABDF80810A4B28F
:100A2000022094FBF0F0091A0E0036B2002E01D518
:100A300000200600BDF80810A4B2022094FBF0F0DC
:100A400041180F003FB21FFA88F8474502DBB8F1A2
:100A500001000700300080B2ADF80400BDF80A00C4
:100A6000ADF80600B81B401CADF800000120ADF841
:100A700002002A0092B200990198FFF735FFBDF9F4
:100A80000A10A4B2022094FBF0F0091A0E0036B24C
:100A9000002E01D500200600BDF90A10A4B20220E4
:100AA00094FBF0F041180F003FB21FFA89F94F454F
:100AB00002DBB9F101000700BDF80800ADF8040041
:100AC000ADF806600120ADF80000B81B401CADF881
:100AD00002002A0092B200990198FFF705FFBDE8D5
:100AE000F7832DE9F14781B00C0015001E00DFF8F7
:100AF0001403D0F800A0FEF762FE0838BDF8041019
:100B0000884206DBFEF758FE1038BDF80610884212
:100B100000DAB6E051460198FEF74AFD0120DFF801
:100B2000C81208600020DFF8C41208600020DFF857
:100B3000C01208602C20DFF8BC1208700020DFF81B
:100B4000B81208600120DFF8B01208600120DFF859
:100B5000A0120860002081465FFA89F9B9F1100FF0
:100B600080F28F80DFF8A002E4B25FFA89F919EB16
:100B700004110844B0F5007000780700002080469A
:100B80005FFA88F8B8F1080F78DA380639D501200D
:100B9000DFF8541208600120DFF8501208600020CE
:100BA000DFF84C120860280080B2000ADFF8441217
:100BB00008700020DFF8401208600120DFF83812CA
:100BC00008600120DFF8281208600120DFF8181201
:100BD00008600120DFF8141208600020DFF810120E
:100BE0000860DFF8100205700020DFF80C120860C2
:100BF0000120DFF8041208600120DFF8F41108601A
:100C000038E00120DFF8E01108600120DFF8DC1196
:100C100008600020DFF8D8110860300080B2000AB8
:100C2000DFF8D01108700020DFF8CC110860012037
:100C3000DFF8C41108600120DFF8B411086001205A
:100C4000DFF8A41108600120DFF8A011086000207F
:100C5000DFF89C110860DFF89C0106700020DFF8C7
:100C6000981108600120DFF8901108600120DFF87A
:100C7000801108607F0018F1010881E719F101096E
:100C80006AE7BDE8F38771B581B00C0015001E005E
:100C9000207800282AD0FEF792FD0838BDF804100D
:100CA000884207DA0020ADF80400BDF806001030D5
:100CB000ADF80600FEF780FD1038BDF8061088423A
:100CC00005DA0020ADF806000020ADF8040033007E
:100CD0009BB22A0092B221780198FFF702FFBDF87B
:100CE00004000830ADF80400641CD1E773BD2DE9A1
:100CF000F14382B00E00904699460A9F34000025C9
:100D0000BDF80A00ADF80600002E1ED13B009BB2D4
:100D10004A4692B230210298FFF7E3FEBDF8080080
:100D20000830ADF808001020ADF802005FFA88F82E
:100D3000B8F1010080B2C000ADF800003A0092B2F4
:100D400000990298FFF7D0FD4AE0002C04D00A2059
:100D5000B4FBF0F46D1CF8E728004146C0B2C9B2FC
:100D6000884200D34546EDB22C00EDB2002D1BD0D9
:100D7000BDF80800EDB2ADB210EBC5000838ADF813
:100D800004006D1E0A213B009BB24A4692B2B6FB9C
:100D9000F1F001FB10613031C9B20198FFF7A1FEFB
:100DA0000A20B6FBF0F6E0E75FFA88F8444517D072
:100DB0005FFA88F8B8EB040080B2C000ADF800001C
:100DC000BDF80800E10011FA80F0ADF8080010202D
:100DD000ADF802003A0092B200990298FFF784FD44
:100DE000BDE8F7839C8501002808FE436C00FE43A4
:100DF0002C08FE4340F00F406400FE43A085010034
:100E00007C800100A4850100344901002DE9F84FE0
:100E100004000D0016001F005FF0000A4D48D0F8D6
:100E200000B059462000FEF7C3FB0120444908608A
:100E30000020444908600020434908602C204349B1
:100E400008700020424908600120414908600120E3
:100E50003D490860002080465FFA88F8B8F1200F0D
:100E60006BDA287882466D1C002081465FFA89F98A
:100E7000B9F1080F5EDA5FEA0A602BD5012030492C
:100E8000086001202F49086000202F4908603000C9
:100E900080B2000A2D49087000202D490860012009
:100EA0002B49086001202849086001202449086076
:100EB0000120244908600020234908602348067067
:100EC00000202349086001202149086001201E49B3
:100ED00008602AE001201A490860012019490860C9
:100EE000002019490860380080B2000A17490870CC
:100EF00000201749086001201549086001201249A7
:100F0000086001200E49086001200E490860002099
:100F10000D4908600D48077000200D490860012048
:100F20000B4908600120084908605FEA4A0A19F184
:100F300001099BE718F101088EE7BDE8F18F000079
:100F40002808FE436C00FE432C08FE4340F00F408F
:100F50006400FE43A8850100F1B50D0017001E00D6
:100F6000069C3800471E80B200282AD0FEF727FCD6
:100F70001038BDF80010884207DA0020ADF80000F4
:100F8000BDF802001030ADF80200FEF715FC103875
:100F9000BDF80210884205DA0020ADF802000020FA
:100FA000ADF8000023009BB2320092B229000098F5
:100FB000FFF72CFF2035BDF800001030ADF8000021
:100FC000CFE7F1BD10B582B000200400E4B2182CC8
:100FD0002EDA6946200040B200F044F80098DFF8AD
:100FE0001815E4B2142202FB04F288500098DFF8CE
:100FF0000815E4B2142202FB04F211444860DFF841
:10100000F804E4B2142101FB04F10844C068DFF8DD
:10101000E814E4B2142202FB04F211448968884205
:1010200004D24921DFF8D404FAF7F1FF641CCDE7BC
:1010300013BD40B2182805DADFF8C42440B252F8D4
:1010400020201160DFF8B02440B2142310FB03F31A
:10105000D150DFF8A42440B2142310FB03F31A4448
:101060005160704740B2182806DADFF8942440B285
:1010700052F8202012680A60704710B50400DFF8AB
:1010800084040078182804DB7D21DFF87004FAF767
:10109000BEFF64B2042C08D0C0F0ED80062C76D0E0
:1010A0003CD3072C00F0AD80E5E0DFF84C14DFF80E
:1010B00054040278142042438958DFF83C24DFF8B6
:1010C000440403781420434302EB0300C0688142C8
:1010D00011D2DFF82414DFF82C04027814204243E4
:1010E0008958491CDFF81024DFF81804037814200D
:1010F0004343D15011E0DFF80014DFF80804027810
:101100001420424301EB02008168DFF8EC23DFF892
:10111000F403037814204343D150ACE0DFF8D81334
:10112000DFF8E00302781420424301EB02008168FB
:10113000DFF8C423DFF8CC03037814204343D058EE
:10114000814211D2DFF8B013DFF8B803027814201F
:1011500042438958491EDFF8A023DFF8A80303782B
:1011600014204343D15011E0DFF88C13DFF89403CF
:1011700002781420424301EB0200C168DFF87823B3
:10118000DFF88003037814204343D15073E0DFF885
:101190006813DFF8700302781420424301EB020069
:1011A000C168DFF85423DFF85C030378142043435D
:1011B000D058091A0B2911D3DFF83C13DFF8440388
:1011C00002781420424389580A31DFF82C23DFF8D3
:1011D0003403037814204343D15011E0DFF818138F
:1011E000DFF8200302781420424301EB02008168FB
:1011F000DFF80423DFF80C03037814204343D150B5
:1012000039E0DFF8F412DFF8FC02027814204243E0
:101210008958DFF8E422DFF8EC0203781420434316
:1012200002EB03008068091A0B2911D3DFF8C812FA
:10123000DFF8D00202781420424389580A39DFF8D7
:10124000B822DFF8C002037814204343D15011E0E4
:10125000DFF8A412DFF8AC0202781420424301EB5D
:101260000200C168DFF89022DFF8980203781420AA
:101270004343D150FFE710BD10B50400A1480078EA
:10128000182803DBB9219D48FAF7C1FE9D48007874
:1012900064B2002C05D0022C1DD00FD3032C27D014
:1012A00033E098490978491C964A117095490978A4
:1012B000182902DB0021934A117027E0914909782F
:1012C000491E904A11708F490978182902DB1721AD
:1012D0008C4A11701AE08B490978891D894A11706E
:1012E00088490978182902DB0021864A11700DE02F
:1012F00084490978891F834A11708249097818291D
:1013000002DB17217F4A117000E0FFE710BD80B5B6
:101310007C480078182803DBEE217848FAF777FE3E
:101320007848007800F0B1F801BDF0B583B0040052
:10133000754800887549088000257248007818288B
:1013400002DAE4B2192C04DB4FF48F716B48FAF720
:101350005EFE6C480078002803D06A4800780728B1
:1013600002D101206849088066480078082803D027
:10137000644800780F2802D1022063490880614840
:101380000078102803D05F480078172802D1032086
:101390005D49088007200500E4B2012C01D100203E
:1013A0000400E4B2022C01D108200400E4B2032CB2
:1013B00001D110200400200052490978C0B28842AF
:1013C0001BD14D48E4B2142101FB04F140584A49B5
:1013D000E4B2142202FB04F211444968884205D1A8
:1013E0001F2007004FF6FF70060021E04FF4FC605D
:1013F00007004FF6FF7006001AE03F48E4B21421E0
:1014000001FB04F140583C49E4B2142202FB04F20F
:1014100011444968884205D11F2007004FF47840E5
:10142000060005E04FF4FC6007004FF4784006002A
:101430003148E4B2142101FB04F108440069019031
:10144000300080B200903B009BB205222A48E4B2F3
:10145000142101FB04F141580198FFF748FC641C7A
:101460002800451EC0B20028A5D1F7BD38B504003C
:101470000D006946200040B2FFF7F4FD64B2C5F8E4
:1014800002400098C5F8060031BD70B588B0040070
:101490001C480078182802DAE4B2192C04DB40F268
:1014A0007B111648FAF7B3FD0025E4B2182C03D1DE
:1014B00017200500002004000F48E4B2142101FBAE
:1014C00004F10844406806000B48E4B2142101FB13
:1014D00004F14158200040B2FFF7ABFD69462000FF
:1014E00040B2FFF7C3FF641C2800451EC0B20028AD
:1014F000E2D1012008B070BD040DFF1F807E010005
:10150000A40CFF1F3110002010100020121000202A
:1015100008B584B00023039300290EBF0193019006
:10152000491E0291009301A904AB07487844183082
:10153000FBF7BCF8019909B100220A70002858BFD6
:10154000039805B000BD00BF07A8FFFFDFF800F05B
:101550002510FF1F80B5002200214920FAF704FC66
:1015600003214920FAF705FD002200214820FAF75F
:10157000FBFB03214820FAF7FCFC00220021472056
:10158000FAF7F2FB03214720FAF7F3FC00220021CF
:101590004620FAF7E9FB03214620FAF7EAFC00228D
:1015A00000214520FAF7E0FB03214520FAF7E1FC92
:1015B000002200214420FAF7D7FB03214420FAF748
:1015C000D8FC01BD80B54920FAF789FC00280FD16D
:1015D0000020C0B2192835DAC0B2C10011F57E2151
:1015E0000968DFF80029C0B242F82010401CF0E77B
:1015F0004820FAF774FC00280FD10020C0B2192847
:1016000020DAC0B2C10011F57D210968DFF8D428C5
:10161000C0B242F82010401CF0E74720FAF75FFC08
:1016200000280FD10020C0B219280BDAC0B2C100C7
:1016300011F57C210968DFF8AC28C0B242F820100F
:10164000401CF0E701BD10B54920FAF748FC00281E
:1016500017D1FE20FAF7C6FC0024E4B2192C4ADAAE
:10166000DFF8500AE4B2142101FB04F142580023D0
:10167000E4B2A4B2E10089B2FE20FFF767FF641C68
:10168000EBE74820FAF72BFC002817D1FD20FAF7EA
:10169000A9FC0024E4B2192C2DDADFF8180AE4B210
:1016A000142101FB04F142580023E4B2A4B2E1008A
:1016B00089B2FD20FFF74AFF641CEBE74720FAF7E9
:1016C0000EFC002817D1FC20FAF78CFC0024E4B2B1
:1016D000192C10DADFF8DC09E4B2142101FB04F163
:1016E00042580023E4B2A4B2E10089B2FC20FFF723
:1016F0002DFF641CEBE710BD80B5DFF8E80700683C
:10170000DFF8E4170860DFF8DC074068DFF8DC1773
:101710000860DFF8D0078068DFF8D4170860DFF8CA
:10172000C40790ED030AB8EEC00ADFF8C80780EDE1
:10173000000ADFF8B0070069DFF8BC170860DFF8BF
:10174000A4074069DFF8B4170860DFF8980790ED48
:10175000060AB8EEC00ADFF8A80780ED000ADFF835
:10176000840790ED070AB8EEC00ADFF8980780ED0D
:10177000000ADFF8700790ED080AB8EEC00ADFF83B
:10178000880780ED000ADFF85C0790ED090AB8EEE3
:10179000C00ADFF8780780ED000ADFF84807806AA2
:1017A000DFF86C170870DFF83C0790ED0B0AB8EE15
:1017B000C00ADFF8600780ED000ADFF8280790ED27
:1017C0000C0AB8EEC00ADFF8500780ED000ADFF817
:1017D0001407406B00F056FE0022DFF84037FBF79D
:1017E00071FF00F061FEDFF838170860DFF8F406DB
:1017F000806BDFF830170860DFF8E806C06BDFF8B1
:1018000028170860DFF8DC06006CDFF82017086096
:10181000DFF8D006406CDFF8181781F85B00DFF8BE
:10182000C406806CDFF80C170860DFF8B806C06CDF
:10183000DFF804170860DFF8AC0690ED140AB8EE84
:10184000C00ADFF8F80680ED000ADFF89806406D60
:10185000DFF8EC160860DFF88C0690ED160AB8EE9B
:10186000C00ADFF8540880ED000ADFF850085FF086
:101870007E510160DFF844085FF07E514160DFF87F
:101880003C085FF07E518160DFF830085FF07E51E8
:10189000C160DFF828085FF07E510161DFF81C08A5
:1018A0005FF07E514161DFF814085FF07E51816185
:1018B000DFF808085FF07E51C161DFF800085FF0D3
:1018C0007E510162DFF8F4075FF07E514162DFF87C
:1018D000EC075FF07E518162DFF8E0075FF07E5138
:1018E000C1620020DFF8D817087001BD80B5FF2065
:1018F000DFF8E41708700820DFF8DC174870DFF81D
:10190000CC070068DFF8D0178870DFF8C4070088BC
:10191000DFF8C417C870DFF8A8070078DFF8B81739
:101920000871DFF8B8070068DFF8AC174871DFF816
:10193000B0070078DFF8A0178871DFF8A8070078F3
:10194000DFF89417C871FE20DFF88C17C8720120E9
:10195000C0B20B280CDADFF88017C0B2095CFE2990
:1019600004DBFD21DFF87027C0B21154401CEFE703
:10197000DFF874070078012815D10020DFF8681718
:1019800008700320DFF8501748700C22DFF8481762
:10199000DFF8D00900F01CFF00F02EF90320DFF87B
:1019A000241708601DE0DFF840070078022811D1F5
:1019B0000020DFF8341708700420DFF808170860EB
:1019C000DFF828070068DFF8281708600420DFF830
:1019D000081748700C22DFF80017DFF8880900F0BC
:1019E000F7FE01BD10B5DFF80C0790ED000AF2EE2E
:1019F000040A20EE200ABDEEC00ADFF8FC0680EDE6
:101A0000000ADFF8F8060168DFF818050068091A0F
:101A1000DFF8E4064160DFF8E8060068DFF8D81672
:101A20008860DFF8E0060068DFF8CC16C860DFF8F1
:101A3000D8060068DFF8C0160861DFF8D00690ED20
:101A4000000AF2EE040A20EE200ABDEEC00ADFF81A
:101A5000A80680ED050ADFF874060068DFF898161E
:101A60008861DFF86C06B0F90000DFF88C16C861F9
:101A7000DFF860060068DFF880160862DFF890067D
:101A800090ED000ABDEEC00ADFF86C0680ED090A91
:101A9000DFF880060068DFF860168862DFF87806F5
:101AA0000068DFF85416C862DFF830060068DFF817
:101AB00048160863DFF82C0690F90000DFF83816A6
:101AC0004863DFF8580690F90000DFF82C168863A9
:101AD000DFF8EC0590F90000DFF81C16C863DFF8AA
:101AE000880890F90000DFF810160864DFF87C0819
:101AF00090ED000ABDEEC00ADFF8FC0580ED110A8A
:101B0000DFF86C0890ED000ABDEEC00ADFF8E805CA
:101B100080ED120ADFF85C0890F91800DFF8D8159C
:101B2000C864DFF854080068DFF8CC150865DFF8F2
:101B30004C080068DFF8C0154865DFF84408006805
:101B4000DFF8B4158865DFF83C080068DFF8A815F1
:101B5000C865DFF8740590ED000ABDEEC00ADFF835
:101B6000980580ED180A4120DFF81C180870002045
:101B7000192833DADFF8801551F820100912DFF840
:101B8000082802EB40025170DFF86C1551F8201064
:101B9000DFF8F42702EB40029170DFF85C1551F892
:101BA000201000290CD5DFF8E01701EB400149783F
:101BB00051F08001DFF8D02702EB400251700BE0BA
:101BC000DFF8C41701EB4001497811F07F01DFF81D
:101BD000B82702EB40025170401CC9E74220DFF8F1
:101BE000A81781F8330096243422DFF89C17DFF819
:101BF0009C0700F0EDFD10BD80B5DFF81405002155
:101C00000160DFF88C0700210160DFF88807002100
:101C10000160DFF88407002101600020DFF87C17F5
:101C200008600020DFF8781708600020DFF89014C3
:101C300008700020DFF86C1708600020DFF8B0148F
:101C400008600020DFF8601708700020DFF85C17DC
:101C500008600020DFF8581708700020DFF88414AF
:101C600008700120DFF84C1708704FF6FF70FEF780
:101C7000A4FE01BD80B5DFF848070068032806D13F
:101C800041F270720121032000F0A7FF04E000225E
:101C90000121032000F0A1FF01BD80B50022012138
:101CA000032000F09AFF01BD80B58E4800688E4980
:101CB00008608D480068DFF8FC13086089484068B8
:101CC0008A49086089480068DFF8E8134861854858
:101CD00080688749086086480068DFF8D813886202
:101CE000804890ED030AB8EEC00A824880ED000AF1
:101CF000804890ED000ABCEEC00ADFF8B80380ED22
:101D00000F0A784800697C4908607B480068DFF862
:101D1000A4130865734840697849086077480068EB
:101D2000DFF8901348666F4890ED060AB8EEC00AD7
:101D3000734880ED000A724890ED000ABCEEC00ABC
:101D4000DFF8700380ED1E0A664890ED070AB8EED2
:101D5000C00A6C4880ED000A6A4890ED000ABCEEAB
:101D6000C00AD44880ED230A5E4890ED080AB8EE18
:101D7000C00A654880ED000A634890ED000ABCEE99
:101D8000C00ACC4880ED280A564890ED090AB8EE02
:101D9000C00A5E4880ED000A5C4890ED000ABCEE87
:101DA000C00AC44880ED2D0A4E48806A5849087020
:101DB00057480078BF49C1F8C8004A4890ED0B0A5F
:101DC000B8EEC00A534880ED000A524890ED000A70
:101DD000BCEEC00AB74880ED370A424890ED0C0AC5
:101DE000B8EEC00A4C4880ED000A4B4890ED000A5E
:101DF000BCEEC00AAF4880ED3C0A3A4890ED0D0AAF
:101E0000B8EEC00A464880ED000A454890ED000A49
:101E1000BCEEC00AA74880ED410A3248806B4149B8
:101E2000086040480068A349C1F818012D48C06BFC
:101E30003D4908603C4800689E49C1F82C0129488A
:101E4000006C3A490860394800689A49C1F8400175
:101E50002448406C364981F85B00354890F85B00B7
:101E60009449C1F854011F48806C324908603148D8
:101E700000689049C1F868011A48C06C2E49086092
:101E80002D4800688B49C1F87C01164890ED140A72
:101E9000B8EEC00A294880ED000A284890ED000AF3
:101EA000BCEEC00A834880ED640A0E48406D2449A8
:101EB0000860234800687F49C1F8A401094890EDF3
:101EC000160AB8EEC00A7C4880ED000A7A4890ED08
:101ED000000ABCEEC00A774880ED6E0A1820FFF7B2
:101EE000D4FA01BD0078FF1F000F0020040F00206E
:101EF000140F0020080F00200C0F0020100F0020EE
:101F0000B012FF1FB412FF1FA012FF1FB812FF1F55
:101F1000191000209C12FF1FA412FF1F0088C3404D
:101F20008477FF1F2C04FF1F3004FF1F3404FF1FA2
:101F3000400CFF1F240F0020280F0020C812FF1F95
:101F4000700F002080B51820FFF79FFADFF87404A7
:101F50000068DFF874140860DFF868044068DFF890
:101F60006C140860DFF85C048068DFF864140860B3
:101F7000DFF8500490ED030AB8EEC00ADFF854040D
:101F800080ED000ADFF83C040069DFF84C140860BB
:101F9000DFF830044069DFF844140860DFF82404F7
:101FA00090ED060AB8EEC00ADFF8340480ED000AAE
:101FB000DFF8100490ED070AB8EEC00ADFF8240439
:101FC00080ED000ADFF8FC0390ED080AB8EEC00AC5
:101FD000DFF8140480ED000ADFF8E80390ED090A49
:101FE000B8EEC00ADFF8040480ED000ADFF8D4037D
:101FF000806ADFF8FC130870DFF8C80390ED0B0A65
:10200000B8EEC00ADFF8EC0380ED000ADFF8B40395
:1020100090ED0C0AB8EEC00ADFF8DC0380ED000A90
:10202000DFF8A00390ED0D0AB8EEC00ADFF8CC038C
:1020300080ED000ADFF88C03806BDFF8C4130860C2
:10204000DFF88003C06BDFF8BC130860DFF87403AF
:10205000006CDFF8B4130860DFF86803406CDFF849
:10206000AC1381F85B00DFF85C03806CDFF8A01331
:102070000860DFF85003C06CDFF898130860DFF8E1
:10208000440390ED140AB8EEC00ADFF88C0380ED2B
:10209000000ADFF83003406DDFF880130860DFF8D6
:1020A000240390ED160AB8EEC00A034880ED000A3A
:1020B00001BD0000040DFF1F740F0020A474FF1F5A
:1020C0002B100020CC11FF1F1004FF1F180F002041
:1020D00014100020400F00202C12FF1F6C0F002056
:1020E000B811FF1F1A100020281000205C77FF1F76
:1020F0006077FF1F7477FF1F9C77FF1FC412FF1FBD
:102100004004FF1F4404FF1F4804FF1F9812FF1FD5
:102110004C0F0020D011FF1FD411FF1F1C100020F6
:102120002DE9F04F87B00E20069000200590A24CBC
:10213000059A0699200000F09DFE0E2004900020D4
:1021400003909E4C039A0499200000F093FE78209F
:102150000290B34800680190B24C019A02992000A5
:1021600000F088FE78245025AF4E2A002100300070
:1021700000F080FE7826AD480768DFF8B4823A00A8
:102180003100404600F076FE5FF078085FF000090D
:10219000DFF8A0A24A464146504600F06BFE5FF0D1
:1021A000780A5FF0000BA44800905A465146009808
:1021B00000F060FE00980020A04908709F48007859
:1021C0009F4908709F4800689F4908609F480068C1
:1021D0009C4908609E4800689E4908609E480068C7
:1021E0009E4908608E4800689D4908608F480068D5
:1021F0009C49086000209C49087000209B49087099
:102200006F480068042802D16148002101605648E7
:1022100090F9000000280DD1954890F9000016288B
:1022200004D100210120F9F706FD03E0012101207E
:10223000F9F701FDF9F704FB00205D4908708C48AF
:1022400000788C4908708A4890F90000022834D040
:10225000874890F9000010282FD0854890F9000099
:1022600016282AD0824890F90000112825D08048ED
:1022700090F90000122820D07D4890F9000016281F
:102280001BD07B4890F90000172816D0784890F9A9
:102290000000182811D0764890F9000019280CD0B9
:1022A000734890F900001A2807D0714890F900008F
:1022B0001B2802D000206E4908706F4890F900007A
:1022C000022834D06C4890F9000010282FD06A48BA
:1022D00090F9000016282AD0674890F900001128CC
:1022E00025D0654890F90000122820D0624890F966
:1022F000000016281BD0604890F90000172816D05F
:102300005D4890F90000182811D05B4890F9000052
:1023100019280CD0584890F900001A2807D05648C0
:1023200090F900001B2802D00020534908700E4885
:1023300090F90000012811D1504890ED000AB8EE44
:10234000C00A4F48D0ED000AF4EE400AF1EE10FA50
:1023500002DBFFF78FFC01E0FFF79FFC07B0BDE851
:10236000F08F00006812FF1F16100020A812FF1F38
:10237000AC12FF1F6811FF1F6C77FF1F7077FF1FE4
:102380001C0F0020200F0020D811FF1F3812FF1F44
:10239000500F00205C0F0020540F0020440F00203D
:1023A000480F0020640F0020201000206477FF1FDA
:1023B000221000202A1000200C12FF1F1C12FF1FE9
:1023C000CC11FF1F0078FF1F000F0020040F00201A
:1023D000140F0020080F00200C0F0020100F002009
:1023E000B012FF1FB412FF1FA012FF1FB812FF1F71
:1023F000191000209C12FF1FA412FF1F8477FF1FDB
:102400002C04FF1F3004FF1F3404FF1F400CFF1F6C
:10241000240F0020280F0020C812FF1F700F00207B
:102420003804FF1FF074FF1F6875FF1F3C04FF1F77
:10243000E075FF1F6876FF1FE076FF1F1E1000206B
:102440001D1000204004FF1F5877FF1F4C04FF1F82
:102450005004FF1F4404FF1F5404FF1F4804FF1FC4
:102460005876FF1F5C76FF1F1F10002021100020F0
:102470001A1000201B1000201C1000206C0F0020E0
:102480001C0CFF1FC11768B14840401AB0FA80F217
:102490009040D21CC907C2F5846241EA025202EBA5
:1024A000D02140057047000001F000428B1AA3F1D3
:1024B0006051B1F5801F0ADBB1F17F6F1FD242EA94
:1024C000C102C10071F1004142EB507070470B1521
:1024D000C3F10903212B10D2890241EA90518002F5
:1024E0000128494141F0004121FA03F0C3F12003E2
:1024F000994071F1004150417047100070476FF0F2
:10250000000013EB103F5CBF000E42EAC050704762
:1025100070B504000D0016002900200040B2F9F744
:102520005DFE01220121200040B200F0CDF8DFF86D
:10253000200364B250F8240070700020B0710120B4
:1025400070800020B080DFF8080364B250F82400E7
:10255000F060002070610120B06000203074002025
:102560003076DFF8F00264B250F8240030620020C8
:10257000B0620020F061002086F82400002086F878
:102580002C00002086F82D00300000F001F870BD0E
:1025900010B50400A088B0F5004F03DB4A21AE4817
:1025A000F9F735FDAD48006850F00200AB4908600E
:1025B000AB48006850F00200A9490860E068A949EA
:1025C000227852018850206AA6492278520111448B
:1025D00008610120A3492278520111448880E069F2
:1025E000A049227852011144888294F9180094F984
:1025F0001010090211F4E06151EAC02194F92C0095
:10260000C00010F0F800014394F8240010F0070017
:1026100001439448227852011044C180A0884004AC
:10262000400C9049227852011144C882A08840048D
:10263000400C8C49227852011144C8838A480068B2
:1026400030F080008849086060888649227852010D
:102650001144886000208349227852011144C860E7
:1026600094F82D00C00704D461884942A0884143F2
:1026700000E000217B4822785201104481614CF235
:102680000A0078492278520111448883607810F05A
:102690003F0050F0800075492278885474480168E2
:1026A000012220788240914371480160714801689D
:1026B00001222078824011436E48016010BD694AB2
:1026C000C0B24301D150704710B449B20B00012B86
:1026D00002D0032B3DD079E0D2B2002A0DD0664B58
:1026E00040B253F82030DB7853F08003624C40B2A4
:1026F00054F82040E370DBB20CE05F4B40B253F87B
:102700002030DB7813F07F035B4C40B254F820405C
:10271000E370DBB2D2B2002A0DD0574B40B253F86F
:102720002030DB7A53F08003534C40B254F8204001
:10273000E372DBB20CE0504B40B253F82030DB7A4E
:1027400013F07F034C4C40B254F82040E372DBB2EC
:102750003CE0D2B2002A0DD0474B40B253F82030B3
:10276000DB7853F02003444C40B254F82040E3702F
:10277000DBB20CE0404B40B253F82030DB7813F072
:10278000DF033D4C40B254F82040E370DBB2D2B2DC
:10279000002A0DD0384B40B253F82030DB7A53F08A
:1027A0002003354C40B254F82040E372DBB20CE019
:1027B000314B40B253F82030DB7A13F0DF032E4C5C
:1027C00040B254F82040E372DBB2FFE710BC704720
:1027D00070B504000D00160029002078FFF76FFF88
:1027E0002048217849010844C6821E4821784901C1
:1027F0000844C6831E4801680122207882401143A4
:102800001B48016070BD1B490A68012301788B4099
:102810001A4318490A6081884904490C114A03780F
:102820005B011A44D18281884904490C0D4A03781E
:102830005B011A44D183C1680A4A03785B01D15015
:10284000016A084A03785B011A441161704700006D
:10285000008401001404FF1FC48001004080044074
:102860003C80044000900040008000400010024086
:102870000C80004024800040F80BFF1F38B5040096
:102880000D0064B2002C06D0022C69D04CD3032C6E
:1028900000F08280C7E0DFF8C405006850F0807067
:1028A000DFF8B81508606DB2002D0BD0022D15D0E1
:1028B0000ED3042D1ED017D3062D27D020D3072DDD
:1028C0002AD02FE04FF480614120F9F72DFB2AE058
:1028D0004FF440710420F9F727FB24E04FF44071D6
:1028E0000520F9F721FB1EE04FF440710620F9F7AF
:1028F0001BFB18E04FF440710720F9F715FB12E0BD
:102900004FF480616520F9F70FFB0CE04FF4806114
:102910006620F9F709FB06E04FF480616720F9F7BC
:1029200003FB00E07FE07EE0DFF83005006850F058
:102930000070DFF8281508606DB2002D02D0012D5F
:1029400006D00BE04FF440710C20F9F7EDFA06E0E9
:102950004FF440710D20F9F7E7FA00E063E062E020
:10296000DFF8FC04006850F08070DFF8F4140860B1
:102970006DB2002D02D0012D06D00BE04FF4407156
:102980000A20F9F7D1FA06E04FF440710B20F9F76D
:10299000CBFA00E047E046E0DFF8C404006850F0FE
:1029A0000070DFF8BC1408606DB2002D0BD0022D52
:1029B00015D00ED3042D1ED017D3062D27D020D32B
:1029C000072D2AD02EE04FF4C0618520F9F7ACFA2C
:1029D00028E04FF4C0618620F9F7A6FA22E04FF410
:1029E000C0618720F9F7A0FA1CE04FF4C06188208D
:1029F000F9F79AFA16E04FF4C0618920F9F794FAD2
:102A000010E04FF4C0618A20F9F78EFA0AE04FF423
:102A1000C0618B20F9F788FA04E04FF4C0618C2084
:102A2000F9F782FAFFE731BD2DE9F84F04000D00F8
:102A300016001F0064B2002C11D064B2012C02D029
:102A400064B2022C02D16DB2022D08DB64B2032CF9
:102A500005D040F28511DFF80C04F9F7D8FA290007
:102A600049B2200040B2FFF709FFDFF8FC0301681C
:102A70004FF47A70414388464046000CB0FBF6F0B4
:102A80008146002082461FFA89F9484650FA0AF02A
:102A9000012802DB1AF1010AF5E75FFA8AFABAF1B6
:102AA000080F05DB4FF4D071DFF8B803F9F7AFFA80
:102AB000404630FA0AF0B0FBF6F081461FFA89F979
:102AC000DFF8A80364B240F8249064B2002C05D06B
:102AD000022C1BD00ED3032C24D02FE01FFA89F92F
:102AE00019F1010000FB07F042F21071B0FBF1F0A8
:102AF000834623E01FFA89F919F1010000FB07F072
:102B000042F21071B0FBF1F0834617E01FFA89F929
:102B100019F1010000FB07F042F21071B0FBF1F077
:102B200083460BE01FFA89F919F1010000FB07F059
:102B300042F21071B0FBF1F08346FFE7DFF830039B
:102B400064B250F824006DB200EBC500DFF820132A
:102B500064B251F824106DB201EBC501C96831F0BF
:102B60000401C160DFF8080364B250F824006DB2BC
:102B700000EBC5002821C1605FFA8AFA1AF007004D
:102B800050F00800DFF8E81264B251F82410086031
:102B90001FFA89F9DFF8D80264B250F82400C0F8AF
:102BA00008900020DFF8C81264B251F82410C864FD
:102BB000DFF8BC0264B250F824006DB200EBC5002F
:102BC0001FFA8BFBC0F810B00020DFF8A41264B22B
:102BD00051F824104860BDE8F18F2DE9F041040060
:102BE0000D0016005FF0000864B2002C11D064B232
:102BF000012C02D064B2022C02D16DB2022D08DB8E
:102C000064B2032C05D04FF4F371DFF85802F9F7E2
:102C1000FEF964B2002C05D0022C19D00DD3032C80
:102C200021D02BE042F21170864205D34FF4F671A9
:102C3000DFF83002F9F7EBF920E042F2117086423A
:102C400005D34FF4F871DFF81C02F9F7E0F915E04D
:102C500042F21170864205D34FF4FA71DFF8040294
:102C6000F9F7D5F90AE042F21170864205D340F235
:102C7000F911DFF8F001F9F7CAF9FFE7DFF8EC0125
:102C800064B250F82400804664B2002C05D0022CB7
:102C900017D00CD3032C1ED027E018F1010000FB45
:102CA00006F042F21071B0FBF1F007001DE018F1E0
:102CB000010000FB06F042F21071B0FBF1F00700DA
:102CC00013E018F1010000FB06F042F21071B0FBB6
:102CD000F1F0070009E018F1010000FB06F042F2F4
:102CE0001071B0FBF1F00700FFE7DFF8840164B278
:102CF00050F824006DB200EBC5000761BDE8F0811B
:102D000010B5040064B2012C07D064B2022C04D0C8
:102D100040F2DB215348F9F77AF964B22000012828
:102D200002D0022811D021E04C48006850F0007019
:102D30004A4908604FF4E0610C20F9F7F5F84FF4C8
:102D4000E0610D20F9F7F0F815E04548006850F013
:102D50008070434908604FF4C0610A20F9F7E4F835
:102D60004FF4C0610B20F9F7DFF804E040F21331B3
:102D70003C48F9F74CF93E4864B250F82400406DE5
:102D800050F004003A4964B251F8241048653848BC
:102D900064B250F82400D0F8800050F008003449A4
:102DA00064B251F82410C1F880000020304964B2A8
:102DB00051F82410C8644FF6FF702D4964B251F8E1
:102DC000241088602A4864B250F82400D0F88000AB
:102DD00050F00100264964B251F82410C1F8800077
:102DE000234864B250F82400406D50F0010020499F
:102DF00064B251F82410486500201D4964B251F8AE
:102E00002410486010BD38B5040064B2012C07D00E
:102E100064B2022C04D04FF44C711248F9F7F7F861
:102E2000134864B250F8240040680500280000B23E
:102E300032BD10B5040064B2012C07D064B2022C7C
:102E400004D040F23E310748F9F7E1F80020084984
:102E500064B251F82410486010BD00003C8004406A
:102E6000308004405C7F0100800F0020F00E0020C5
